{
  "contractName": "BadgeME",
  "abi": [
    {
      "inputs": [
        {
          "internalType": "address",
          "name": "PolygonME",
          "type": "address"
        }
      ],
      "stateMutability": "nonpayable",
      "type": "constructor"
    },
    {
      "anonymous": false,
      "inputs": [
        {
          "indexed": true,
          "internalType": "address",
          "name": "account",
          "type": "address"
        },
        {
          "indexed": true,
          "internalType": "address",
          "name": "operator",
          "type": "address"
        },
        {
          "indexed": false,
          "internalType": "bool",
          "name": "approved",
          "type": "bool"
        }
      ],
      "name": "ApprovalForAll",
      "type": "event"
    },
    {
      "anonymous": false,
      "inputs": [
        {
          "indexed": true,
          "internalType": "address",
          "name": "previousOwner",
          "type": "address"
        },
        {
          "indexed": true,
          "internalType": "address",
          "name": "newOwner",
          "type": "address"
        }
      ],
      "name": "OwnershipTransferred",
      "type": "event"
    },
    {
      "anonymous": false,
      "inputs": [
        {
          "indexed": true,
          "internalType": "address",
          "name": "operator",
          "type": "address"
        },
        {
          "indexed": true,
          "internalType": "address",
          "name": "from",
          "type": "address"
        },
        {
          "indexed": true,
          "internalType": "address",
          "name": "to",
          "type": "address"
        },
        {
          "indexed": false,
          "internalType": "uint256[]",
          "name": "ids",
          "type": "uint256[]"
        },
        {
          "indexed": false,
          "internalType": "uint256[]",
          "name": "values",
          "type": "uint256[]"
        }
      ],
      "name": "TransferBatch",
      "type": "event"
    },
    {
      "anonymous": false,
      "inputs": [
        {
          "indexed": true,
          "internalType": "address",
          "name": "operator",
          "type": "address"
        },
        {
          "indexed": true,
          "internalType": "address",
          "name": "from",
          "type": "address"
        },
        {
          "indexed": true,
          "internalType": "address",
          "name": "to",
          "type": "address"
        },
        {
          "indexed": false,
          "internalType": "uint256",
          "name": "id",
          "type": "uint256"
        },
        {
          "indexed": false,
          "internalType": "uint256",
          "name": "value",
          "type": "uint256"
        }
      ],
      "name": "TransferSingle",
      "type": "event"
    },
    {
      "anonymous": false,
      "inputs": [
        {
          "indexed": false,
          "internalType": "string",
          "name": "value",
          "type": "string"
        },
        {
          "indexed": true,
          "internalType": "uint256",
          "name": "id",
          "type": "uint256"
        }
      ],
      "name": "URI",
      "type": "event"
    },
    {
      "inputs": [
        {
          "internalType": "uint256",
          "name": "",
          "type": "uint256"
        },
        {
          "internalType": "address",
          "name": "",
          "type": "address"
        }
      ],
      "name": "_addressBlacklist",
      "outputs": [
        {
          "internalType": "bool",
          "name": "",
          "type": "bool"
        }
      ],
      "stateMutability": "view",
      "type": "function",
      "constant": true
    },
    {
      "inputs": [
        {
          "internalType": "uint256",
          "name": "",
          "type": "uint256"
        },
        {
          "internalType": "address",
          "name": "",
          "type": "address"
        }
      ],
      "name": "_addressWhitelist",
      "outputs": [
        {
          "internalType": "bool",
          "name": "",
          "type": "bool"
        }
      ],
      "stateMutability": "view",
      "type": "function",
      "constant": true
    },
    {
      "inputs": [
        {
          "internalType": "uint256",
          "name": "",
          "type": "uint256"
        }
      ],
      "name": "_creators",
      "outputs": [
        {
          "internalType": "address",
          "name": "",
          "type": "address"
        }
      ],
      "stateMutability": "view",
      "type": "function",
      "constant": true
    },
    {
      "inputs": [
        {
          "internalType": "uint256",
          "name": "",
          "type": "uint256"
        }
      ],
      "name": "_endTimestamp",
      "outputs": [
        {
          "internalType": "uint256",
          "name": "",
          "type": "uint256"
        }
      ],
      "stateMutability": "view",
      "type": "function",
      "constant": true
    },
    {
      "inputs": [
        {
          "internalType": "string",
          "name": "",
          "type": "string"
        },
        {
          "internalType": "uint256",
          "name": "",
          "type": "uint256"
        }
      ],
      "name": "_nameBalances",
      "outputs": [
        {
          "internalType": "bool",
          "name": "",
          "type": "bool"
        }
      ],
      "stateMutability": "view",
      "type": "function",
      "constant": true
    },
    {
      "inputs": [
        {
          "internalType": "uint256",
          "name": "",
          "type": "uint256"
        },
        {
          "internalType": "string",
          "name": "",
          "type": "string"
        }
      ],
      "name": "_nameBlacklist",
      "outputs": [
        {
          "internalType": "bool",
          "name": "",
          "type": "bool"
        }
      ],
      "stateMutability": "view",
      "type": "function",
      "constant": true
    },
    {
      "inputs": [
        {
          "internalType": "uint256",
          "name": "",
          "type": "uint256"
        },
        {
          "internalType": "string",
          "name": "",
          "type": "string"
        }
      ],
      "name": "_nameWhitelist",
      "outputs": [
        {
          "internalType": "bool",
          "name": "",
          "type": "bool"
        }
      ],
      "stateMutability": "view",
      "type": "function",
      "constant": true
    },
    {
      "inputs": [
        {
          "internalType": "uint256",
          "name": "",
          "type": "uint256"
        }
      ],
      "name": "_startTimestamp",
      "outputs": [
        {
          "internalType": "uint256",
          "name": "",
          "type": "uint256"
        }
      ],
      "stateMutability": "view",
      "type": "function",
      "constant": true
    },
    {
      "inputs": [
        {
          "internalType": "address",
          "name": "account",
          "type": "address"
        },
        {
          "internalType": "uint256",
          "name": "id",
          "type": "uint256"
        }
      ],
      "name": "balanceOf",
      "outputs": [
        {
          "internalType": "uint256",
          "name": "",
          "type": "uint256"
        }
      ],
      "stateMutability": "view",
      "type": "function",
      "constant": true
    },
    {
      "inputs": [
        {
          "internalType": "address[]",
          "name": "accounts",
          "type": "address[]"
        },
        {
          "internalType": "uint256[]",
          "name": "ids",
          "type": "uint256[]"
        }
      ],
      "name": "balanceOfBatch",
      "outputs": [
        {
          "internalType": "uint256[]",
          "name": "",
          "type": "uint256[]"
        }
      ],
      "stateMutability": "view",
      "type": "function",
      "constant": true
    },
    {
      "inputs": [
        {
          "internalType": "address",
          "name": "account",
          "type": "address"
        },
        {
          "internalType": "address",
          "name": "operator",
          "type": "address"
        }
      ],
      "name": "isApprovedForAll",
      "outputs": [
        {
          "internalType": "bool",
          "name": "",
          "type": "bool"
        }
      ],
      "stateMutability": "view",
      "type": "function",
      "constant": true
    },
    {
      "inputs": [],
      "name": "owner",
      "outputs": [
        {
          "internalType": "address",
          "name": "",
          "type": "address"
        }
      ],
      "stateMutability": "view",
      "type": "function",
      "constant": true
    },
    {
      "inputs": [],
      "name": "renounceOwnership",
      "outputs": [],
      "stateMutability": "nonpayable",
      "type": "function"
    },
    {
      "inputs": [
        {
          "internalType": "address",
          "name": "operator",
          "type": "address"
        },
        {
          "internalType": "bool",
          "name": "approved",
          "type": "bool"
        }
      ],
      "name": "setApprovalForAll",
      "outputs": [],
      "stateMutability": "nonpayable",
      "type": "function"
    },
    {
      "inputs": [
        {
          "internalType": "bytes4",
          "name": "interfaceId",
          "type": "bytes4"
        }
      ],
      "name": "supportsInterface",
      "outputs": [
        {
          "internalType": "bool",
          "name": "",
          "type": "bool"
        }
      ],
      "stateMutability": "view",
      "type": "function",
      "constant": true
    },
    {
      "inputs": [
        {
          "internalType": "address",
          "name": "newOwner",
          "type": "address"
        }
      ],
      "name": "transferOwnership",
      "outputs": [],
      "stateMutability": "nonpayable",
      "type": "function"
    },
    {
      "inputs": [
        {
          "internalType": "uint256",
          "name": "",
          "type": "uint256"
        }
      ],
      "name": "uri",
      "outputs": [
        {
          "internalType": "string",
          "name": "",
          "type": "string"
        }
      ],
      "stateMutability": "view",
      "type": "function",
      "constant": true
    },
    {
      "inputs": [
        {
          "internalType": "address",
          "name": "PolygonME",
          "type": "address"
        }
      ],
      "name": "fixME",
      "outputs": [],
      "stateMutability": "nonpayable",
      "type": "function"
    },
    {
      "inputs": [
        {
          "internalType": "string",
          "name": "_name",
          "type": "string"
        }
      ],
      "name": "getAddress",
      "outputs": [
        {
          "internalType": "address",
          "name": "",
          "type": "address"
        }
      ],
      "stateMutability": "view",
      "type": "function",
      "constant": true
    },
    {
      "inputs": [
        {
          "internalType": "uint256",
          "name": "id",
          "type": "uint256"
        },
        {
          "internalType": "uint256",
          "name": "start_timestamp",
          "type": "uint256"
        },
        {
          "internalType": "uint256",
          "name": "end_timestamp",
          "type": "uint256"
        }
      ],
      "name": "prepare",
      "outputs": [],
      "stateMutability": "nonpayable",
      "type": "function"
    },
    {
      "inputs": [
        {
          "internalType": "uint256",
          "name": "id",
          "type": "uint256"
        },
        {
          "internalType": "uint256",
          "name": "amount",
          "type": "uint256"
        }
      ],
      "name": "mint",
      "outputs": [],
      "stateMutability": "nonpayable",
      "type": "function"
    },
    {
      "inputs": [
        {
          "internalType": "uint256",
          "name": "id",
          "type": "uint256"
        },
        {
          "internalType": "string",
          "name": "name",
          "type": "string"
        }
      ],
      "name": "claim",
      "outputs": [],
      "stateMutability": "nonpayable",
      "type": "function"
    },
    {
      "inputs": [
        {
          "internalType": "uint256",
          "name": "id",
          "type": "uint256"
        },
        {
          "internalType": "address[]",
          "name": "addresses",
          "type": "address[]"
        },
        {
          "internalType": "bool",
          "name": "state",
          "type": "bool"
        },
        {
          "internalType": "uint256",
          "name": "list",
          "type": "uint256"
        }
      ],
      "name": "manageAddressWhitelist",
      "outputs": [],
      "stateMutability": "nonpayable",
      "type": "function"
    },
    {
      "inputs": [
        {
          "internalType": "uint256",
          "name": "id",
          "type": "uint256"
        },
        {
          "internalType": "string[]",
          "name": "names",
          "type": "string[]"
        },
        {
          "internalType": "bool",
          "name": "state",
          "type": "bool"
        },
        {
          "internalType": "uint256",
          "name": "list",
          "type": "uint256"
        }
      ],
      "name": "manageNameWhitelist",
      "outputs": [],
      "stateMutability": "nonpayable",
      "type": "function"
    },
    {
      "inputs": [
        {
          "internalType": "uint256",
          "name": "tknId",
          "type": "uint256"
        }
      ],
      "name": "creatorOfEvent",
      "outputs": [
        {
          "internalType": "address",
          "name": "",
          "type": "address"
        }
      ],
      "stateMutability": "view",
      "type": "function",
      "constant": true
    },
    {
      "inputs": [
        {
          "internalType": "uint256",
          "name": "id",
          "type": "uint256"
        },
        {
          "internalType": "address",
          "name": "who",
          "type": "address"
        }
      ],
      "name": "isInAddressWhitelist",
      "outputs": [
        {
          "internalType": "bool",
          "name": "",
          "type": "bool"
        }
      ],
      "stateMutability": "view",
      "type": "function",
      "constant": true
    },
    {
      "inputs": [
        {
          "internalType": "uint256",
          "name": "name",
          "type": "uint256"
        },
        {
          "internalType": "string",
          "name": "who",
          "type": "string"
        }
      ],
      "name": "isInNameWhitelist",
      "outputs": [
        {
          "internalType": "bool",
          "name": "",
          "type": "bool"
        }
      ],
      "stateMutability": "view",
      "type": "function",
      "constant": true
    },
    {
      "inputs": [
        {
          "internalType": "uint256",
          "name": "id",
          "type": "uint256"
        },
        {
          "internalType": "address",
          "name": "who",
          "type": "address"
        }
      ],
      "name": "isInAddressBlacklist",
      "outputs": [
        {
          "internalType": "bool",
          "name": "",
          "type": "bool"
        }
      ],
      "stateMutability": "view",
      "type": "function",
      "constant": true
    },
    {
      "inputs": [
        {
          "internalType": "uint256",
          "name": "name",
          "type": "uint256"
        },
        {
          "internalType": "string",
          "name": "who",
          "type": "string"
        }
      ],
      "name": "isInNameBlacklist",
      "outputs": [
        {
          "internalType": "bool",
          "name": "",
          "type": "bool"
        }
      ],
      "stateMutability": "view",
      "type": "function",
      "constant": true
    },
    {
      "inputs": [
        {
          "internalType": "string",
          "name": "name",
          "type": "string"
        },
        {
          "internalType": "uint256",
          "name": "id",
          "type": "uint256"
        }
      ],
      "name": "hasBadge",
      "outputs": [
        {
          "internalType": "bool",
          "name": "",
          "type": "bool"
        }
      ],
      "stateMutability": "view",
      "type": "function",
      "constant": true
    },
    {
      "inputs": [
        {
          "internalType": "address",
          "name": "to",
          "type": "address"
        },
        {
          "internalType": "string",
          "name": "name",
          "type": "string"
        },
        {
          "internalType": "uint256",
          "name": "id",
          "type": "uint256"
        }
      ],
      "name": "transferBadge",
      "outputs": [],
      "stateMutability": "nonpayable",
      "type": "function"
    },
    {
      "inputs": [
        {
          "internalType": "address",
          "name": "from",
          "type": "address"
        },
        {
          "internalType": "address",
          "name": "to",
          "type": "address"
        },
        {
          "internalType": "uint256",
          "name": "id",
          "type": "uint256"
        },
        {
          "internalType": "uint256",
          "name": "amount",
          "type": "uint256"
        },
        {
          "internalType": "bytes",
          "name": "data",
          "type": "bytes"
        }
      ],
      "name": "safeTransferFrom",
      "outputs": [],
      "stateMutability": "pure",
      "type": "function",
      "constant": true
    },
    {
      "inputs": [
        {
          "internalType": "address",
          "name": "from",
          "type": "address"
        },
        {
          "internalType": "address",
          "name": "to",
          "type": "address"
        },
        {
          "internalType": "uint256[]",
          "name": "ids",
          "type": "uint256[]"
        },
        {
          "internalType": "uint256[]",
          "name": "amounts",
          "type": "uint256[]"
        },
        {
          "internalType": "bytes",
          "name": "data",
          "type": "bytes"
        }
      ],
      "name": "safeBatchTransferFrom",
      "outputs": [],
      "stateMutability": "pure",
      "type": "function",
      "constant": true
    }
  ],
  "bytecode": "0x60806040523480156200001157600080fd5b50604051620055d6380380620055d6833981810160405281019062000037919062000301565b604051806060016040528060268152602001620055b0602691396200006281620000fd60201b60201c565b5062000083620000776200011960201b60201c565b6200012160201b60201c565b80600460006101000a81548173ffffffffffffffffffffffffffffffffffffffff021916908373ffffffffffffffffffffffffffffffffffffffff160217905550604051806060016040528060268152602001620055b06026913960059080519060200190620000f5929190620001e7565b505062000398565b806002908051906020019062000115929190620001e7565b5050565b600033905090565b6000600360009054906101000a900473ffffffffffffffffffffffffffffffffffffffff16905081600360006101000a81548173ffffffffffffffffffffffffffffffffffffffff021916908373ffffffffffffffffffffffffffffffffffffffff1602179055508173ffffffffffffffffffffffffffffffffffffffff168173ffffffffffffffffffffffffffffffffffffffff167f8be0079c531659141344cd1fd0a4f28419497f9722a3daafe3b4186f6b6457e060405160405180910390a35050565b828054620001f59062000362565b90600052602060002090601f01602090048101928262000219576000855562000265565b82601f106200023457805160ff191683800117855562000265565b8280016001018555821562000265579182015b828111156200026457825182559160200191906001019062000247565b5b50905062000274919062000278565b5090565b5b808211156200029357600081600090555060010162000279565b5090565b600080fd5b600073ffffffffffffffffffffffffffffffffffffffff82169050919050565b6000620002c9826200029c565b9050919050565b620002db81620002bc565b8114620002e757600080fd5b50565b600081519050620002fb81620002d0565b92915050565b6000602082840312156200031a576200031962000297565b5b60006200032a84828501620002ea565b91505092915050565b7f4e487b7100000000000000000000000000000000000000000000000000000000600052602260045260246000fd5b600060028204905060018216806200037b57607f821691505b6020821081141562000392576200039162000333565b5b50919050565b61520880620003a86000396000f3fe608060405234801561001057600080fd5b50600436106101fa5760003560e01c8063596c12391161011a578063a855257e116100ad578063e30964e51161007c578063e30964e514610653578063e6e023f014610683578063e985e9c5146106b3578063f242432a146106e3578063f2fde38b146106ff576101fa565b8063a855257e146105bb578063bf40fac1146105d7578063c98c029a14610607578063cddb1c5d14610637576101fa565b806386579cba116100e957806386579cba146105215780638da5cb5b14610551578063988c76121461056f578063a22cb4651461059f576101fa565b8063596c1239146104875780636c06bf99146104b7578063715018a6146104e757806376852b12146104f1576101fa565b806327c3a225116101925780634816edf4116101615780634816edf4146103db5780634b4684ef1461040b5780634e1273f414610427578063576096b814610457576101fa565b806327c3a2251461032f5780632aa15ba01461035f5780632eb2c2d61461038f57806332bce83e146103ab576101fa565b80630e89341c116101ce5780630e89341c146102ab5780631b2ef1ca146102db57806324f98f6f146102f7578063268b15ed14610313576101fa565b8062fdd58e146101ff57806301ffc9a71461022f57806302d41e711461025f57806308d0fcdc1461027b575b600080fd5b61021960048036038101906102149190613053565b61071b565b60405161022691906130a2565b60405180910390f35b61024960048036038101906102449190613115565b6107e4565b604051610256919061315d565b60405180910390f35b610279600480360381019061027491906132be565b6108c6565b005b6102956004803603810190610290919061332d565b610d0a565b6040516102a29190613369565b60405180910390f35b6102c560048036038101906102c0919061332d565b610d47565b6040516102d2919061340c565b60405180910390f35b6102f560048036038101906102f0919061342e565b610ddb565b005b610311600480360381019061030c919061346e565b610f46565b005b61032d6004803603810190610328919061349b565b611006565b005b610349600480360381019061034491906134f7565b611452565b604051610356919061315d565b60405180910390f35b6103796004803603810190610374919061349b565b611510565b604051610386919061315d565b60405180910390f35b6103a960048036038101906103a491906136bc565b611555565b005b6103c560048036038101906103c0919061349b565b6115a0565b6040516103d2919061315d565b60405180910390f35b6103f560048036038101906103f0919061332d565b6115e7565b6040516104029190613369565b60405180910390f35b6104256004803603810190610420919061378b565b61161a565b005b610441600480360381019061043c91906138a1565b611739565b60405161044e91906139d7565b60405180910390f35b610471600480360381019061046c91906139f9565b611852565b60405161047e919061315d565b60405180910390f35b6104a1600480360381019061049c919061332d565b6118ba565b6040516104ae91906130a2565b60405180910390f35b6104d160048036038101906104cc91906139f9565b6118d2565b6040516104de919061315d565b60405180910390f35b6104ef611901565b005b61050b6004803603810190610506919061349b565b611989565b604051610518919061315d565b60405180910390f35b61053b6004803603810190610536919061349b565b6119d0565b604051610548919061315d565b60405180910390f35b610559611a15565b6040516105669190613369565b60405180910390f35b610589600480360381019061058491906139f9565b611a3f565b604051610596919061315d565b60405180910390f35b6105b960048036038101906105b49190613a65565b611aa7565b005b6105d560048036038101906105d09190613aa5565b611c28565b005b6105f160048036038101906105ec9190613b28565b611ecd565b6040516105fe9190613369565b60405180910390f35b610621600480360381019061061c91906134f7565b61210b565b60405161062e919061315d565b60405180910390f35b610651600480360381019061064c9190613c52565b612150565b005b61066d6004803603810190610668919061332d565b6123b3565b60405161067a91906130a2565b60405180910390f35b61069d600480360381019061069891906139f9565b6123cb565b6040516106aa919061315d565b60405180910390f35b6106cd60048036038101906106c89190613cd5565b6123fa565b6040516106da919061315d565b60405180910390f35b6106fd60048036038101906106f89190613d15565b61248e565b005b6107196004803603810190610714919061346e565b6124d9565b005b60008073ffffffffffffffffffffffffffffffffffffffff168373ffffffffffffffffffffffffffffffffffffffff16141561078c576040517f08c379a000000000000000000000000000000000000000000000000000000000815260040161078390613e1e565b60405180910390fd5b60008083815260200190815260200160002060008473ffffffffffffffffffffffffffffffffffffffff1673ffffffffffffffffffffffffffffffffffffffff16815260200190815260200160002054905092915050565b60007fd9b67a26000000000000000000000000000000000000000000000000000000007bffffffffffffffffffffffffffffffffffffffffffffffffffffffff1916827bffffffffffffffffffffffffffffffffffffffffffffffffffffffff191614806108af57507f0e89341c000000000000000000000000000000000000000000000000000000007bffffffffffffffffffffffffffffffffffffffffffffffffffffffff1916827bffffffffffffffffffffffffffffffffffffffffffffffffffffffff1916145b806108bf57506108be826125d1565b5b9050919050565b3373ffffffffffffffffffffffffffffffffffffffff166108e682610d0a565b73ffffffffffffffffffffffffffffffffffffffff161461093c576040517f08c379a000000000000000000000000000000000000000000000000000000000815260040161093390613eb0565b60405180910390fd5b600073ffffffffffffffffffffffffffffffffffffffff168373ffffffffffffffffffffffffffffffffffffffff16141580610979575060008251115b6109b8576040517f08c379a00000000000000000000000000000000000000000000000000000000081526004016109af90613f42565b60405180910390fd5b60006109c4338361071b565b11610a04576040517f08c379a00000000000000000000000000000000000000000000000000000000081526004016109fb90613fae565b60405180910390fd5b6008600082815260200190815260200160002054421015610a5a576040517f08c379a0000000000000000000000000000000000000000000000000000000008152600401610a5190614040565b60405180910390fd5b60076000828152602001908152602001600020544210610a93576000610a80338361071b565b9050610a8d33838361263b565b50610d05565b600082511115610bf757610aa682611ecd565b925060001515600983604051610abc919061409c565b9081526020016040518091039020600083815260200190815260200160002060009054906101000a900460ff16151514610b2b576040517f08c379a0000000000000000000000000000000000000000000000000000000008152600401610b22906140ff565b60405180910390fd5b60001515600d600083815260200190815260200160002083604051610b50919061409c565b908152602001604051809103902060009054906101000a900460ff16151514610bae576040517f08c379a0000000000000000000000000000000000000000000000000000000008152600401610ba59061416b565b60405180910390fd5b6001600983604051610bc0919061409c565b9081526020016040518091039020600083815260200190815260200160002060006101000a81548160ff0219169083151502179055505b6000610c03848361071b565b14610c43576040517f08c379a0000000000000000000000000000000000000000000000000000000008152600401610c3a906141fd565b60405180910390fd5b60001515600b600083815260200190815260200160002060008573ffffffffffffffffffffffffffffffffffffffff1673ffffffffffffffffffffffffffffffffffffffff16815260200190815260200160002060009054906101000a900460ff16151514610ce7576040517f08c379a0000000000000000000000000000000000000000000000000000000008152600401610cde90614269565b60405180910390fd5b610d04338483600160405180602001604052806000815250612858565b5b505050565b60006006600083815260200190815260200160002060009054906101000a900473ffffffffffffffffffffffffffffffffffffffff169050919050565b606060028054610d56906142b8565b80601f0160208091040260200160405190810160405280929190818152602001828054610d82906142b8565b8015610dcf5780601f10610da457610100808354040283529160200191610dcf565b820191906000526020600020905b815481529060010190602001808311610db257829003601f168201915b50505050509050919050565b6000600860008481526020019081526020016000205411610e31576040517f08c379a0000000000000000000000000000000000000000000000000000000008152600401610e289061435c565b60405180910390fd5b3373ffffffffffffffffffffffffffffffffffffffff166006600084815260200190815260200160002060009054906101000a900473ffffffffffffffffffffffffffffffffffffffff1673ffffffffffffffffffffffffffffffffffffffff1614610ed2576040517f08c379a0000000000000000000000000000000000000000000000000000000008152600401610ec9906143ee565b60405180910390fd5b60076000838152602001908152602001600020544210610f27576040517f08c379a0000000000000000000000000000000000000000000000000000000008152600401610f1e90614480565b60405180910390fd5b610f4233838360405180602001604052806000815250612ada565b5050565b610f4e612c70565b73ffffffffffffffffffffffffffffffffffffffff16610f6c611a15565b73ffffffffffffffffffffffffffffffffffffffff1614610fc2576040517f08c379a0000000000000000000000000000000000000000000000000000000008152600401610fb9906144ec565b60405180910390fd5b80600460006101000a81548173ffffffffffffffffffffffffffffffffffffffff021916908373ffffffffffffffffffffffffffffffffffffffff16021790555050565b600060086000848152602001908152602001600020541161105c576040517f08c379a00000000000000000000000000000000000000000000000000000000081526004016110539061435c565b60405180910390fd5b600760008381526020019081526020016000205442106110b1576040517f08c379a00000000000000000000000000000000000000000000000000000000081526004016110a89061457e565b60405180910390fd5b600033905060008251111561129d576110c982611ecd565b9050600015156009836040516110df919061409c565b9081526020016040518091039020600085815260200190815260200160002060009054906101000a900460ff1615151461114e576040517f08c379a0000000000000000000000000000000000000000000000000000000008152600401611145906140ff565b60405180910390fd5b60001515600d600085815260200190815260200160002083604051611173919061409c565b908152602001604051809103902060009054906101000a900460ff161515146111d1576040517f08c379a00000000000000000000000000000000000000000000000000000000081526004016111c89061416b565b60405180910390fd5b60011515600c6000858152602001908152602001600020836040516111f6919061409c565b908152602001604051809103902060009054906101000a900460ff16151514611254576040517f08c379a000000000000000000000000000000000000000000000000000000000815260040161124b9061416b565b60405180910390fd5b6001600983604051611266919061409c565b9081526020016040518091039020600085815260200190815260200160002060006101000a81548160ff0219169083151502179055505b60006112a9828561071b565b146112e9576040517f08c379a00000000000000000000000000000000000000000000000000000000081526004016112e0906141fd565b60405180910390fd5b60001515600b600085815260200190815260200160002060008373ffffffffffffffffffffffffffffffffffffffff1673ffffffffffffffffffffffffffffffffffffffff16815260200190815260200160002060009054906101000a900460ff1615151461138d576040517f08c379a000000000000000000000000000000000000000000000000000000000815260040161138490614269565b60405180910390fd5b60011515600a600085815260200190815260200160002060008373ffffffffffffffffffffffffffffffffffffffff1673ffffffffffffffffffffffffffffffffffffffff16815260200190815260200160002060009054906101000a900460ff16151514611431576040517f08c379a000000000000000000000000000000000000000000000000000000000815260040161142890614269565b60405180910390fd5b61144d8184600160405180602001604052806000815250612ada565b505050565b60008073ffffffffffffffffffffffffffffffffffffffff1661147484611ecd565b73ffffffffffffffffffffffffffffffffffffffff1614156114cb576040517f08c379a00000000000000000000000000000000000000000000000000000000081526004016114c2906145ea565b60405180910390fd5b6009836040516114db919061409c565b9081526020016040518091039020600083815260200190815260200160002060009054906101000a900460ff16905092915050565b600d602052816000526040600020818051602081018201805184825260208301602085012081835280955050505050506000915091509054906101000a900460ff1681565b6000600110611599576040517f08c379a00000000000000000000000000000000000000000000000000000000081526004016115909061467c565b60405180910390fd5b5050505050565b6000600c6000848152602001908152602001600020826040516115c3919061409c565b908152602001604051809103902060009054906101000a900460ff16905092915050565b60066020528060005260406000206000915054906101000a900473ffffffffffffffffffffffffffffffffffffffff1681565b81421061165c576040517f08c379a00000000000000000000000000000000000000000000000000000000081526004016116539061470e565b60405180910390fd5b60006008600085815260200190815260200160002054146116b2576040517f08c379a00000000000000000000000000000000000000000000000000000000081526004016116a99061477a565b60405180910390fd5b816008600085815260200190815260200160002081905550806007600085815260200190815260200160002081905550336006600085815260200190815260200160002060006101000a81548173ffffffffffffffffffffffffffffffffffffffff021916908373ffffffffffffffffffffffffffffffffffffffff160217905550505050565b6060815183511461177f576040517f08c379a00000000000000000000000000000000000000000000000000000000081526004016117769061480c565b60405180910390fd5b6000835167ffffffffffffffff81111561179c5761179b613193565b5b6040519080825280602002602001820160405280156117ca5781602001602082028036833780820191505090505b50905060005b8451811015611847576118178582815181106117ef576117ee61482c565b5b602002602001015185838151811061180a5761180961482c565b5b602002602001015161071b565b82828151811061182a5761182961482c565b5b602002602001018181525050806118409061488a565b90506117d0565b508091505092915050565b6000600a600084815260200190815260200160002060008373ffffffffffffffffffffffffffffffffffffffff1673ffffffffffffffffffffffffffffffffffffffff16815260200190815260200160002060009054906101000a900460ff16905092915050565b60086020528060005260406000206000915090505481565b600a6020528160005260406000206020528060005260406000206000915091509054906101000a900460ff1681565b611909612c70565b73ffffffffffffffffffffffffffffffffffffffff16611927611a15565b73ffffffffffffffffffffffffffffffffffffffff161461197d576040517f08c379a0000000000000000000000000000000000000000000000000000000008152600401611974906144ec565b60405180910390fd5b6119876000612c78565b565b6000600d6000848152602001908152602001600020826040516119ac919061409c565b908152602001604051809103902060009054906101000a900460ff16905092915050565b600c602052816000526040600020818051602081018201805184825260208301602085012081835280955050505050506000915091509054906101000a900460ff1681565b6000600360009054906101000a900473ffffffffffffffffffffffffffffffffffffffff16905090565b6000600b600084815260200190815260200160002060008373ffffffffffffffffffffffffffffffffffffffff1673ffffffffffffffffffffffffffffffffffffffff16815260200190815260200160002060009054906101000a900460ff16905092915050565b8173ffffffffffffffffffffffffffffffffffffffff16611ac6612c70565b73ffffffffffffffffffffffffffffffffffffffff161415611b1d576040517f08c379a0000000000000000000000000000000000000000000000000000000008152600401611b1490614945565b60405180910390fd5b8060016000611b2a612c70565b73ffffffffffffffffffffffffffffffffffffffff1673ffffffffffffffffffffffffffffffffffffffff16815260200190815260200160002060008473ffffffffffffffffffffffffffffffffffffffff1673ffffffffffffffffffffffffffffffffffffffff16815260200190815260200160002060006101000a81548160ff0219169083151502179055508173ffffffffffffffffffffffffffffffffffffffff16611bd7612c70565b73ffffffffffffffffffffffffffffffffffffffff167f17307eab39ab6107e8899845ad3d59bd9653f200f220920489ca2b5937696c3183604051611c1c919061315d565b60405180910390a35050565b3373ffffffffffffffffffffffffffffffffffffffff166006600086815260200190815260200160002060009054906101000a900473ffffffffffffffffffffffffffffffffffffffff1673ffffffffffffffffffffffffffffffffffffffff1614611cc9576040517f08c379a0000000000000000000000000000000000000000000000000000000008152600401611cc0906149d7565b60405180910390fd5b6000600860008681526020019081526020016000205411611d1f576040517f08c379a0000000000000000000000000000000000000000000000000000000008152600401611d169061435c565b60405180910390fd5b60076000858152602001908152602001600020544210611d74576040517f08c379a0000000000000000000000000000000000000000000000000000000008152600401611d6b90614a69565b60405180910390fd5b6000811415611e245760005b8351811015611e1e5782600a60008781526020019081526020016000206000868481518110611db257611db161482c565b5b602002602001015173ffffffffffffffffffffffffffffffffffffffff1673ffffffffffffffffffffffffffffffffffffffff16815260200190815260200160002060006101000a81548160ff0219169083151502179055508080611e169061488a565b915050611d80565b50611ec7565b60005b8351811015611ec55782600b60008781526020019081526020016000206000868481518110611e5957611e5861482c565b5b602002602001015173ffffffffffffffffffffffffffffffffffffffff1673ffffffffffffffffffffffffffffffffffffffff16815260200190815260200160002060006101000a81548160ff0219169083151502179055508080611ebd9061488a565b915050611e27565b505b50505050565b600080600460009054906101000a900473ffffffffffffffffffffffffffffffffffffffff1673ffffffffffffffffffffffffffffffffffffffff1663a47cf974846040518263ffffffff1660e01b8152600401611f2b919061340c565b602060405180830381865afa158015611f48573d6000803e3d6000fd5b505050506040513d601f19601f82011682018060405250810190611f6c9190614a9e565b90506000811115612100576000600460009054906101000a900473ffffffffffffffffffffffffffffffffffffffff1673ffffffffffffffffffffffffffffffffffffffff16639a65ddec856040518263ffffffff1660e01b8152600401611fd4919061340c565b602060405180830381865afa158015611ff1573d6000803e3d6000fd5b505050506040513d601f19601f820116820180604052508101906120159190614ae0565b9050600073ffffffffffffffffffffffffffffffffffffffff168173ffffffffffffffffffffffffffffffffffffffff1614612055578092505050612106565b6000600460009054906101000a900473ffffffffffffffffffffffffffffffffffffffff1673ffffffffffffffffffffffffffffffffffffffff16636352211e846040518263ffffffff1660e01b81526004016120b291906130a2565b602060405180830381865afa1580156120cf573d6000803e3d6000fd5b505050506040513d601f19601f820116820180604052508101906120f39190614ae0565b9050809350505050612106565b60009150505b919050565b6009828051602081018201805184825260208301602085012081835280955050505050506020528060005260406000206000915091509054906101000a900460ff1681565b3373ffffffffffffffffffffffffffffffffffffffff166006600086815260200190815260200160002060009054906101000a900473ffffffffffffffffffffffffffffffffffffffff1673ffffffffffffffffffffffffffffffffffffffff16146121f1576040517f08c379a00000000000000000000000000000000000000000000000000000000081526004016121e8906149d7565b60405180910390fd5b6000600860008681526020019081526020016000205411612247576040517f08c379a000000000000000000000000000000000000000000000000000000000815260040161223e9061435c565b60405180910390fd5b6007600085815260200190815260200160002054421061229c576040517f08c379a000000000000000000000000000000000000000000000000000000000815260040161229390614a69565b60405180910390fd5b600081141561232b5760005b83518110156123255782600c60008781526020019081526020016000208583815181106122d8576122d761482c565b5b60200260200101516040516122ed919061409c565b908152602001604051809103902060006101000a81548160ff021916908315150217905550808061231d9061488a565b9150506122a8565b506123ad565b60005b83518110156123ab5782600d600087815260200190815260200160002085838151811061235e5761235d61482c565b5b6020026020010151604051612373919061409c565b908152602001604051809103902060006101000a81548160ff02191690831515021790555080806123a39061488a565b91505061232e565b505b50505050565b60076020528060005260406000206000915090505481565b600b6020528160005260406000206020528060005260406000206000915091509054906101000a900460ff1681565b6000600160008473ffffffffffffffffffffffffffffffffffffffff1673ffffffffffffffffffffffffffffffffffffffff16815260200190815260200160002060008373ffffffffffffffffffffffffffffffffffffffff1673ffffffffffffffffffffffffffffffffffffffff16815260200190815260200160002060009054906101000a900460ff16905092915050565b60006001106124d2576040517f08c379a00000000000000000000000000000000000000000000000000000000081526004016124c99061467c565b60405180910390fd5b5050505050565b6124e1612c70565b73ffffffffffffffffffffffffffffffffffffffff166124ff611a15565b73ffffffffffffffffffffffffffffffffffffffff1614612555576040517f08c379a000000000000000000000000000000000000000000000000000000000815260040161254c906144ec565b60405180910390fd5b600073ffffffffffffffffffffffffffffffffffffffff168173ffffffffffffffffffffffffffffffffffffffff1614156125c5576040517f08c379a00000000000000000000000000000000000000000000000000000000081526004016125bc90614b7f565b60405180910390fd5b6125ce81612c78565b50565b60007f01ffc9a7000000000000000000000000000000000000000000000000000000007bffffffffffffffffffffffffffffffffffffffffffffffffffffffff1916827bffffffffffffffffffffffffffffffffffffffffffffffffffffffff1916149050919050565b600073ffffffffffffffffffffffffffffffffffffffff168373ffffffffffffffffffffffffffffffffffffffff1614156126ab576040517f08c379a00000000000000000000000000000000000000000000000000000000081526004016126a290614c11565b60405180910390fd5b60006126b5612c70565b90506126e5818560006126c787612d3e565b6126d087612d3e565b60405180602001604052806000815250612db8565b600080600085815260200190815260200160002060008673ffffffffffffffffffffffffffffffffffffffff1673ffffffffffffffffffffffffffffffffffffffff1681526020019081526020016000205490508281101561277c576040517f08c379a000000000000000000000000000000000000000000000000000000000815260040161277390614ca3565b60405180910390fd5b82810360008086815260200190815260200160002060008773ffffffffffffffffffffffffffffffffffffffff1673ffffffffffffffffffffffffffffffffffffffff16815260200190815260200160002081905550600073ffffffffffffffffffffffffffffffffffffffff168573ffffffffffffffffffffffffffffffffffffffff168373ffffffffffffffffffffffffffffffffffffffff167fc3d58168c5ae7397731d063d5bbf3d657854427343f4c083240f7aacaa2d0f628787604051612849929190614cc3565b60405180910390a45050505050565b600073ffffffffffffffffffffffffffffffffffffffff168473ffffffffffffffffffffffffffffffffffffffff1614156128c8576040517f08c379a00000000000000000000000000000000000000000000000000000000081526004016128bf90614d5e565b60405180910390fd5b60006128d2612c70565b90506128f28187876128e388612d3e565b6128ec88612d3e565b87612db8565b600080600086815260200190815260200160002060008873ffffffffffffffffffffffffffffffffffffffff1673ffffffffffffffffffffffffffffffffffffffff16815260200190815260200160002054905083811015612989576040517f08c379a000000000000000000000000000000000000000000000000000000000815260040161298090614df0565b60405180910390fd5b83810360008087815260200190815260200160002060008973ffffffffffffffffffffffffffffffffffffffff1673ffffffffffffffffffffffffffffffffffffffff168152602001908152602001600020819055508360008087815260200190815260200160002060008873ffffffffffffffffffffffffffffffffffffffff1673ffffffffffffffffffffffffffffffffffffffff1681526020019081526020016000206000828254612a3e9190614e10565b925050819055508573ffffffffffffffffffffffffffffffffffffffff168773ffffffffffffffffffffffffffffffffffffffff168373ffffffffffffffffffffffffffffffffffffffff167fc3d58168c5ae7397731d063d5bbf3d657854427343f4c083240f7aacaa2d0f628888604051612abb929190614cc3565b60405180910390a4612ad1828888888888612dc0565b50505050505050565b600073ffffffffffffffffffffffffffffffffffffffff168473ffffffffffffffffffffffffffffffffffffffff161415612b4a576040517f08c379a0000000000000000000000000000000000000000000000000000000008152600401612b4190614ed8565b60405180910390fd5b6000612b54612c70565b9050612b7581600087612b6688612d3e565b612b6f88612d3e565b87612db8565b8260008086815260200190815260200160002060008773ffffffffffffffffffffffffffffffffffffffff1673ffffffffffffffffffffffffffffffffffffffff1681526020019081526020016000206000828254612bd49190614e10565b925050819055508473ffffffffffffffffffffffffffffffffffffffff16600073ffffffffffffffffffffffffffffffffffffffff168273ffffffffffffffffffffffffffffffffffffffff167fc3d58168c5ae7397731d063d5bbf3d657854427343f4c083240f7aacaa2d0f628787604051612c52929190614cc3565b60405180910390a4612c6981600087878787612dc0565b5050505050565b600033905090565b6000600360009054906101000a900473ffffffffffffffffffffffffffffffffffffffff16905081600360006101000a81548173ffffffffffffffffffffffffffffffffffffffff021916908373ffffffffffffffffffffffffffffffffffffffff1602179055508173ffffffffffffffffffffffffffffffffffffffff168173ffffffffffffffffffffffffffffffffffffffff167f8be0079c531659141344cd1fd0a4f28419497f9722a3daafe3b4186f6b6457e060405160405180910390a35050565b60606000600167ffffffffffffffff811115612d5d57612d5c613193565b5b604051908082528060200260200182016040528015612d8b5781602001602082028036833780820191505090505b5090508281600081518110612da357612da261482c565b5b60200260200101818152505080915050919050565b505050505050565b612ddf8473ffffffffffffffffffffffffffffffffffffffff16612f98565b15612f90578373ffffffffffffffffffffffffffffffffffffffff1663f23a6e6187878686866040518663ffffffff1660e01b8152600401612e25959493929190614f4d565b6020604051808303816000875af1925050508015612e6157506040513d601f19601f82011682018060405250810190612e5e9190614fbc565b60015b612f0757612e6d614ff6565b806308c379a01415612eca5750612e82615018565b80612e8d5750612ecc565b806040517f08c379a0000000000000000000000000000000000000000000000000000000008152600401612ec1919061340c565b60405180910390fd5b505b6040517f08c379a0000000000000000000000000000000000000000000000000000000008152600401612efe90615120565b60405180910390fd5b63f23a6e6160e01b7bffffffffffffffffffffffffffffffffffffffffffffffffffffffff1916817bffffffffffffffffffffffffffffffffffffffffffffffffffffffff191614612f8e576040517f08c379a0000000000000000000000000000000000000000000000000000000008152600401612f85906151b2565b60405180910390fd5b505b505050505050565b600080823b905060008111915050919050565b6000604051905090565b600080fd5b600080fd5b600073ffffffffffffffffffffffffffffffffffffffff82169050919050565b6000612fea82612fbf565b9050919050565b612ffa81612fdf565b811461300557600080fd5b50565b60008135905061301781612ff1565b92915050565b6000819050919050565b6130308161301d565b811461303b57600080fd5b50565b60008135905061304d81613027565b92915050565b6000806040838503121561306a57613069612fb5565b5b600061307885828601613008565b92505060206130898582860161303e565b9150509250929050565b61309c8161301d565b82525050565b60006020820190506130b76000830184613093565b92915050565b60007fffffffff0000000000000000000000000000000000000000000000000000000082169050919050565b6130f2816130bd565b81146130fd57600080fd5b50565b60008135905061310f816130e9565b92915050565b60006020828403121561312b5761312a612fb5565b5b600061313984828501613100565b91505092915050565b60008115159050919050565b61315781613142565b82525050565b6000602082019050613172600083018461314e565b92915050565b600080fd5b600080fd5b6000601f19601f8301169050919050565b7f4e487b7100000000000000000000000000000000000000000000000000000000600052604160045260246000fd5b6131cb82613182565b810181811067ffffffffffffffff821117156131ea576131e9613193565b5b80604052505050565b60006131fd612fab565b905061320982826131c2565b919050565b600067ffffffffffffffff82111561322957613228613193565b5b61323282613182565b9050602081019050919050565b82818337600083830152505050565b600061326161325c8461320e565b6131f3565b90508281526020810184848401111561327d5761327c61317d565b5b61328884828561323f565b509392505050565b600082601f8301126132a5576132a4613178565b5b81356132b584826020860161324e565b91505092915050565b6000806000606084860312156132d7576132d6612fb5565b5b60006132e586828701613008565b935050602084013567ffffffffffffffff81111561330657613305612fba565b5b61331286828701613290565b92505060406133238682870161303e565b9150509250925092565b60006020828403121561334357613342612fb5565b5b60006133518482850161303e565b91505092915050565b61336381612fdf565b82525050565b600060208201905061337e600083018461335a565b92915050565b600081519050919050565b600082825260208201905092915050565b60005b838110156133be5780820151818401526020810190506133a3565b838111156133cd576000848401525b50505050565b60006133de82613384565b6133e8818561338f565b93506133f88185602086016133a0565b61340181613182565b840191505092915050565b6000602082019050818103600083015261342681846133d3565b905092915050565b6000806040838503121561344557613444612fb5565b5b60006134538582860161303e565b92505060206134648582860161303e565b9150509250929050565b60006020828403121561348457613483612fb5565b5b600061349284828501613008565b91505092915050565b600080604083850312156134b2576134b1612fb5565b5b60006134c08582860161303e565b925050602083013567ffffffffffffffff8111156134e1576134e0612fba565b5b6134ed85828601613290565b9150509250929050565b6000806040838503121561350e5761350d612fb5565b5b600083013567ffffffffffffffff81111561352c5761352b612fba565b5b61353885828601613290565b92505060206135498582860161303e565b9150509250929050565b600067ffffffffffffffff82111561356e5761356d613193565b5b602082029050602081019050919050565b600080fd5b600061359761359284613553565b6131f3565b905080838252602082019050602084028301858111156135ba576135b961357f565b5b835b818110156135e357806135cf888261303e565b8452602084019350506020810190506135bc565b5050509392505050565b600082601f83011261360257613601613178565b5b8135613612848260208601613584565b91505092915050565b600067ffffffffffffffff82111561363657613635613193565b5b61363f82613182565b9050602081019050919050565b600061365f61365a8461361b565b6131f3565b90508281526020810184848401111561367b5761367a61317d565b5b61368684828561323f565b509392505050565b600082601f8301126136a3576136a2613178565b5b81356136b384826020860161364c565b91505092915050565b600080600080600060a086880312156136d8576136d7612fb5565b5b60006136e688828901613008565b95505060206136f788828901613008565b945050604086013567ffffffffffffffff81111561371857613717612fba565b5b613724888289016135ed565b935050606086013567ffffffffffffffff81111561374557613744612fba565b5b613751888289016135ed565b925050608086013567ffffffffffffffff81111561377257613771612fba565b5b61377e8882890161368e565b9150509295509295909350565b6000806000606084860312156137a4576137a3612fb5565b5b60006137b28682870161303e565b93505060206137c38682870161303e565b92505060406137d48682870161303e565b9150509250925092565b600067ffffffffffffffff8211156137f9576137f8613193565b5b602082029050602081019050919050565b600061381d613818846137de565b6131f3565b905080838252602082019050602084028301858111156138405761383f61357f565b5b835b8181101561386957806138558882613008565b845260208401935050602081019050613842565b5050509392505050565b600082601f83011261388857613887613178565b5b813561389884826020860161380a565b91505092915050565b600080604083850312156138b8576138b7612fb5565b5b600083013567ffffffffffffffff8111156138d6576138d5612fba565b5b6138e285828601613873565b925050602083013567ffffffffffffffff81111561390357613902612fba565b5b61390f858286016135ed565b9150509250929050565b600081519050919050565b600082825260208201905092915050565b6000819050602082019050919050565b61394e8161301d565b82525050565b60006139608383613945565b60208301905092915050565b6000602082019050919050565b600061398482613919565b61398e8185613924565b935061399983613935565b8060005b838110156139ca5781516139b18882613954565b97506139bc8361396c565b92505060018101905061399d565b5085935050505092915050565b600060208201905081810360008301526139f18184613979565b905092915050565b60008060408385031215613a1057613a0f612fb5565b5b6000613a1e8582860161303e565b9250506020613a2f85828601613008565b9150509250929050565b613a4281613142565b8114613a4d57600080fd5b50565b600081359050613a5f81613a39565b92915050565b60008060408385031215613a7c57613a7b612fb5565b5b6000613a8a85828601613008565b9250506020613a9b85828601613a50565b9150509250929050565b60008060008060808587031215613abf57613abe612fb5565b5b6000613acd8782880161303e565b945050602085013567ffffffffffffffff811115613aee57613aed612fba565b5b613afa87828801613873565b9350506040613b0b87828801613a50565b9250506060613b1c8782880161303e565b91505092959194509250565b600060208284031215613b3e57613b3d612fb5565b5b600082013567ffffffffffffffff811115613b5c57613b5b612fba565b5b613b6884828501613290565b91505092915050565b600067ffffffffffffffff821115613b8c57613b8b613193565b5b602082029050602081019050919050565b6000613bb0613bab84613b71565b6131f3565b90508083825260208201905060208402830185811115613bd357613bd261357f565b5b835b81811015613c1a57803567ffffffffffffffff811115613bf857613bf7613178565b5b808601613c058982613290565b85526020850194505050602081019050613bd5565b5050509392505050565b600082601f830112613c3957613c38613178565b5b8135613c49848260208601613b9d565b91505092915050565b60008060008060808587031215613c6c57613c6b612fb5565b5b6000613c7a8782880161303e565b945050602085013567ffffffffffffffff811115613c9b57613c9a612fba565b5b613ca787828801613c24565b9350506040613cb887828801613a50565b9250506060613cc98782880161303e565b91505092959194509250565b60008060408385031215613cec57613ceb612fb5565b5b6000613cfa85828601613008565b9250506020613d0b85828601613008565b9150509250929050565b600080600080600060a08688031215613d3157613d30612fb5565b5b6000613d3f88828901613008565b9550506020613d5088828901613008565b9450506040613d618882890161303e565b9350506060613d728882890161303e565b925050608086013567ffffffffffffffff811115613d9357613d92612fba565b5b613d9f8882890161368e565b9150509295509295909350565b7f455243313135353a2062616c616e636520717565727920666f7220746865207a60008201527f65726f2061646472657373000000000000000000000000000000000000000000602082015250565b6000613e08602b8361338f565b9150613e1382613dac565b604082019050919050565b60006020820190508181036000830152613e3781613dfb565b9050919050565b7f42616467654d453a204f6e6c792063726561746f722063616e207472616e736660008201527f657220746f6b656e730000000000000000000000000000000000000000000000602082015250565b6000613e9a60298361338f565b9150613ea582613e3e565b604082019050919050565b60006020820190508181036000830152613ec981613e8d565b9050919050565b7f42616467654d453a204d75737420737065636966792061646472657373206f7260008201527f206e616d65000000000000000000000000000000000000000000000000000000602082015250565b6000613f2c60258361338f565b9150613f3782613ed0565b604082019050919050565b60006020820190508181036000830152613f5b81613f1f565b9050919050565b7f42616467654d453a204d757374206f776e207468617420746f6b656e00000000600082015250565b6000613f98601c8361338f565b9150613fa382613f62565b602082019050919050565b60006020820190508181036000830152613fc781613f8b565b9050919050565b7f42616467654d453a2043616e2774206d6f7665206265666f726520626567696e60008201527f6e696e6700000000000000000000000000000000000000000000000000000000602082015250565b600061402a60248361338f565b915061403582613fce565b604082019050919050565b600060208201905081810360008301526140598161401d565b9050919050565b600081905092915050565b600061407682613384565b6140808185614060565b93506140908185602086016133a0565b80840191505092915050565b60006140a8828461406b565b915081905092915050565b7f42616467654d453a204e616d6520726563656976656420626164676520796574600082015250565b60006140e960208361338f565b91506140f4826140b3565b602082019050919050565b60006020820190508181036000830152614118816140dc565b9050919050565b7f4e616d6520697320696e20626c61636b6c697374000000000000000000000000600082015250565b600061415560148361338f565b91506141608261411f565b602082019050919050565b6000602082019050818103600083015261418481614148565b9050919050565b7f42616467654d453a2043616e27742073656e64206d6f7265207468616e206f6e60008201527f65204e465420746f2073616d65206163636f756e740000000000000000000000602082015250565b60006141e760358361338f565b91506141f28261418b565b604082019050919050565b60006020820190508181036000830152614216816141da565b9050919050565b7f4164647265737320697320696e20626c61636b6c697374000000000000000000600082015250565b600061425360178361338f565b915061425e8261421d565b602082019050919050565b6000602082019050818103600083015261428281614246565b9050919050565b7f4e487b7100000000000000000000000000000000000000000000000000000000600052602260045260246000fd5b600060028204905060018216806142d057607f821691505b602082108114156142e4576142e3614289565b5b50919050565b7f42616467654d453a2054686973206576656e7420646f65736e2774206578697360008201527f7473000000000000000000000000000000000000000000000000000000000000602082015250565b600061434660228361338f565b9150614351826142ea565b604082019050919050565b6000602082019050818103600083015261437581614339565b9050919050565b7f42616467654d453a2043616e2774206d696e7420746f6b656e7320796f75206860008201527f6176656e27742063726561746564000000000000000000000000000000000000602082015250565b60006143d8602e8361338f565b91506143e38261437c565b604082019050919050565b60006020820190508181036000830152614407816143cb565b9050919050565b7f42616467654d453a2043616e2774206d696e742061667465722074686520656e60008201527f64206f6620746865206576656e74000000000000000000000000000000000000602082015250565b600061446a602e8361338f565b91506144758261440e565b604082019050919050565b600060208201905081810360008301526144998161445d565b9050919050565b7f4f776e61626c653a2063616c6c6572206973206e6f7420746865206f776e6572600082015250565b60006144d660208361338f565b91506144e1826144a0565b602082019050919050565b60006020820190508181036000830152614505816144c9565b9050919050565b7f42616467654d453a2043616e277420636c61696d20616674657220746865206560008201527f6e64206f6620746865206576656e740000000000000000000000000000000000602082015250565b6000614568602f8361338f565b91506145738261450c565b604082019050919050565b600060208201905081810360008301526145978161455b565b9050919050565b7f42616467654d453a204e616d6520646f65736e27742065786973747300000000600082015250565b60006145d4601c8361338f565b91506145df8261459e565b602082019050919050565b60006020820190508181036000830152614603816145c7565b9050919050565b7f42616467654d453a204e6174697665207472616e73666572732061726520646960008201527f7361626c65640000000000000000000000000000000000000000000000000000602082015250565b600061466660268361338f565b91506146718261460a565b604082019050919050565b6000602082019050818103600083015261469581614659565b9050919050565b7f426164674d453a2053746172742074696d65206d75737420626520696e20746860008201527f6520667574757265000000000000000000000000000000000000000000000000602082015250565b60006146f860288361338f565b91506147038261469c565b604082019050919050565b60006020820190508181036000830152614727816146eb565b9050919050565b7f42616467654d453a2054686973206576656e7420657869737473207965740000600082015250565b6000614764601e8361338f565b915061476f8261472e565b602082019050919050565b6000602082019050818103600083015261479381614757565b9050919050565b7f455243313135353a206163636f756e747320616e6420696473206c656e67746860008201527f206d69736d617463680000000000000000000000000000000000000000000000602082015250565b60006147f660298361338f565b91506148018261479a565b604082019050919050565b60006020820190508181036000830152614825816147e9565b9050919050565b7f4e487b7100000000000000000000000000000000000000000000000000000000600052603260045260246000fd5b7f4e487b7100000000000000000000000000000000000000000000000000000000600052601160045260246000fd5b60006148958261301d565b91507fffffffffffffffffffffffffffffffffffffffffffffffffffffffffffffffff8214156148c8576148c761485b565b5b600182019050919050565b7f455243313135353a2073657474696e6720617070726f76616c2073746174757360008201527f20666f722073656c660000000000000000000000000000000000000000000000602082015250565b600061492f60298361338f565b915061493a826148d3565b604082019050919050565b6000602082019050818103600083015261495e81614922565b9050919050565b7f42616467654d453a2043616e2774206d616e6167652077686974656c6973742c60008201527f206e6f7420746865206f776e6572000000000000000000000000000000000000602082015250565b60006149c1602e8361338f565b91506149cc82614965565b604082019050919050565b600060208201905081810360008301526149f0816149b4565b9050919050565b7f42616467654d453a2043616e2774206d616e616765206166746572207468652060008201527f656e64206f6620746865206576656e7400000000000000000000000000000000602082015250565b6000614a5360308361338f565b9150614a5e826149f7565b604082019050919050565b60006020820190508181036000830152614a8281614a46565b9050919050565b600081519050614a9881613027565b92915050565b600060208284031215614ab457614ab3612fb5565b5b6000614ac284828501614a89565b91505092915050565b600081519050614ada81612ff1565b92915050565b600060208284031215614af657614af5612fb5565b5b6000614b0484828501614acb565b91505092915050565b7f4f776e61626c653a206e6577206f776e657220697320746865207a65726f206160008201527f6464726573730000000000000000000000000000000000000000000000000000602082015250565b6000614b6960268361338f565b9150614b7482614b0d565b604082019050919050565b60006020820190508181036000830152614b9881614b5c565b9050919050565b7f455243313135353a206275726e2066726f6d20746865207a65726f206164647260008201527f6573730000000000000000000000000000000000000000000000000000000000602082015250565b6000614bfb60238361338f565b9150614c0682614b9f565b604082019050919050565b60006020820190508181036000830152614c2a81614bee565b9050919050565b7f455243313135353a206275726e20616d6f756e7420657863656564732062616c60008201527f616e636500000000000000000000000000000000000000000000000000000000602082015250565b6000614c8d60248361338f565b9150614c9882614c31565b604082019050919050565b60006020820190508181036000830152614cbc81614c80565b9050919050565b6000604082019050614cd86000830185613093565b614ce56020830184613093565b9392505050565b7f455243313135353a207472616e7366657220746f20746865207a65726f20616460008201527f6472657373000000000000000000000000000000000000000000000000000000602082015250565b6000614d4860258361338f565b9150614d5382614cec565b604082019050919050565b60006020820190508181036000830152614d7781614d3b565b9050919050565b7f455243313135353a20696e73756666696369656e742062616c616e636520666f60008201527f72207472616e7366657200000000000000000000000000000000000000000000602082015250565b6000614dda602a8361338f565b9150614de582614d7e565b604082019050919050565b60006020820190508181036000830152614e0981614dcd565b9050919050565b6000614e1b8261301d565b9150614e268361301d565b9250827fffffffffffffffffffffffffffffffffffffffffffffffffffffffffffffffff03821115614e5b57614e5a61485b565b5b828201905092915050565b7f455243313135353a206d696e7420746f20746865207a65726f2061646472657360008201527f7300000000000000000000000000000000000000000000000000000000000000602082015250565b6000614ec260218361338f565b9150614ecd82614e66565b604082019050919050565b60006020820190508181036000830152614ef181614eb5565b9050919050565b600081519050919050565b600082825260208201905092915050565b6000614f1f82614ef8565b614f298185614f03565b9350614f398185602086016133a0565b614f4281613182565b840191505092915050565b600060a082019050614f62600083018861335a565b614f6f602083018761335a565b614f7c6040830186613093565b614f896060830185613093565b8181036080830152614f9b8184614f14565b90509695505050505050565b600081519050614fb6816130e9565b92915050565b600060208284031215614fd257614fd1612fb5565b5b6000614fe084828501614fa7565b91505092915050565b60008160e01c9050919050565b600060033d11156150155760046000803e615012600051614fe9565b90505b90565b600060443d1015615028576150ab565b615030612fab565b60043d036004823e80513d602482011167ffffffffffffffff821117156150585750506150ab565b808201805167ffffffffffffffff81111561507657505050506150ab565b80602083010160043d0385018111156150935750505050506150ab565b6150a2826020018501866131c2565b82955050505050505b90565b7f455243313135353a207472616e7366657220746f206e6f6e204552433131353560008201527f526563656976657220696d706c656d656e746572000000000000000000000000602082015250565b600061510a60348361338f565b9150615115826150ae565b604082019050919050565b60006020820190508181036000830152615139816150fd565b9050919050565b7f455243313135353a204552433131353552656365697665722072656a6563746560008201527f6420746f6b656e73000000000000000000000000000000000000000000000000602082015250565b600061519c60288361338f565b91506151a782615140565b604082019050919050565b600060208201905081810360008301526151cb8161518f565b905091905056fea264697066735822122000908c2dbfabecb3d45b2a0c25ed0b4bcee07067d7b34b05a7fc2a3ce632fec664736f6c634300080b003368747470733a2f2f6261646765732e706f6c79676f6e6d652e78797a2f7b69647d2e6a736f6e",
  "immutableReferences": {},
  "source": "// SPDX-License-Identifier: MIT\npragma solidity ^0.8.6;\n\nimport \"@openzeppelin/contracts/token/ERC1155/ERC1155.sol\";\nimport \"@openzeppelin/contracts/access/Ownable.sol\";\nimport \"../interfaces/IME.sol\";\n\n/**\n * @title BadgeME\n * BadgeME - Extending PolygonME with Badges\n */\ncontract BadgeME is ERC1155, Ownable {\n    IME private _me;\n    string metadata_uri;\n    mapping(uint256 => address) public _creators;\n    mapping(uint256 => uint256) public _endTimestamp;\n    mapping(uint256 => uint256) public _startTimestamp;\n    mapping(string => mapping(uint256 => bool)) public _nameBalances;\n    mapping(uint256 => mapping(address => bool)) public _addressWhitelist;\n    mapping(uint256 => mapping(address => bool)) public _addressBlacklist;\n    mapping(uint256 => mapping(string => bool)) public _nameWhitelist;\n    mapping(uint256 => mapping(string => bool)) public _nameBlacklist;\n\n    constructor(address PolygonME)\n        ERC1155(\"https://badges.polygonme.xyz/{id}.json\")\n    {\n        _me = IME(PolygonME);\n        metadata_uri = \"https://badges.polygonme.xyz/{id}.json\";\n    }\n\n    /**\n     * Admin functions to fix base address if needed\n     */\n    function fixME(address PolygonME) public onlyOwner {\n        _me = IME(PolygonME);\n    }\n\n    /**\n     * Internal function to return the tokenId for a specific name\n     */\n    function returnNameId(string memory _name, string memory _gate)\n        internal\n        view\n        returns (uint256)\n    {\n        uint256 tknId = _me._nameToTokenId(\n            string(abi.encodePacked(_name, \".\", _gate))\n        );\n        require(tknId > 0, \"BadgeME: This name doesn't exists.\");\n        return tknId;\n    }\n\n    /**\n     * Internal function to return the tokenId for a specific name\n     */\n    function getAddress(string memory _name) public view returns (address) {\n        uint256 tknId = _me._nameToTokenId(_name);\n        if (tknId > 0) {\n            address settedAddress = _me.getAddressByName(_name);\n            if (settedAddress != address(0)) {\n                return settedAddress;\n            } else {\n                address owner = _me.ownerOf(tknId);\n                return owner;\n            }\n        } else {\n            return address(0);\n        }\n    }\n\n    function prepare(\n        uint256 id,\n        uint256 start_timestamp,\n        uint256 end_timestamp\n    ) public {\n        require(\n            block.timestamp < start_timestamp,\n            \"BadgME: Start time must be in the future\"\n        );\n        require(_startTimestamp[id] == 0, \"BadgeME: This event exists yet\");\n        _startTimestamp[id] = start_timestamp;\n        _endTimestamp[id] = end_timestamp;\n        _creators[id] = msg.sender;\n    }\n\n    function mint(\n        uint256 id,\n        uint256 amount\n    ) public {\n        require(_startTimestamp[id] > 0, \"BadgeME: This event doesn't exists\");\n        require(\n            _creators[id] == msg.sender,\n            \"BadgeME: Can't mint tokens you haven't created\"\n        );\n        require(\n            block.timestamp < _endTimestamp[id],\n            \"BadgeME: Can't mint after the end of the event\"\n        );\n        _mint(msg.sender, id, amount, bytes(\"\"));\n    }\n\n    function claim(uint256 id, string memory name) public {\n        require(_startTimestamp[id] > 0, \"BadgeME: This event doesn't exists\");\n        require(\n            block.timestamp < _endTimestamp[id],\n            \"BadgeME: Can't claim after the end of the event\"\n        );\n        address to = msg.sender;\n        if (bytes(name).length > 0) {\n            to = getAddress(name);\n            require(\n                _nameBalances[name][id] == false,\n                \"BadgeME: Name received badge yet\"\n            );\n            require(_nameBlacklist[id][name] == false, \"Name is in blacklist\");\n            require(_nameWhitelist[id][name] == true, \"Name is in blacklist\");\n            _nameBalances[name][id] = true;\n        }\n        require(\n            ERC1155.balanceOf(to, id) == 0,\n            \"BadgeME: Can't send more than one NFT to same account\"\n        );\n        require(_addressBlacklist[id][to] == false, \"Address is in blacklist\");\n        require(_addressWhitelist[id][to] == true, \"Address is in blacklist\");\n        _mint(to, id, 1, bytes(\"\"));\n    }\n\n    function manageAddressWhitelist(\n        uint256 id,\n        address[] memory addresses,\n        bool state,\n        uint256 list\n    ) public {\n        require(\n            _creators[id] == msg.sender,\n            \"BadgeME: Can't manage whitelist, not the owner\"\n        );\n        require(_startTimestamp[id] > 0, \"BadgeME: This event doesn't exists\");\n        require(\n            block.timestamp < _endTimestamp[id],\n            \"BadgeME: Can't manage after the end of the event\"\n        );\n        if (list == 0) {\n            for (uint256 i = 0; i < addresses.length; i++) {\n                _addressWhitelist[id][addresses[i]] = state;\n            }\n        } else {\n            for (uint256 i = 0; i < addresses.length; i++) {\n                _addressBlacklist[id][addresses[i]] = state;\n            }\n        }\n    }\n\n    function manageNameWhitelist(\n        uint256 id,\n        string[] memory names,\n        bool state,\n        uint256 list\n    ) public {\n        require(\n            _creators[id] == msg.sender,\n            \"BadgeME: Can't manage whitelist, not the owner\"\n        );\n        require(_startTimestamp[id] > 0, \"BadgeME: This event doesn't exists\");\n        require(\n            block.timestamp < _endTimestamp[id],\n            \"BadgeME: Can't manage after the end of the event\"\n        );\n        if (list == 0) {\n            for (uint256 i = 0; i < names.length; i++) {\n                _nameWhitelist[id][names[i]] = state;\n            }\n        } else {\n            for (uint256 i = 0; i < names.length; i++) {\n                _nameBlacklist[id][names[i]] = state;\n            }\n        }\n    }\n\n    /**\n     * Function to get the creator of a specific event\n     */\n    function creatorOfEvent(uint256 tknId) public view returns (address) {\n        return _creators[tknId];\n    }\n\n    /**\n     * Function to get the whitelist status\n     */\n    function isInAddressWhitelist(uint256 id, address who) public view returns (bool) {\n        return _addressWhitelist[id][who];\n    }\n\n    function isInNameWhitelist(uint256 name, string memory who) public view returns (bool) {\n        return _nameWhitelist[name][who];\n    }\n    \n    /**\n     * Function to get the blacklist status\n     */\n    function isInAddressBlacklist(uint256 id, address who) public view returns (bool) {\n        return _addressBlacklist[id][who];\n    }\n\n    function isInNameBlacklist(uint256 name, string memory who) public view returns (bool) {\n        return _nameBlacklist[name][who];\n    }\n\n    /**\n     * Function to get the balance of a specific event for required name\n     */\n    function hasBadge(string memory name, uint256 id)\n        public\n        view\n        returns (bool)\n    {\n        require(getAddress(name) != address(0), \"BadgeME: Name doesn't exists\");\n        return _nameBalances[name][id];\n    }\n\n    function transferBadge(\n        address to,\n        string memory name,\n        uint256 id\n    ) public {\n        require(\n            creatorOfEvent(id) == msg.sender,\n            \"BadgeME: Only creator can transfer tokens\"\n        );\n        require(\n            to != address(0) || bytes(name).length > 0,\n            \"BadgeME: Must specify address or name\"\n        );\n        require(\n            ERC1155.balanceOf(msg.sender, id) > 0,\n            \"BadgeME: Must own that token\"\n        );\n        // Require event started\n        require(\n            block.timestamp >= _startTimestamp[id],\n            \"BadgeME: Can't move before beginning\"\n        );\n        // Burn all tokens if try to transfer after deadline\n        if (block.timestamp >= _endTimestamp[id]) {\n            uint256 balance = ERC1155.balanceOf(msg.sender, id);\n            return ERC1155._burn(msg.sender, id, balance);\n        } else {\n            // Check if transaction has name or address\n            if (bytes(name).length > 0) {\n                to = getAddress(name);\n                require(\n                    _nameBalances[name][id] == false,\n                    \"BadgeME: Name received badge yet\"\n                );\n                require(\n                    _nameBlacklist[id][name] == false,\n                    \"Name is in blacklist\"\n                );\n                _nameBalances[name][id] = true;\n            }\n            require(\n                ERC1155.balanceOf(to, id) == 0,\n                \"BadgeME: Can't send more than one NFT to same account\"\n            );\n            require(\n                _addressBlacklist[id][to] == false,\n                \"Address is in blacklist\"\n            );\n            return ERC1155._safeTransferFrom(msg.sender, to, id, 1, bytes(\"\"));\n        }\n    }\n\n    // Overriding native transfer functions\n\n    function safeTransferFrom(\n        address from,\n        address to,\n        uint256 id,\n        uint256 amount,\n        bytes memory data\n    ) public pure override {\n        require(1 < 0, \"BadgeME: Native transfers are disabled\");\n    }\n\n    function _safeTransferFrom(\n        address from,\n        address to,\n        uint256 id,\n        uint256 amount,\n        bytes memory data\n    ) internal pure override {\n        require(1 < 0, \"BadgeME: Native transfers are disabled\");\n    }\n\n    function safeBatchTransferFrom(\n        address from,\n        address to,\n        uint256[] memory ids,\n        uint256[] memory amounts,\n        bytes memory data\n    ) public pure override {\n        require(1 < 0, \"BadgeME: Native transfers are disabled\");\n    }\n\n    function _safeBatchTransferFrom(\n        address from,\n        address to,\n        uint256[] memory ids,\n        uint256[] memory amounts,\n        bytes memory data\n    ) internal pure override {\n        require(1 < 0, \"BadgeME: Native transfers are disabled\");\n    }\n}\n",
  "sourcePath": "/home/turinglabs/GIT/YOMI/polygonme-badge/smartcontract/contracts/BadgeME.sol",
  "compiler": {
    "name": "solc",
    "version": "0.8.11+commit.d7f03943.Emscripten.clang"
  },
  "schemaVersion": "3.4.3",
  "updatedAt": "2022-01-04T16:05:44.983Z",
  "networkType": "ethereum",
  "devdoc": {
    "kind": "dev",
    "methods": {
      "balanceOf(address,uint256)": {
        "details": "See {IERC1155-balanceOf}. Requirements: - `account` cannot be the zero address."
      },
      "balanceOfBatch(address[],uint256[])": {
        "details": "See {IERC1155-balanceOfBatch}. Requirements: - `accounts` and `ids` must have the same length."
      },
      "isApprovedForAll(address,address)": {
        "details": "See {IERC1155-isApprovedForAll}."
      },
      "owner()": {
        "details": "Returns the address of the current owner."
      },
      "renounceOwnership()": {
        "details": "Leaves the contract without owner. It will not be possible to call `onlyOwner` functions anymore. Can only be called by the current owner. NOTE: Renouncing ownership will leave the contract without an owner, thereby removing any functionality that is only available to the owner."
      },
      "safeBatchTransferFrom(address,address,uint256[],uint256[],bytes)": {
        "details": "See {IERC1155-safeBatchTransferFrom}."
      },
      "safeTransferFrom(address,address,uint256,uint256,bytes)": {
        "details": "See {IERC1155-safeTransferFrom}."
      },
      "setApprovalForAll(address,bool)": {
        "details": "See {IERC1155-setApprovalForAll}."
      },
      "supportsInterface(bytes4)": {
        "details": "See {IERC165-supportsInterface}."
      },
      "transferOwnership(address)": {
        "details": "Transfers ownership of the contract to a new account (`newOwner`). Can only be called by the current owner."
      },
      "uri(uint256)": {
        "details": "See {IERC1155MetadataURI-uri}. This implementation returns the same URI for *all* token types. It relies on the token type ID substitution mechanism https://eips.ethereum.org/EIPS/eip-1155#metadata[defined in the EIP]. Clients calling this function must replace the `\\{id\\}` substring with the actual token type ID."
      }
    },
    "title": "BadgeME BadgeME - Extending PolygonME with Badges",
    "version": 1
  },
  "userdoc": {
    "kind": "user",
    "methods": {
      "creatorOfEvent(uint256)": {
        "notice": "Function to get the creator of a specific event"
      },
      "fixME(address)": {
        "notice": "Admin functions to fix base address if needed"
      },
      "getAddress(string)": {
        "notice": "Internal function to return the tokenId for a specific name"
      },
      "hasBadge(string,uint256)": {
        "notice": "Function to get the balance of a specific event for required name"
      },
      "isInAddressBlacklist(uint256,address)": {
        "notice": "Function to get the blacklist status"
      },
      "isInAddressWhitelist(uint256,address)": {
        "notice": "Function to get the whitelist status"
      }
    },
    "version": 1
  }
}