{
  "contractName": "BadgeME",
  "abi": [
    {
      "inputs": [
        {
          "internalType": "address",
          "name": "PolygonME",
          "type": "address"
        }
      ],
      "stateMutability": "nonpayable",
      "type": "constructor"
    },
    {
      "anonymous": false,
      "inputs": [
        {
          "indexed": true,
          "internalType": "address",
          "name": "account",
          "type": "address"
        },
        {
          "indexed": true,
          "internalType": "address",
          "name": "operator",
          "type": "address"
        },
        {
          "indexed": false,
          "internalType": "bool",
          "name": "approved",
          "type": "bool"
        }
      ],
      "name": "ApprovalForAll",
      "type": "event"
    },
    {
      "anonymous": false,
      "inputs": [
        {
          "indexed": true,
          "internalType": "address",
          "name": "previousOwner",
          "type": "address"
        },
        {
          "indexed": true,
          "internalType": "address",
          "name": "newOwner",
          "type": "address"
        }
      ],
      "name": "OwnershipTransferred",
      "type": "event"
    },
    {
      "anonymous": false,
      "inputs": [
        {
          "indexed": true,
          "internalType": "address",
          "name": "operator",
          "type": "address"
        },
        {
          "indexed": true,
          "internalType": "address",
          "name": "from",
          "type": "address"
        },
        {
          "indexed": true,
          "internalType": "address",
          "name": "to",
          "type": "address"
        },
        {
          "indexed": false,
          "internalType": "uint256[]",
          "name": "ids",
          "type": "uint256[]"
        },
        {
          "indexed": false,
          "internalType": "uint256[]",
          "name": "values",
          "type": "uint256[]"
        }
      ],
      "name": "TransferBatch",
      "type": "event"
    },
    {
      "anonymous": false,
      "inputs": [
        {
          "indexed": true,
          "internalType": "address",
          "name": "operator",
          "type": "address"
        },
        {
          "indexed": true,
          "internalType": "address",
          "name": "from",
          "type": "address"
        },
        {
          "indexed": true,
          "internalType": "address",
          "name": "to",
          "type": "address"
        },
        {
          "indexed": false,
          "internalType": "uint256",
          "name": "id",
          "type": "uint256"
        },
        {
          "indexed": false,
          "internalType": "uint256",
          "name": "value",
          "type": "uint256"
        }
      ],
      "name": "TransferSingle",
      "type": "event"
    },
    {
      "anonymous": false,
      "inputs": [
        {
          "indexed": false,
          "internalType": "string",
          "name": "value",
          "type": "string"
        },
        {
          "indexed": true,
          "internalType": "uint256",
          "name": "id",
          "type": "uint256"
        }
      ],
      "name": "URI",
      "type": "event"
    },
    {
      "inputs": [
        {
          "internalType": "uint256",
          "name": "",
          "type": "uint256"
        }
      ],
      "name": "_creators",
      "outputs": [
        {
          "internalType": "address",
          "name": "",
          "type": "address"
        }
      ],
      "stateMutability": "view",
      "type": "function",
      "constant": true
    },
    {
      "inputs": [
        {
          "internalType": "uint256",
          "name": "",
          "type": "uint256"
        }
      ],
      "name": "_endTimestamp",
      "outputs": [
        {
          "internalType": "uint256",
          "name": "",
          "type": "uint256"
        }
      ],
      "stateMutability": "view",
      "type": "function",
      "constant": true
    },
    {
      "inputs": [
        {
          "internalType": "string",
          "name": "",
          "type": "string"
        },
        {
          "internalType": "uint256",
          "name": "",
          "type": "uint256"
        }
      ],
      "name": "_nameBalances",
      "outputs": [
        {
          "internalType": "bool",
          "name": "",
          "type": "bool"
        }
      ],
      "stateMutability": "view",
      "type": "function",
      "constant": true
    },
    {
      "inputs": [
        {
          "internalType": "uint256",
          "name": "",
          "type": "uint256"
        }
      ],
      "name": "_startTimestamp",
      "outputs": [
        {
          "internalType": "uint256",
          "name": "",
          "type": "uint256"
        }
      ],
      "stateMutability": "view",
      "type": "function",
      "constant": true
    },
    {
      "inputs": [
        {
          "internalType": "address",
          "name": "account",
          "type": "address"
        },
        {
          "internalType": "uint256",
          "name": "id",
          "type": "uint256"
        }
      ],
      "name": "balanceOf",
      "outputs": [
        {
          "internalType": "uint256",
          "name": "",
          "type": "uint256"
        }
      ],
      "stateMutability": "view",
      "type": "function",
      "constant": true
    },
    {
      "inputs": [
        {
          "internalType": "address[]",
          "name": "accounts",
          "type": "address[]"
        },
        {
          "internalType": "uint256[]",
          "name": "ids",
          "type": "uint256[]"
        }
      ],
      "name": "balanceOfBatch",
      "outputs": [
        {
          "internalType": "uint256[]",
          "name": "",
          "type": "uint256[]"
        }
      ],
      "stateMutability": "view",
      "type": "function",
      "constant": true
    },
    {
      "inputs": [
        {
          "internalType": "address",
          "name": "account",
          "type": "address"
        },
        {
          "internalType": "address",
          "name": "operator",
          "type": "address"
        }
      ],
      "name": "isApprovedForAll",
      "outputs": [
        {
          "internalType": "bool",
          "name": "",
          "type": "bool"
        }
      ],
      "stateMutability": "view",
      "type": "function",
      "constant": true
    },
    {
      "inputs": [],
      "name": "owner",
      "outputs": [
        {
          "internalType": "address",
          "name": "",
          "type": "address"
        }
      ],
      "stateMutability": "view",
      "type": "function",
      "constant": true
    },
    {
      "inputs": [],
      "name": "renounceOwnership",
      "outputs": [],
      "stateMutability": "nonpayable",
      "type": "function"
    },
    {
      "inputs": [
        {
          "internalType": "address",
          "name": "operator",
          "type": "address"
        },
        {
          "internalType": "bool",
          "name": "approved",
          "type": "bool"
        }
      ],
      "name": "setApprovalForAll",
      "outputs": [],
      "stateMutability": "nonpayable",
      "type": "function"
    },
    {
      "inputs": [
        {
          "internalType": "bytes4",
          "name": "interfaceId",
          "type": "bytes4"
        }
      ],
      "name": "supportsInterface",
      "outputs": [
        {
          "internalType": "bool",
          "name": "",
          "type": "bool"
        }
      ],
      "stateMutability": "view",
      "type": "function",
      "constant": true
    },
    {
      "inputs": [
        {
          "internalType": "address",
          "name": "newOwner",
          "type": "address"
        }
      ],
      "name": "transferOwnership",
      "outputs": [],
      "stateMutability": "nonpayable",
      "type": "function"
    },
    {
      "inputs": [
        {
          "internalType": "uint256",
          "name": "",
          "type": "uint256"
        }
      ],
      "name": "uri",
      "outputs": [
        {
          "internalType": "string",
          "name": "",
          "type": "string"
        }
      ],
      "stateMutability": "view",
      "type": "function",
      "constant": true
    },
    {
      "inputs": [
        {
          "internalType": "address",
          "name": "PolygonME",
          "type": "address"
        }
      ],
      "name": "fixME",
      "outputs": [],
      "stateMutability": "nonpayable",
      "type": "function"
    },
    {
      "inputs": [
        {
          "internalType": "string",
          "name": "_name",
          "type": "string"
        }
      ],
      "name": "getAddress",
      "outputs": [
        {
          "internalType": "address",
          "name": "",
          "type": "address"
        }
      ],
      "stateMutability": "view",
      "type": "function",
      "constant": true
    },
    {
      "inputs": [
        {
          "internalType": "address",
          "name": "account",
          "type": "address"
        },
        {
          "internalType": "uint256",
          "name": "id",
          "type": "uint256"
        },
        {
          "internalType": "uint256",
          "name": "amount",
          "type": "uint256"
        },
        {
          "internalType": "bytes",
          "name": "data",
          "type": "bytes"
        },
        {
          "internalType": "uint256",
          "name": "start_timestamp",
          "type": "uint256"
        },
        {
          "internalType": "uint256",
          "name": "end_timestamp",
          "type": "uint256"
        }
      ],
      "name": "mint",
      "outputs": [],
      "stateMutability": "nonpayable",
      "type": "function"
    },
    {
      "inputs": [
        {
          "internalType": "uint256",
          "name": "tknId",
          "type": "uint256"
        }
      ],
      "name": "creatorOfEvent",
      "outputs": [
        {
          "internalType": "address",
          "name": "",
          "type": "address"
        }
      ],
      "stateMutability": "view",
      "type": "function",
      "constant": true
    },
    {
      "inputs": [
        {
          "internalType": "string",
          "name": "name",
          "type": "string"
        },
        {
          "internalType": "uint256",
          "name": "id",
          "type": "uint256"
        }
      ],
      "name": "hasBadge",
      "outputs": [
        {
          "internalType": "bool",
          "name": "",
          "type": "bool"
        }
      ],
      "stateMutability": "view",
      "type": "function",
      "constant": true
    },
    {
      "inputs": [
        {
          "internalType": "address",
          "name": "to",
          "type": "address"
        },
        {
          "internalType": "string",
          "name": "name",
          "type": "string"
        },
        {
          "internalType": "uint256",
          "name": "id",
          "type": "uint256"
        }
      ],
      "name": "transferBadge",
      "outputs": [],
      "stateMutability": "nonpayable",
      "type": "function"
    },
    {
      "inputs": [
        {
          "internalType": "address",
          "name": "from",
          "type": "address"
        },
        {
          "internalType": "address",
          "name": "to",
          "type": "address"
        },
        {
          "internalType": "uint256",
          "name": "id",
          "type": "uint256"
        },
        {
          "internalType": "uint256",
          "name": "amount",
          "type": "uint256"
        },
        {
          "internalType": "bytes",
          "name": "data",
          "type": "bytes"
        }
      ],
      "name": "safeTransferFrom",
      "outputs": [],
      "stateMutability": "pure",
      "type": "function",
      "constant": true
    },
    {
      "inputs": [
        {
          "internalType": "address",
          "name": "from",
          "type": "address"
        },
        {
          "internalType": "address",
          "name": "to",
          "type": "address"
        },
        {
          "internalType": "uint256[]",
          "name": "ids",
          "type": "uint256[]"
        },
        {
          "internalType": "uint256[]",
          "name": "amounts",
          "type": "uint256[]"
        },
        {
          "internalType": "bytes",
          "name": "data",
          "type": "bytes"
        }
      ],
      "name": "safeBatchTransferFrom",
      "outputs": [],
      "stateMutability": "pure",
      "type": "function",
      "constant": true
    }
  ],
  "bytecode": "0x60806040523480156200001157600080fd5b5060405162003fce38038062003fce833981810160405281019062000037919062000301565b60405180606001604052806026815260200162003fa8602691396200006281620000fd60201b60201c565b5062000083620000776200011960201b60201c565b6200012160201b60201c565b80600460006101000a81548173ffffffffffffffffffffffffffffffffffffffff021916908373ffffffffffffffffffffffffffffffffffffffff16021790555060405180606001604052806026815260200162003fa86026913960059080519060200190620000f5929190620001e7565b505062000398565b806002908051906020019062000115929190620001e7565b5050565b600033905090565b6000600360009054906101000a900473ffffffffffffffffffffffffffffffffffffffff16905081600360006101000a81548173ffffffffffffffffffffffffffffffffffffffff021916908373ffffffffffffffffffffffffffffffffffffffff1602179055508173ffffffffffffffffffffffffffffffffffffffff168173ffffffffffffffffffffffffffffffffffffffff167f8be0079c531659141344cd1fd0a4f28419497f9722a3daafe3b4186f6b6457e060405160405180910390a35050565b828054620001f59062000362565b90600052602060002090601f01602090048101928262000219576000855562000265565b82601f106200023457805160ff191683800117855562000265565b8280016001018555821562000265579182015b828111156200026457825182559160200191906001019062000247565b5b50905062000274919062000278565b5090565b5b808211156200029357600081600090555060010162000279565b5090565b600080fd5b600073ffffffffffffffffffffffffffffffffffffffff82169050919050565b6000620002c9826200029c565b9050919050565b620002db81620002bc565b8114620002e757600080fd5b50565b600081519050620002fb81620002d0565b92915050565b6000602082840312156200031a576200031962000297565b5b60006200032a84828501620002ea565b91505092915050565b7f4e487b7100000000000000000000000000000000000000000000000000000000600052602260045260246000fd5b600060028204905060018216806200037b57607f821691505b6020821081141562000392576200039162000333565b5b50919050565b613c0080620003a86000396000f3fe608060405234801561001057600080fd5b50600436106101365760003560e01c8063596c1239116100b8578063bf40fac11161007c578063bf40fac11461036f578063c98c029a1461039f578063e30964e5146103cf578063e985e9c5146103ff578063f242432a1461042f578063f2fde38b1461044b57610136565b8063596c1239146102df578063715018a61461030f5780638da5cb5b146103195780639d6eb82a14610337578063a22cb4651461035357610136565b806324f98f6f116100ff57806324f98f6f1461021757806327c3a225146102335780632eb2c2d6146102635780634816edf41461027f5780634e1273f4146102af57610136565b8062fdd58e1461013b57806301ffc9a71461016b57806302d41e711461019b57806308d0fcdc146101b75780630e89341c146101e7575b600080fd5b61015560048036038101906101509190612044565b610467565b6040516101629190612093565b60405180910390f35b61018560048036038101906101809190612106565b610530565b604051610192919061214e565b60405180910390f35b6101b560048036038101906101b091906122af565b610612565b005b6101d160048036038101906101cc919061231e565b61092f565b6040516101de919061235a565b60405180910390f35b61020160048036038101906101fc919061231e565b61096c565b60405161020e91906123fd565b60405180910390f35b610231600480360381019061022c919061241f565b610a00565b005b61024d6004803603810190610248919061244c565b610ac0565b60405161025a919061214e565b60405180910390f35b61027d60048036038101906102789190612611565b610b7e565b005b6102996004803603810190610294919061231e565b610bc9565b6040516102a6919061235a565b60405180910390f35b6102c960048036038101906102c491906127a3565b610bfc565b6040516102d691906128d9565b60405180910390f35b6102f960048036038101906102f4919061231e565b610d15565b6040516103069190612093565b60405180910390f35b610317610d2d565b005b610321610db5565b60405161032e919061235a565b60405180910390f35b610351600480360381019061034c91906128fb565b610ddf565b005b61036d600480360381019061036891906129d0565b610fcf565b005b61038960048036038101906103849190612a10565b611150565b604051610396919061235a565b60405180910390f35b6103b960048036038101906103b4919061244c565b61138e565b6040516103c6919061214e565b60405180910390f35b6103e960048036038101906103e4919061231e565b6113d3565b6040516103f69190612093565b60405180910390f35b61041960048036038101906104149190612a59565b6113eb565b604051610426919061214e565b60405180910390f35b61044960048036038101906104449190612a99565b61147f565b005b6104656004803603810190610460919061241f565b6114ca565b005b60008073ffffffffffffffffffffffffffffffffffffffff168373ffffffffffffffffffffffffffffffffffffffff1614156104d8576040517f08c379a00000000000000000000000000000000000000000000000000000000081526004016104cf90612ba2565b60405180910390fd5b60008083815260200190815260200160002060008473ffffffffffffffffffffffffffffffffffffffff1673ffffffffffffffffffffffffffffffffffffffff16815260200190815260200160002054905092915050565b60007fd9b67a26000000000000000000000000000000000000000000000000000000007bffffffffffffffffffffffffffffffffffffffffffffffffffffffff1916827bffffffffffffffffffffffffffffffffffffffffffffffffffffffff191614806105fb57507f0e89341c000000000000000000000000000000000000000000000000000000007bffffffffffffffffffffffffffffffffffffffffffffffffffffffff1916827bffffffffffffffffffffffffffffffffffffffffffffffffffffffff1916145b8061060b575061060a826115c2565b5b9050919050565b3373ffffffffffffffffffffffffffffffffffffffff166106328261092f565b73ffffffffffffffffffffffffffffffffffffffff1614610688576040517f08c379a000000000000000000000000000000000000000000000000000000000815260040161067f90612c34565b60405180910390fd5b600073ffffffffffffffffffffffffffffffffffffffff168373ffffffffffffffffffffffffffffffffffffffff161415806106c5575060008251115b610704576040517f08c379a00000000000000000000000000000000000000000000000000000000081526004016106fb90612cc6565b60405180910390fd5b60006107103383610467565b11610750576040517f08c379a000000000000000000000000000000000000000000000000000000000815260040161074790612d32565b60405180910390fd5b60086000828152602001908152602001600020544210156107a6576040517f08c379a000000000000000000000000000000000000000000000000000000000815260040161079d90612dc4565b60405180910390fd5b600760008281526020019081526020016000205442106107df5760006107cc3383610467565b90506107d933838361162c565b5061092a565b600082511115610878576107f282611150565b9250600015156009836040516108089190612e20565b9081526020016040518091039020600083815260200190815260200160002060009054906101000a900460ff16151514610877576040517f08c379a000000000000000000000000000000000000000000000000000000000815260040161086e90612e83565b60405180910390fd5b5b60006108848483610467565b146108c4576040517f08c379a00000000000000000000000000000000000000000000000000000000081526004016108bb90612f15565b60405180910390fd5b60016009836040516108d69190612e20565b9081526020016040518091039020600083815260200190815260200160002060006101000a81548160ff021916908315150217905550610929338483600160405180602001604052806000815250611849565b5b505050565b60006006600083815260200190815260200160002060009054906101000a900473ffffffffffffffffffffffffffffffffffffffff169050919050565b60606002805461097b90612f64565b80601f01602080910402602001604051908101604052809291908181526020018280546109a790612f64565b80156109f45780601f106109c9576101008083540402835291602001916109f4565b820191906000526020600020905b8154815290600101906020018083116109d757829003601f168201915b50505050509050919050565b610a08611acb565b73ffffffffffffffffffffffffffffffffffffffff16610a26610db5565b73ffffffffffffffffffffffffffffffffffffffff1614610a7c576040517f08c379a0000000000000000000000000000000000000000000000000000000008152600401610a7390612fe2565b60405180910390fd5b80600460006101000a81548173ffffffffffffffffffffffffffffffffffffffff021916908373ffffffffffffffffffffffffffffffffffffffff16021790555050565b60008073ffffffffffffffffffffffffffffffffffffffff16610ae284611150565b73ffffffffffffffffffffffffffffffffffffffff161415610b39576040517f08c379a0000000000000000000000000000000000000000000000000000000008152600401610b309061304e565b60405180910390fd5b600983604051610b499190612e20565b9081526020016040518091039020600083815260200190815260200160002060009054906101000a900460ff16905092915050565b6000600110610bc2576040517f08c379a0000000000000000000000000000000000000000000000000000000008152600401610bb9906130e0565b60405180910390fd5b5050505050565b60066020528060005260406000206000915054906101000a900473ffffffffffffffffffffffffffffffffffffffff1681565b60608151835114610c42576040517f08c379a0000000000000000000000000000000000000000000000000000000008152600401610c3990613172565b60405180910390fd5b6000835167ffffffffffffffff811115610c5f57610c5e612184565b5b604051908082528060200260200182016040528015610c8d5781602001602082028036833780820191505090505b50905060005b8451811015610d0a57610cda858281518110610cb257610cb1613192565b5b6020026020010151858381518110610ccd57610ccc613192565b5b6020026020010151610467565b828281518110610ced57610cec613192565b5b60200260200101818152505080610d03906131f0565b9050610c93565b508091505092915050565b60086020528060005260406000206000915090505481565b610d35611acb565b73ffffffffffffffffffffffffffffffffffffffff16610d53610db5565b73ffffffffffffffffffffffffffffffffffffffff1614610da9576040517f08c379a0000000000000000000000000000000000000000000000000000000008152600401610da090612fe2565b60405180910390fd5b610db36000611ad3565b565b6000600360009054906101000a900473ffffffffffffffffffffffffffffffffffffffff16905090565b814210610e21576040517f08c379a0000000000000000000000000000000000000000000000000000000008152600401610e18906132ab565b60405180910390fd5b600060086000878152602001908152602001600020541415610ec457816008600087815260200190815260200160002081905550806007600087815260200190815260200160002081905550336006600087815260200190815260200160002060006101000a81548173ffffffffffffffffffffffffffffffffffffffff021916908373ffffffffffffffffffffffffffffffffffffffff160217905550610fbb565b3373ffffffffffffffffffffffffffffffffffffffff166006600087815260200190815260200160002060009054906101000a900473ffffffffffffffffffffffffffffffffffffffff1673ffffffffffffffffffffffffffffffffffffffff1614610f65576040517f08c379a0000000000000000000000000000000000000000000000000000000008152600401610f5c9061333d565b60405180910390fd5b60076000868152602001908152602001600020544210610fba576040517f08c379a0000000000000000000000000000000000000000000000000000000008152600401610fb1906133cf565b60405180910390fd5b5b610fc786868686611b99565b505050505050565b8173ffffffffffffffffffffffffffffffffffffffff16610fee611acb565b73ffffffffffffffffffffffffffffffffffffffff161415611045576040517f08c379a000000000000000000000000000000000000000000000000000000000815260040161103c90613461565b60405180910390fd5b8060016000611052611acb565b73ffffffffffffffffffffffffffffffffffffffff1673ffffffffffffffffffffffffffffffffffffffff16815260200190815260200160002060008473ffffffffffffffffffffffffffffffffffffffff1673ffffffffffffffffffffffffffffffffffffffff16815260200190815260200160002060006101000a81548160ff0219169083151502179055508173ffffffffffffffffffffffffffffffffffffffff166110ff611acb565b73ffffffffffffffffffffffffffffffffffffffff167f17307eab39ab6107e8899845ad3d59bd9653f200f220920489ca2b5937696c3183604051611144919061214e565b60405180910390a35050565b600080600460009054906101000a900473ffffffffffffffffffffffffffffffffffffffff1673ffffffffffffffffffffffffffffffffffffffff1663a47cf974846040518263ffffffff1660e01b81526004016111ae91906123fd565b602060405180830381865afa1580156111cb573d6000803e3d6000fd5b505050506040513d601f19601f820116820180604052508101906111ef9190613496565b90506000811115611383576000600460009054906101000a900473ffffffffffffffffffffffffffffffffffffffff1673ffffffffffffffffffffffffffffffffffffffff16639a65ddec856040518263ffffffff1660e01b815260040161125791906123fd565b602060405180830381865afa158015611274573d6000803e3d6000fd5b505050506040513d601f19601f8201168201806040525081019061129891906134d8565b9050600073ffffffffffffffffffffffffffffffffffffffff168173ffffffffffffffffffffffffffffffffffffffff16146112d8578092505050611389565b6000600460009054906101000a900473ffffffffffffffffffffffffffffffffffffffff1673ffffffffffffffffffffffffffffffffffffffff16636352211e846040518263ffffffff1660e01b81526004016113359190612093565b602060405180830381865afa158015611352573d6000803e3d6000fd5b505050506040513d601f19601f8201168201806040525081019061137691906134d8565b9050809350505050611389565b60009150505b919050565b6009828051602081018201805184825260208301602085012081835280955050505050506020528060005260406000206000915091509054906101000a900460ff1681565b60076020528060005260406000206000915090505481565b6000600160008473ffffffffffffffffffffffffffffffffffffffff1673ffffffffffffffffffffffffffffffffffffffff16815260200190815260200160002060008373ffffffffffffffffffffffffffffffffffffffff1673ffffffffffffffffffffffffffffffffffffffff16815260200190815260200160002060009054906101000a900460ff16905092915050565b60006001106114c3576040517f08c379a00000000000000000000000000000000000000000000000000000000081526004016114ba906130e0565b60405180910390fd5b5050505050565b6114d2611acb565b73ffffffffffffffffffffffffffffffffffffffff166114f0610db5565b73ffffffffffffffffffffffffffffffffffffffff1614611546576040517f08c379a000000000000000000000000000000000000000000000000000000000815260040161153d90612fe2565b60405180910390fd5b600073ffffffffffffffffffffffffffffffffffffffff168173ffffffffffffffffffffffffffffffffffffffff1614156115b6576040517f08c379a00000000000000000000000000000000000000000000000000000000081526004016115ad90613577565b60405180910390fd5b6115bf81611ad3565b50565b60007f01ffc9a7000000000000000000000000000000000000000000000000000000007bffffffffffffffffffffffffffffffffffffffffffffffffffffffff1916827bffffffffffffffffffffffffffffffffffffffffffffffffffffffff1916149050919050565b600073ffffffffffffffffffffffffffffffffffffffff168373ffffffffffffffffffffffffffffffffffffffff16141561169c576040517f08c379a000000000000000000000000000000000000000000000000000000000815260040161169390613609565b60405180910390fd5b60006116a6611acb565b90506116d6818560006116b887611d2f565b6116c187611d2f565b60405180602001604052806000815250611da9565b600080600085815260200190815260200160002060008673ffffffffffffffffffffffffffffffffffffffff1673ffffffffffffffffffffffffffffffffffffffff1681526020019081526020016000205490508281101561176d576040517f08c379a00000000000000000000000000000000000000000000000000000000081526004016117649061369b565b60405180910390fd5b82810360008086815260200190815260200160002060008773ffffffffffffffffffffffffffffffffffffffff1673ffffffffffffffffffffffffffffffffffffffff16815260200190815260200160002081905550600073ffffffffffffffffffffffffffffffffffffffff168573ffffffffffffffffffffffffffffffffffffffff168373ffffffffffffffffffffffffffffffffffffffff167fc3d58168c5ae7397731d063d5bbf3d657854427343f4c083240f7aacaa2d0f62878760405161183a9291906136bb565b60405180910390a45050505050565b600073ffffffffffffffffffffffffffffffffffffffff168473ffffffffffffffffffffffffffffffffffffffff1614156118b9576040517f08c379a00000000000000000000000000000000000000000000000000000000081526004016118b090613756565b60405180910390fd5b60006118c3611acb565b90506118e38187876118d488611d2f565b6118dd88611d2f565b87611da9565b600080600086815260200190815260200160002060008873ffffffffffffffffffffffffffffffffffffffff1673ffffffffffffffffffffffffffffffffffffffff1681526020019081526020016000205490508381101561197a576040517f08c379a0000000000000000000000000000000000000000000000000000000008152600401611971906137e8565b60405180910390fd5b83810360008087815260200190815260200160002060008973ffffffffffffffffffffffffffffffffffffffff1673ffffffffffffffffffffffffffffffffffffffff168152602001908152602001600020819055508360008087815260200190815260200160002060008873ffffffffffffffffffffffffffffffffffffffff1673ffffffffffffffffffffffffffffffffffffffff1681526020019081526020016000206000828254611a2f9190613808565b925050819055508573ffffffffffffffffffffffffffffffffffffffff168773ffffffffffffffffffffffffffffffffffffffff168373ffffffffffffffffffffffffffffffffffffffff167fc3d58168c5ae7397731d063d5bbf3d657854427343f4c083240f7aacaa2d0f628888604051611aac9291906136bb565b60405180910390a4611ac2828888888888611db1565b50505050505050565b600033905090565b6000600360009054906101000a900473ffffffffffffffffffffffffffffffffffffffff16905081600360006101000a81548173ffffffffffffffffffffffffffffffffffffffff021916908373ffffffffffffffffffffffffffffffffffffffff1602179055508173ffffffffffffffffffffffffffffffffffffffff168173ffffffffffffffffffffffffffffffffffffffff167f8be0079c531659141344cd1fd0a4f28419497f9722a3daafe3b4186f6b6457e060405160405180910390a35050565b600073ffffffffffffffffffffffffffffffffffffffff168473ffffffffffffffffffffffffffffffffffffffff161415611c09576040517f08c379a0000000000000000000000000000000000000000000000000000000008152600401611c00906138d0565b60405180910390fd5b6000611c13611acb565b9050611c3481600087611c2588611d2f565b611c2e88611d2f565b87611da9565b8260008086815260200190815260200160002060008773ffffffffffffffffffffffffffffffffffffffff1673ffffffffffffffffffffffffffffffffffffffff1681526020019081526020016000206000828254611c939190613808565b925050819055508473ffffffffffffffffffffffffffffffffffffffff16600073ffffffffffffffffffffffffffffffffffffffff168273ffffffffffffffffffffffffffffffffffffffff167fc3d58168c5ae7397731d063d5bbf3d657854427343f4c083240f7aacaa2d0f628787604051611d119291906136bb565b60405180910390a4611d2881600087878787611db1565b5050505050565b60606000600167ffffffffffffffff811115611d4e57611d4d612184565b5b604051908082528060200260200182016040528015611d7c5781602001602082028036833780820191505090505b5090508281600081518110611d9457611d93613192565b5b60200260200101818152505080915050919050565b505050505050565b611dd08473ffffffffffffffffffffffffffffffffffffffff16611f89565b15611f81578373ffffffffffffffffffffffffffffffffffffffff1663f23a6e6187878686866040518663ffffffff1660e01b8152600401611e16959493929190613945565b6020604051808303816000875af1925050508015611e5257506040513d601f19601f82011682018060405250810190611e4f91906139b4565b60015b611ef857611e5e6139ee565b806308c379a01415611ebb5750611e73613a10565b80611e7e5750611ebd565b806040517f08c379a0000000000000000000000000000000000000000000000000000000008152600401611eb291906123fd565b60405180910390fd5b505b6040517f08c379a0000000000000000000000000000000000000000000000000000000008152600401611eef90613b18565b60405180910390fd5b63f23a6e6160e01b7bffffffffffffffffffffffffffffffffffffffffffffffffffffffff1916817bffffffffffffffffffffffffffffffffffffffffffffffffffffffff191614611f7f576040517f08c379a0000000000000000000000000000000000000000000000000000000008152600401611f7690613baa565b60405180910390fd5b505b505050505050565b600080823b905060008111915050919050565b6000604051905090565b600080fd5b600080fd5b600073ffffffffffffffffffffffffffffffffffffffff82169050919050565b6000611fdb82611fb0565b9050919050565b611feb81611fd0565b8114611ff657600080fd5b50565b60008135905061200881611fe2565b92915050565b6000819050919050565b6120218161200e565b811461202c57600080fd5b50565b60008135905061203e81612018565b92915050565b6000806040838503121561205b5761205a611fa6565b5b600061206985828601611ff9565b925050602061207a8582860161202f565b9150509250929050565b61208d8161200e565b82525050565b60006020820190506120a86000830184612084565b92915050565b60007fffffffff0000000000000000000000000000000000000000000000000000000082169050919050565b6120e3816120ae565b81146120ee57600080fd5b50565b600081359050612100816120da565b92915050565b60006020828403121561211c5761211b611fa6565b5b600061212a848285016120f1565b91505092915050565b60008115159050919050565b61214881612133565b82525050565b6000602082019050612163600083018461213f565b92915050565b600080fd5b600080fd5b6000601f19601f8301169050919050565b7f4e487b7100000000000000000000000000000000000000000000000000000000600052604160045260246000fd5b6121bc82612173565b810181811067ffffffffffffffff821117156121db576121da612184565b5b80604052505050565b60006121ee611f9c565b90506121fa82826121b3565b919050565b600067ffffffffffffffff82111561221a57612219612184565b5b61222382612173565b9050602081019050919050565b82818337600083830152505050565b600061225261224d846121ff565b6121e4565b90508281526020810184848401111561226e5761226d61216e565b5b612279848285612230565b509392505050565b600082601f83011261229657612295612169565b5b81356122a684826020860161223f565b91505092915050565b6000806000606084860312156122c8576122c7611fa6565b5b60006122d686828701611ff9565b935050602084013567ffffffffffffffff8111156122f7576122f6611fab565b5b61230386828701612281565b92505060406123148682870161202f565b9150509250925092565b60006020828403121561233457612333611fa6565b5b60006123428482850161202f565b91505092915050565b61235481611fd0565b82525050565b600060208201905061236f600083018461234b565b92915050565b600081519050919050565b600082825260208201905092915050565b60005b838110156123af578082015181840152602081019050612394565b838111156123be576000848401525b50505050565b60006123cf82612375565b6123d98185612380565b93506123e9818560208601612391565b6123f281612173565b840191505092915050565b6000602082019050818103600083015261241781846123c4565b905092915050565b60006020828403121561243557612434611fa6565b5b600061244384828501611ff9565b91505092915050565b6000806040838503121561246357612462611fa6565b5b600083013567ffffffffffffffff81111561248157612480611fab565b5b61248d85828601612281565b925050602061249e8582860161202f565b9150509250929050565b600067ffffffffffffffff8211156124c3576124c2612184565b5b602082029050602081019050919050565b600080fd5b60006124ec6124e7846124a8565b6121e4565b9050808382526020820190506020840283018581111561250f5761250e6124d4565b5b835b818110156125385780612524888261202f565b845260208401935050602081019050612511565b5050509392505050565b600082601f83011261255757612556612169565b5b81356125678482602086016124d9565b91505092915050565b600067ffffffffffffffff82111561258b5761258a612184565b5b61259482612173565b9050602081019050919050565b60006125b46125af84612570565b6121e4565b9050828152602081018484840111156125d0576125cf61216e565b5b6125db848285612230565b509392505050565b600082601f8301126125f8576125f7612169565b5b81356126088482602086016125a1565b91505092915050565b600080600080600060a0868803121561262d5761262c611fa6565b5b600061263b88828901611ff9565b955050602061264c88828901611ff9565b945050604086013567ffffffffffffffff81111561266d5761266c611fab565b5b61267988828901612542565b935050606086013567ffffffffffffffff81111561269a57612699611fab565b5b6126a688828901612542565b925050608086013567ffffffffffffffff8111156126c7576126c6611fab565b5b6126d3888289016125e3565b9150509295509295909350565b600067ffffffffffffffff8211156126fb576126fa612184565b5b602082029050602081019050919050565b600061271f61271a846126e0565b6121e4565b90508083825260208201905060208402830185811115612742576127416124d4565b5b835b8181101561276b57806127578882611ff9565b845260208401935050602081019050612744565b5050509392505050565b600082601f83011261278a57612789612169565b5b813561279a84826020860161270c565b91505092915050565b600080604083850312156127ba576127b9611fa6565b5b600083013567ffffffffffffffff8111156127d8576127d7611fab565b5b6127e485828601612775565b925050602083013567ffffffffffffffff81111561280557612804611fab565b5b61281185828601612542565b9150509250929050565b600081519050919050565b600082825260208201905092915050565b6000819050602082019050919050565b6128508161200e565b82525050565b60006128628383612847565b60208301905092915050565b6000602082019050919050565b60006128868261281b565b6128908185612826565b935061289b83612837565b8060005b838110156128cc5781516128b38882612856565b97506128be8361286e565b92505060018101905061289f565b5085935050505092915050565b600060208201905081810360008301526128f3818461287b565b905092915050565b60008060008060008060c0878903121561291857612917611fa6565b5b600061292689828a01611ff9565b965050602061293789828a0161202f565b955050604061294889828a0161202f565b945050606087013567ffffffffffffffff81111561296957612968611fab565b5b61297589828a016125e3565b935050608061298689828a0161202f565b92505060a061299789828a0161202f565b9150509295509295509295565b6129ad81612133565b81146129b857600080fd5b50565b6000813590506129ca816129a4565b92915050565b600080604083850312156129e7576129e6611fa6565b5b60006129f585828601611ff9565b9250506020612a06858286016129bb565b9150509250929050565b600060208284031215612a2657612a25611fa6565b5b600082013567ffffffffffffffff811115612a4457612a43611fab565b5b612a5084828501612281565b91505092915050565b60008060408385031215612a7057612a6f611fa6565b5b6000612a7e85828601611ff9565b9250506020612a8f85828601611ff9565b9150509250929050565b600080600080600060a08688031215612ab557612ab4611fa6565b5b6000612ac388828901611ff9565b9550506020612ad488828901611ff9565b9450506040612ae58882890161202f565b9350506060612af68882890161202f565b925050608086013567ffffffffffffffff811115612b1757612b16611fab565b5b612b23888289016125e3565b9150509295509295909350565b7f455243313135353a2062616c616e636520717565727920666f7220746865207a60008201527f65726f2061646472657373000000000000000000000000000000000000000000602082015250565b6000612b8c602b83612380565b9150612b9782612b30565b604082019050919050565b60006020820190508181036000830152612bbb81612b7f565b9050919050565b7f42616467654d453a204f6e6c792063726561746f722063616e207472616e736660008201527f657220746f6b656e730000000000000000000000000000000000000000000000602082015250565b6000612c1e602983612380565b9150612c2982612bc2565b604082019050919050565b60006020820190508181036000830152612c4d81612c11565b9050919050565b7f42616467654d453a204d75737420737065636966792061646472657373206f7260008201527f206e616d65000000000000000000000000000000000000000000000000000000602082015250565b6000612cb0602583612380565b9150612cbb82612c54565b604082019050919050565b60006020820190508181036000830152612cdf81612ca3565b9050919050565b7f42616467654d453a204d757374206f776e207468617420746f6b656e00000000600082015250565b6000612d1c601c83612380565b9150612d2782612ce6565b602082019050919050565b60006020820190508181036000830152612d4b81612d0f565b9050919050565b7f42616467654d453a2043616e2774206d6f7665206265666f726520626567696e60008201527f6e696e6700000000000000000000000000000000000000000000000000000000602082015250565b6000612dae602483612380565b9150612db982612d52565b604082019050919050565b60006020820190508181036000830152612ddd81612da1565b9050919050565b600081905092915050565b6000612dfa82612375565b612e048185612de4565b9350612e14818560208601612391565b80840191505092915050565b6000612e2c8284612def565b915081905092915050565b7f42616467654d453a204e616d6520726563656976656420626164676520796574600082015250565b6000612e6d602083612380565b9150612e7882612e37565b602082019050919050565b60006020820190508181036000830152612e9c81612e60565b9050919050565b7f42616467654d453a2043616e27742073656e64206d6f7265207468616e206f6e60008201527f65204e465420746f2073616d65206163636f756e740000000000000000000000602082015250565b6000612eff603583612380565b9150612f0a82612ea3565b604082019050919050565b60006020820190508181036000830152612f2e81612ef2565b9050919050565b7f4e487b7100000000000000000000000000000000000000000000000000000000600052602260045260246000fd5b60006002820490506001821680612f7c57607f821691505b60208210811415612f9057612f8f612f35565b5b50919050565b7f4f776e61626c653a2063616c6c6572206973206e6f7420746865206f776e6572600082015250565b6000612fcc602083612380565b9150612fd782612f96565b602082019050919050565b60006020820190508181036000830152612ffb81612fbf565b9050919050565b7f42616467654d453a204e616d6520646f65736e27742065786973747300000000600082015250565b6000613038601c83612380565b915061304382613002565b602082019050919050565b600060208201905081810360008301526130678161302b565b9050919050565b7f42616467654d453a204e6174697665207472616e73666572732061726520646960008201527f7361626c65640000000000000000000000000000000000000000000000000000602082015250565b60006130ca602683612380565b91506130d58261306e565b604082019050919050565b600060208201905081810360008301526130f9816130bd565b9050919050565b7f455243313135353a206163636f756e747320616e6420696473206c656e67746860008201527f206d69736d617463680000000000000000000000000000000000000000000000602082015250565b600061315c602983612380565b915061316782613100565b604082019050919050565b6000602082019050818103600083015261318b8161314f565b9050919050565b7f4e487b7100000000000000000000000000000000000000000000000000000000600052603260045260246000fd5b7f4e487b7100000000000000000000000000000000000000000000000000000000600052601160045260246000fd5b60006131fb8261200e565b91507fffffffffffffffffffffffffffffffffffffffffffffffffffffffffffffffff82141561322e5761322d6131c1565b5b600182019050919050565b7f426164674d453a2043616e2774206d696e7420746f6b656e20696e207468652060008201527f7061737400000000000000000000000000000000000000000000000000000000602082015250565b6000613295602483612380565b91506132a082613239565b604082019050919050565b600060208201905081810360008301526132c481613288565b9050919050565b7f42616467654d453a2043616e2774206d696e7420746f6b656e7320796f75206860008201527f6176656e27742063726561746564000000000000000000000000000000000000602082015250565b6000613327602e83612380565b9150613332826132cb565b604082019050919050565b600060208201905081810360008301526133568161331a565b9050919050565b7f42616467654d453a2043616e2774206d696e742061667465722074686520656e60008201527f64206f6620746865206576656e74000000000000000000000000000000000000602082015250565b60006133b9602e83612380565b91506133c48261335d565b604082019050919050565b600060208201905081810360008301526133e8816133ac565b9050919050565b7f455243313135353a2073657474696e6720617070726f76616c2073746174757360008201527f20666f722073656c660000000000000000000000000000000000000000000000602082015250565b600061344b602983612380565b9150613456826133ef565b604082019050919050565b6000602082019050818103600083015261347a8161343e565b9050919050565b60008151905061349081612018565b92915050565b6000602082840312156134ac576134ab611fa6565b5b60006134ba84828501613481565b91505092915050565b6000815190506134d281611fe2565b92915050565b6000602082840312156134ee576134ed611fa6565b5b60006134fc848285016134c3565b91505092915050565b7f4f776e61626c653a206e6577206f776e657220697320746865207a65726f206160008201527f6464726573730000000000000000000000000000000000000000000000000000602082015250565b6000613561602683612380565b915061356c82613505565b604082019050919050565b6000602082019050818103600083015261359081613554565b9050919050565b7f455243313135353a206275726e2066726f6d20746865207a65726f206164647260008201527f6573730000000000000000000000000000000000000000000000000000000000602082015250565b60006135f3602383612380565b91506135fe82613597565b604082019050919050565b60006020820190508181036000830152613622816135e6565b9050919050565b7f455243313135353a206275726e20616d6f756e7420657863656564732062616c60008201527f616e636500000000000000000000000000000000000000000000000000000000602082015250565b6000613685602483612380565b915061369082613629565b604082019050919050565b600060208201905081810360008301526136b481613678565b9050919050565b60006040820190506136d06000830185612084565b6136dd6020830184612084565b9392505050565b7f455243313135353a207472616e7366657220746f20746865207a65726f20616460008201527f6472657373000000000000000000000000000000000000000000000000000000602082015250565b6000613740602583612380565b915061374b826136e4565b604082019050919050565b6000602082019050818103600083015261376f81613733565b9050919050565b7f455243313135353a20696e73756666696369656e742062616c616e636520666f60008201527f72207472616e7366657200000000000000000000000000000000000000000000602082015250565b60006137d2602a83612380565b91506137dd82613776565b604082019050919050565b60006020820190508181036000830152613801816137c5565b9050919050565b60006138138261200e565b915061381e8361200e565b9250827fffffffffffffffffffffffffffffffffffffffffffffffffffffffffffffffff03821115613853576138526131c1565b5b828201905092915050565b7f455243313135353a206d696e7420746f20746865207a65726f2061646472657360008201527f7300000000000000000000000000000000000000000000000000000000000000602082015250565b60006138ba602183612380565b91506138c58261385e565b604082019050919050565b600060208201905081810360008301526138e9816138ad565b9050919050565b600081519050919050565b600082825260208201905092915050565b6000613917826138f0565b61392181856138fb565b9350613931818560208601612391565b61393a81612173565b840191505092915050565b600060a08201905061395a600083018861234b565b613967602083018761234b565b6139746040830186612084565b6139816060830185612084565b8181036080830152613993818461390c565b90509695505050505050565b6000815190506139ae816120da565b92915050565b6000602082840312156139ca576139c9611fa6565b5b60006139d88482850161399f565b91505092915050565b60008160e01c9050919050565b600060033d1115613a0d5760046000803e613a0a6000516139e1565b90505b90565b600060443d1015613a2057613aa3565b613a28611f9c565b60043d036004823e80513d602482011167ffffffffffffffff82111715613a50575050613aa3565b808201805167ffffffffffffffff811115613a6e5750505050613aa3565b80602083010160043d038501811115613a8b575050505050613aa3565b613a9a826020018501866121b3565b82955050505050505b90565b7f455243313135353a207472616e7366657220746f206e6f6e204552433131353560008201527f526563656976657220696d706c656d656e746572000000000000000000000000602082015250565b6000613b02603483612380565b9150613b0d82613aa6565b604082019050919050565b60006020820190508181036000830152613b3181613af5565b9050919050565b7f455243313135353a204552433131353552656365697665722072656a6563746560008201527f6420746f6b656e73000000000000000000000000000000000000000000000000602082015250565b6000613b94602883612380565b9150613b9f82613b38565b604082019050919050565b60006020820190508181036000830152613bc381613b87565b905091905056fea2646970667358221220143836b366d43aef8a31641bead08d1b5586e67d72f6db071681511977da9d2e64736f6c634300080b003368747470733a2f2f6261646765732e706f6c79676f6e6d652e78797a2f7b69647d2e6a736f6e",
  "immutableReferences": {},
  "source": "// SPDX-License-Identifier: MIT\npragma solidity ^0.8.6;\n\nimport \"@openzeppelin/contracts/token/ERC1155/ERC1155.sol\";\nimport \"@openzeppelin/contracts/access/Ownable.sol\";\nimport \"../interfaces/IME.sol\";\n\n/**\n * @title BadgeME\n * BadgeME - Extending PolygonME with Badges\n */\ncontract BadgeME is ERC1155, Ownable {\n    IME private _me;\n    string metadata_uri;\n    mapping(uint256 => address) public _creators;\n    mapping(uint256 => uint256) public _endTimestamp;\n    mapping(uint256 => uint256) public _startTimestamp;\n    mapping(string => mapping(uint256 => bool)) public _nameBalances;\n\n    constructor(address PolygonME)\n        ERC1155(\"https://badges.polygonme.xyz/{id}.json\")\n    {\n        _me = IME(PolygonME);\n        metadata_uri = \"https://badges.polygonme.xyz/{id}.json\";\n    }\n\n    /**\n     * Admin functions to fix base address if needed\n     */\n    function fixME(address PolygonME) public onlyOwner {\n        _me = IME(PolygonME);\n    }\n\n    /**\n     * Internal function to return the tokenId for a specific name\n     */\n    function returnNameId(string memory _name, string memory _gate)\n        internal\n        view\n        returns (uint256)\n    {\n        uint256 tknId = _me._nameToTokenId(\n            string(abi.encodePacked(_name, \".\", _gate))\n        );\n        require(tknId > 0, \"BadgeME: This name doesn't exists.\");\n        return tknId;\n    }\n\n    /**\n     * Internal function to return the tokenId for a specific name\n     */\n    function getAddress(string memory _name) public view returns (address) {\n        uint256 tknId = _me._nameToTokenId(_name);\n        if (tknId > 0) {\n            address settedAddress = _me.getAddressByName(_name);\n            if (settedAddress != address(0)) {\n                return settedAddress;\n            } else {\n                address owner = _me.ownerOf(tknId);\n                return owner;\n            }\n        } else {\n            return address(0);\n        }\n    }\n\n    function mint(\n        address account,\n        uint256 id,\n        uint256 amount,\n        bytes memory data,\n        uint256 start_timestamp,\n        uint256 end_timestamp\n    ) public {\n        require(\n            block.timestamp < start_timestamp,\n            \"BadgME: Can't mint token in the past\"\n        );\n        // Be sure that starting and ending timestamps can't be changed after issuance.\n        if (_startTimestamp[id] == 0) {\n            _startTimestamp[id] = start_timestamp;\n            _endTimestamp[id] = end_timestamp;\n            _creators[id] = msg.sender;\n        } else {\n            require(\n                _creators[id] == msg.sender,\n                \"BadgeME: Can't mint tokens you haven't created\"\n            );\n            require(\n                block.timestamp < _endTimestamp[id],\n                \"BadgeME: Can't mint after the end of the event\"\n            );\n        }\n        _mint(account, id, amount, data);\n    }\n\n    /**\n     * Function to get the creator of a specific event\n     */\n    function creatorOfEvent(uint256 tknId) public view returns (address) {\n        return _creators[tknId];\n    }\n    /**\n     * Function to get the balance of a specific event for required name\n     */\n    function hasBadge(string memory name, uint256 id) public view returns (bool) {\n        require(getAddress(name) != address(0), \"BadgeME: Name doesn't exists\");\n        return _nameBalances[name][id];\n    }\n\n    function transferBadge(\n        address to,\n        string memory name,\n        uint256 id\n    ) public {\n        require(\n            creatorOfEvent(id) == msg.sender,\n            \"BadgeME: Only creator can transfer tokens\"\n        );\n        require(to != address(0) || bytes(name).length > 0, \"BadgeME: Must specify address or name\");\n        require(ERC1155.balanceOf(msg.sender, id) > 0, \"BadgeME: Must own that token\");\n        // Require event started\n        require(\n            block.timestamp >= _startTimestamp[id],\n            \"BadgeME: Can't move before beginning\"\n        );\n        // Burn all tokens if try to transfer after deadline\n        if (block.timestamp >= _endTimestamp[id]) {\n            uint256 balance = ERC1155.balanceOf(msg.sender, id);\n            return ERC1155._burn(msg.sender, id, balance);\n        } else {\n            // Check if transaction has name or address\n            if(bytes(name).length > 0){\n                to = getAddress(name);\n                require(_nameBalances[name][id] == false, \"BadgeME: Name received badge yet\");\n            }\n            require(\n                ERC1155.balanceOf(to, id) == 0,\n                \"BadgeME: Can't send more than one NFT to same account\"\n            );\n            _nameBalances[name][id] = true;\n            return ERC1155._safeTransferFrom(msg.sender, to, id, 1, bytes(\"\"));\n        }\n    }\n\n    // Overriding native transfer functions\n\n    function safeTransferFrom(\n        address from,\n        address to,\n        uint256 id,\n        uint256 amount,\n        bytes memory data\n    ) public pure override {\n        require(\n            1 < 0,\n            \"BadgeME: Native transfers are disabled\"\n        );\n    }\n\n    function _safeTransferFrom(\n        address from,\n        address to,\n        uint256 id,\n        uint256 amount,\n        bytes memory data\n    ) internal pure override {\n        require(\n            1 < 0,\n            \"BadgeME: Native transfers are disabled\"\n        );\n    }\n\n    function safeBatchTransferFrom(\n        address from,\n        address to,\n        uint256[] memory ids,\n        uint256[] memory amounts,\n        bytes memory data\n    ) public pure override {\n        require(\n            1 < 0,\n            \"BadgeME: Native transfers are disabled\"\n        );\n    }\n\n    function _safeBatchTransferFrom(\n        address from,\n        address to,\n        uint256[] memory ids,\n        uint256[] memory amounts,\n        bytes memory data\n    ) internal pure override {\n        require(\n            1 < 0,\n            \"BadgeME: Native transfers are disabled\"\n        );\n    }\n}\n",
  "sourcePath": "/home/turinglabs/GIT/YOMI/polygonme-badge/smartcontract/contracts/BadgeME.sol",
  "compiler": {
    "name": "solc",
    "version": "0.8.11+commit.d7f03943.Emscripten.clang"
  },
  "schemaVersion": "3.4.3",
  "updatedAt": "2022-01-04T15:00:16.257Z",
  "networkType": "ethereum",
  "devdoc": {
    "kind": "dev",
    "methods": {
      "balanceOf(address,uint256)": {
        "details": "See {IERC1155-balanceOf}. Requirements: - `account` cannot be the zero address."
      },
      "balanceOfBatch(address[],uint256[])": {
        "details": "See {IERC1155-balanceOfBatch}. Requirements: - `accounts` and `ids` must have the same length."
      },
      "isApprovedForAll(address,address)": {
        "details": "See {IERC1155-isApprovedForAll}."
      },
      "owner()": {
        "details": "Returns the address of the current owner."
      },
      "renounceOwnership()": {
        "details": "Leaves the contract without owner. It will not be possible to call `onlyOwner` functions anymore. Can only be called by the current owner. NOTE: Renouncing ownership will leave the contract without an owner, thereby removing any functionality that is only available to the owner."
      },
      "safeBatchTransferFrom(address,address,uint256[],uint256[],bytes)": {
        "details": "See {IERC1155-safeBatchTransferFrom}."
      },
      "safeTransferFrom(address,address,uint256,uint256,bytes)": {
        "details": "See {IERC1155-safeTransferFrom}."
      },
      "setApprovalForAll(address,bool)": {
        "details": "See {IERC1155-setApprovalForAll}."
      },
      "supportsInterface(bytes4)": {
        "details": "See {IERC165-supportsInterface}."
      },
      "transferOwnership(address)": {
        "details": "Transfers ownership of the contract to a new account (`newOwner`). Can only be called by the current owner."
      },
      "uri(uint256)": {
        "details": "See {IERC1155MetadataURI-uri}. This implementation returns the same URI for *all* token types. It relies on the token type ID substitution mechanism https://eips.ethereum.org/EIPS/eip-1155#metadata[defined in the EIP]. Clients calling this function must replace the `\\{id\\}` substring with the actual token type ID."
      }
    },
    "title": "BadgeME BadgeME - Extending PolygonME with Badges",
    "version": 1
  },
  "userdoc": {
    "kind": "user",
    "methods": {
      "creatorOfEvent(uint256)": {
        "notice": "Function to get the creator of a specific event"
      },
      "fixME(address)": {
        "notice": "Admin functions to fix base address if needed"
      },
      "getAddress(string)": {
        "notice": "Internal function to return the tokenId for a specific name"
      },
      "hasBadge(string,uint256)": {
        "notice": "Function to get the balance of a specific event for required name"
      }
    },
    "version": 1
  }
}