{
  "contractName": "BadgeME",
  "abi": [
    {
      "inputs": [
        {
          "internalType": "address",
          "name": "PolygonME",
          "type": "address"
        }
      ],
      "stateMutability": "nonpayable",
      "type": "constructor"
    },
    {
      "anonymous": false,
      "inputs": [
        {
          "indexed": true,
          "internalType": "address",
          "name": "account",
          "type": "address"
        },
        {
          "indexed": true,
          "internalType": "address",
          "name": "operator",
          "type": "address"
        },
        {
          "indexed": false,
          "internalType": "bool",
          "name": "approved",
          "type": "bool"
        }
      ],
      "name": "ApprovalForAll",
      "type": "event"
    },
    {
      "anonymous": false,
      "inputs": [
        {
          "indexed": true,
          "internalType": "address",
          "name": "previousOwner",
          "type": "address"
        },
        {
          "indexed": true,
          "internalType": "address",
          "name": "newOwner",
          "type": "address"
        }
      ],
      "name": "OwnershipTransferred",
      "type": "event"
    },
    {
      "anonymous": false,
      "inputs": [
        {
          "indexed": true,
          "internalType": "address",
          "name": "operator",
          "type": "address"
        },
        {
          "indexed": true,
          "internalType": "address",
          "name": "from",
          "type": "address"
        },
        {
          "indexed": true,
          "internalType": "address",
          "name": "to",
          "type": "address"
        },
        {
          "indexed": false,
          "internalType": "uint256[]",
          "name": "ids",
          "type": "uint256[]"
        },
        {
          "indexed": false,
          "internalType": "uint256[]",
          "name": "values",
          "type": "uint256[]"
        }
      ],
      "name": "TransferBatch",
      "type": "event"
    },
    {
      "anonymous": false,
      "inputs": [
        {
          "indexed": true,
          "internalType": "address",
          "name": "operator",
          "type": "address"
        },
        {
          "indexed": true,
          "internalType": "address",
          "name": "from",
          "type": "address"
        },
        {
          "indexed": true,
          "internalType": "address",
          "name": "to",
          "type": "address"
        },
        {
          "indexed": false,
          "internalType": "uint256",
          "name": "id",
          "type": "uint256"
        },
        {
          "indexed": false,
          "internalType": "uint256",
          "name": "value",
          "type": "uint256"
        }
      ],
      "name": "TransferSingle",
      "type": "event"
    },
    {
      "anonymous": false,
      "inputs": [
        {
          "indexed": false,
          "internalType": "string",
          "name": "value",
          "type": "string"
        },
        {
          "indexed": true,
          "internalType": "uint256",
          "name": "id",
          "type": "uint256"
        }
      ],
      "name": "URI",
      "type": "event"
    },
    {
      "inputs": [
        {
          "internalType": "address",
          "name": "",
          "type": "address"
        },
        {
          "internalType": "uint256",
          "name": "",
          "type": "uint256"
        }
      ],
      "name": "_created",
      "outputs": [
        {
          "internalType": "uint256",
          "name": "",
          "type": "uint256"
        }
      ],
      "stateMutability": "view",
      "type": "function",
      "constant": true
    },
    {
      "inputs": [
        {
          "internalType": "uint256",
          "name": "",
          "type": "uint256"
        }
      ],
      "name": "_creators",
      "outputs": [
        {
          "internalType": "address",
          "name": "",
          "type": "address"
        }
      ],
      "stateMutability": "view",
      "type": "function",
      "constant": true
    },
    {
      "inputs": [
        {
          "internalType": "uint256",
          "name": "",
          "type": "uint256"
        }
      ],
      "name": "_idToEventMetadata",
      "outputs": [
        {
          "internalType": "string",
          "name": "",
          "type": "string"
        }
      ],
      "stateMutability": "view",
      "type": "function",
      "constant": true
    },
    {
      "inputs": [
        {
          "internalType": "string",
          "name": "",
          "type": "string"
        }
      ],
      "name": "_metadataToEventId",
      "outputs": [
        {
          "internalType": "uint256",
          "name": "",
          "type": "uint256"
        }
      ],
      "stateMutability": "view",
      "type": "function",
      "constant": true
    },
    {
      "inputs": [
        {
          "internalType": "address",
          "name": "",
          "type": "address"
        },
        {
          "internalType": "uint256",
          "name": "",
          "type": "uint256"
        }
      ],
      "name": "_received",
      "outputs": [
        {
          "internalType": "uint256",
          "name": "",
          "type": "uint256"
        }
      ],
      "stateMutability": "view",
      "type": "function",
      "constant": true
    },
    {
      "inputs": [
        {
          "internalType": "address",
          "name": "account",
          "type": "address"
        },
        {
          "internalType": "uint256",
          "name": "id",
          "type": "uint256"
        }
      ],
      "name": "balanceOf",
      "outputs": [
        {
          "internalType": "uint256",
          "name": "",
          "type": "uint256"
        }
      ],
      "stateMutability": "view",
      "type": "function",
      "constant": true
    },
    {
      "inputs": [
        {
          "internalType": "address[]",
          "name": "accounts",
          "type": "address[]"
        },
        {
          "internalType": "uint256[]",
          "name": "ids",
          "type": "uint256[]"
        }
      ],
      "name": "balanceOfBatch",
      "outputs": [
        {
          "internalType": "uint256[]",
          "name": "",
          "type": "uint256[]"
        }
      ],
      "stateMutability": "view",
      "type": "function",
      "constant": true
    },
    {
      "inputs": [
        {
          "internalType": "address",
          "name": "account",
          "type": "address"
        },
        {
          "internalType": "address",
          "name": "operator",
          "type": "address"
        }
      ],
      "name": "isApprovedForAll",
      "outputs": [
        {
          "internalType": "bool",
          "name": "",
          "type": "bool"
        }
      ],
      "stateMutability": "view",
      "type": "function",
      "constant": true
    },
    {
      "inputs": [],
      "name": "owner",
      "outputs": [
        {
          "internalType": "address",
          "name": "",
          "type": "address"
        }
      ],
      "stateMutability": "view",
      "type": "function",
      "constant": true
    },
    {
      "inputs": [],
      "name": "renounceOwnership",
      "outputs": [],
      "stateMutability": "nonpayable",
      "type": "function"
    },
    {
      "inputs": [
        {
          "internalType": "address",
          "name": "operator",
          "type": "address"
        },
        {
          "internalType": "bool",
          "name": "approved",
          "type": "bool"
        }
      ],
      "name": "setApprovalForAll",
      "outputs": [],
      "stateMutability": "nonpayable",
      "type": "function"
    },
    {
      "inputs": [
        {
          "internalType": "bytes4",
          "name": "interfaceId",
          "type": "bytes4"
        }
      ],
      "name": "supportsInterface",
      "outputs": [
        {
          "internalType": "bool",
          "name": "",
          "type": "bool"
        }
      ],
      "stateMutability": "view",
      "type": "function",
      "constant": true
    },
    {
      "inputs": [
        {
          "internalType": "address",
          "name": "newOwner",
          "type": "address"
        }
      ],
      "name": "transferOwnership",
      "outputs": [],
      "stateMutability": "nonpayable",
      "type": "function"
    },
    {
      "inputs": [
        {
          "internalType": "uint256",
          "name": "",
          "type": "uint256"
        }
      ],
      "name": "uri",
      "outputs": [
        {
          "internalType": "string",
          "name": "",
          "type": "string"
        }
      ],
      "stateMutability": "view",
      "type": "function",
      "constant": true
    },
    {
      "inputs": [
        {
          "internalType": "address",
          "name": "PolygonME",
          "type": "address"
        }
      ],
      "name": "fixME",
      "outputs": [],
      "stateMutability": "nonpayable",
      "type": "function"
    },
    {
      "inputs": [
        {
          "internalType": "string",
          "name": "newuri",
          "type": "string"
        }
      ],
      "name": "setURI",
      "outputs": [],
      "stateMutability": "nonpayable",
      "type": "function"
    },
    {
      "inputs": [
        {
          "internalType": "string",
          "name": "_name",
          "type": "string"
        }
      ],
      "name": "getAddress",
      "outputs": [
        {
          "internalType": "address",
          "name": "",
          "type": "address"
        }
      ],
      "stateMutability": "view",
      "type": "function",
      "constant": true
    },
    {
      "inputs": [
        {
          "internalType": "uint256",
          "name": "start_timestamp",
          "type": "uint256"
        },
        {
          "internalType": "uint256",
          "name": "end_timestamp",
          "type": "uint256"
        },
        {
          "internalType": "string",
          "name": "metadata",
          "type": "string"
        }
      ],
      "name": "prepare",
      "outputs": [
        {
          "internalType": "uint256",
          "name": "",
          "type": "uint256"
        }
      ],
      "stateMutability": "nonpayable",
      "type": "function"
    },
    {
      "inputs": [
        {
          "internalType": "address",
          "name": "_creator",
          "type": "address"
        }
      ],
      "name": "created",
      "outputs": [
        {
          "internalType": "uint256[]",
          "name": "createdTokens",
          "type": "uint256[]"
        }
      ],
      "stateMutability": "view",
      "type": "function",
      "constant": true
    },
    {
      "inputs": [
        {
          "internalType": "address",
          "name": "_receiver",
          "type": "address"
        }
      ],
      "name": "received",
      "outputs": [
        {
          "internalType": "uint256[]",
          "name": "receivedTokens",
          "type": "uint256[]"
        }
      ],
      "stateMutability": "view",
      "type": "function",
      "constant": true
    },
    {
      "inputs": [
        {
          "internalType": "uint256",
          "name": "id",
          "type": "uint256"
        }
      ],
      "name": "tokenCID",
      "outputs": [
        {
          "internalType": "string",
          "name": "",
          "type": "string"
        }
      ],
      "stateMutability": "view",
      "type": "function",
      "constant": true
    },
    {
      "inputs": [
        {
          "internalType": "uint256",
          "name": "id",
          "type": "uint256"
        },
        {
          "internalType": "uint256",
          "name": "amount",
          "type": "uint256"
        }
      ],
      "name": "mint",
      "outputs": [],
      "stateMutability": "nonpayable",
      "type": "function"
    },
    {
      "inputs": [
        {
          "internalType": "uint256",
          "name": "id",
          "type": "uint256"
        },
        {
          "internalType": "string",
          "name": "name",
          "type": "string"
        }
      ],
      "name": "claim",
      "outputs": [],
      "stateMutability": "nonpayable",
      "type": "function"
    },
    {
      "inputs": [
        {
          "internalType": "uint256",
          "name": "id",
          "type": "uint256"
        },
        {
          "internalType": "address[]",
          "name": "addresses",
          "type": "address[]"
        },
        {
          "internalType": "bool",
          "name": "state",
          "type": "bool"
        },
        {
          "internalType": "uint256",
          "name": "list",
          "type": "uint256"
        }
      ],
      "name": "manageAddressWhitelist",
      "outputs": [],
      "stateMutability": "nonpayable",
      "type": "function"
    },
    {
      "inputs": [
        {
          "internalType": "uint256",
          "name": "id",
          "type": "uint256"
        },
        {
          "internalType": "string[]",
          "name": "names",
          "type": "string[]"
        },
        {
          "internalType": "bool",
          "name": "state",
          "type": "bool"
        },
        {
          "internalType": "uint256",
          "name": "list",
          "type": "uint256"
        }
      ],
      "name": "manageNameWhitelist",
      "outputs": [],
      "stateMutability": "nonpayable",
      "type": "function"
    },
    {
      "inputs": [
        {
          "internalType": "uint256",
          "name": "tknId",
          "type": "uint256"
        }
      ],
      "name": "creatorOfEvent",
      "outputs": [
        {
          "internalType": "address",
          "name": "",
          "type": "address"
        }
      ],
      "stateMutability": "view",
      "type": "function",
      "constant": true
    },
    {
      "inputs": [
        {
          "internalType": "uint256",
          "name": "id",
          "type": "uint256"
        },
        {
          "internalType": "address",
          "name": "who",
          "type": "address"
        }
      ],
      "name": "isInAddressWhitelist",
      "outputs": [
        {
          "internalType": "bool",
          "name": "",
          "type": "bool"
        }
      ],
      "stateMutability": "view",
      "type": "function",
      "constant": true
    },
    {
      "inputs": [
        {
          "internalType": "uint256",
          "name": "name",
          "type": "uint256"
        },
        {
          "internalType": "string",
          "name": "who",
          "type": "string"
        }
      ],
      "name": "isInNameWhitelist",
      "outputs": [
        {
          "internalType": "bool",
          "name": "",
          "type": "bool"
        }
      ],
      "stateMutability": "view",
      "type": "function",
      "constant": true
    },
    {
      "inputs": [
        {
          "internalType": "uint256",
          "name": "id",
          "type": "uint256"
        },
        {
          "internalType": "address",
          "name": "who",
          "type": "address"
        }
      ],
      "name": "isInAddressBlacklist",
      "outputs": [
        {
          "internalType": "bool",
          "name": "",
          "type": "bool"
        }
      ],
      "stateMutability": "view",
      "type": "function",
      "constant": true
    },
    {
      "inputs": [
        {
          "internalType": "uint256",
          "name": "name",
          "type": "uint256"
        },
        {
          "internalType": "string",
          "name": "who",
          "type": "string"
        }
      ],
      "name": "isInNameBlacklist",
      "outputs": [
        {
          "internalType": "bool",
          "name": "",
          "type": "bool"
        }
      ],
      "stateMutability": "view",
      "type": "function",
      "constant": true
    },
    {
      "inputs": [
        {
          "internalType": "string",
          "name": "name",
          "type": "string"
        },
        {
          "internalType": "uint256",
          "name": "id",
          "type": "uint256"
        }
      ],
      "name": "hasBadge",
      "outputs": [
        {
          "internalType": "bool",
          "name": "",
          "type": "bool"
        }
      ],
      "stateMutability": "view",
      "type": "function",
      "constant": true
    },
    {
      "inputs": [
        {
          "internalType": "address",
          "name": "to",
          "type": "address"
        },
        {
          "internalType": "string",
          "name": "name",
          "type": "string"
        },
        {
          "internalType": "uint256",
          "name": "id",
          "type": "uint256"
        }
      ],
      "name": "transferBadge",
      "outputs": [],
      "stateMutability": "nonpayable",
      "type": "function"
    },
    {
      "inputs": [
        {
          "internalType": "address",
          "name": "from",
          "type": "address"
        },
        {
          "internalType": "address",
          "name": "to",
          "type": "address"
        },
        {
          "internalType": "uint256",
          "name": "id",
          "type": "uint256"
        },
        {
          "internalType": "uint256",
          "name": "amount",
          "type": "uint256"
        },
        {
          "internalType": "bytes",
          "name": "data",
          "type": "bytes"
        }
      ],
      "name": "safeTransferFrom",
      "outputs": [],
      "stateMutability": "pure",
      "type": "function",
      "constant": true
    },
    {
      "inputs": [
        {
          "internalType": "address",
          "name": "from",
          "type": "address"
        },
        {
          "internalType": "address",
          "name": "to",
          "type": "address"
        },
        {
          "internalType": "uint256[]",
          "name": "ids",
          "type": "uint256[]"
        },
        {
          "internalType": "uint256[]",
          "name": "amounts",
          "type": "uint256[]"
        },
        {
          "internalType": "bytes",
          "name": "data",
          "type": "bytes"
        }
      ],
      "name": "safeBatchTransferFrom",
      "outputs": [],
      "stateMutability": "pure",
      "type": "function",
      "constant": true
    }
  ],
  "bytecode": "0x608060405260006012553480156200001657600080fd5b5060405162005cab38038062005cab83398181016040528101906200003c919062000306565b60405180606001604052806026815260200162005c856026913962000067816200010260201b60201c565b50620000886200007c6200011e60201b60201c565b6200012660201b60201c565b80600460006101000a81548173ffffffffffffffffffffffffffffffffffffffff021916908373ffffffffffffffffffffffffffffffffffffffff16021790555060405180606001604052806026815260200162005c856026913960059080519060200190620000fa929190620001ec565b50506200039d565b80600290805190602001906200011a929190620001ec565b5050565b600033905090565b6000600360009054906101000a900473ffffffffffffffffffffffffffffffffffffffff16905081600360006101000a81548173ffffffffffffffffffffffffffffffffffffffff021916908373ffffffffffffffffffffffffffffffffffffffff1602179055508173ffffffffffffffffffffffffffffffffffffffff168173ffffffffffffffffffffffffffffffffffffffff167f8be0079c531659141344cd1fd0a4f28419497f9722a3daafe3b4186f6b6457e060405160405180910390a35050565b828054620001fa9062000367565b90600052602060002090601f0160209004810192826200021e57600085556200026a565b82601f106200023957805160ff19168380011785556200026a565b828001600101855582156200026a579182015b82811115620002695782518255916020019190600101906200024c565b5b5090506200027991906200027d565b5090565b5b80821115620002985760008160009055506001016200027e565b5090565b600080fd5b600073ffffffffffffffffffffffffffffffffffffffff82169050919050565b6000620002ce82620002a1565b9050919050565b620002e081620002c1565b8114620002ec57600080fd5b50565b6000815190506200030081620002d5565b92915050565b6000602082840312156200031f576200031e6200029c565b5b60006200032f84828501620002ef565b91505092915050565b7f4e487b7100000000000000000000000000000000000000000000000000000000600052602260045260246000fd5b600060028204905060018216806200038057607f821691505b6020821081141562000397576200039662000338565b5b50919050565b6158d880620003ad6000396000f3fe608060405234801561001057600080fd5b50600436106102055760003560e01c80636972fbb81161011a578063a855257e116100ad578063df0cb9341161007c578063df0cb9341461068e578063dfc0740b146106be578063e985e9c5146106ee578063f242432a1461071e578063f2fde38b1461073a57610205565b8063a855257e146105f6578063bf40fac114610612578063cddb1c5d14610642578063d42efd831461065e57610205565b8063796153f7116100e9578063796153f71461055c5780638da5cb5b1461058c578063988c7612146105aa578063a22cb465146105da57610205565b80636972fbb8146104c257806370828636146104f2578063715018a61461052257806376852b121461052c57610205565b8063268b15ed1161019d57806344653a371161016c57806344653a37146103d25780634816edf4146104025780634e1273f414610432578063576096b8146104625780635ce2147f1461049257610205565b8063268b15ed1461033a57806327c3a225146103565780632eb2c2d61461038657806332bce83e146103a257610205565b806308d0fcdc116101d957806308d0fcdc146102a25780630e89341c146102d25780631b2ef1ca1461030257806324f98f6f1461031e57610205565b8062fdd58e1461020a57806301ffc9a71461023a57806302d41e711461026a57806302fe530514610286575b600080fd5b610224600480360381019061021f91906135dc565b610756565b604051610231919061362b565b60405180910390f35b610254600480360381019061024f919061369e565b61081f565b60405161026191906136e6565b60405180910390f35b610284600480360381019061027f9190613847565b610901565b005b6102a0600480360381019061029b91906138b6565b610dab565b005b6102bc60048036038101906102b791906138ff565b610e4a565b6040516102c9919061393b565b60405180910390f35b6102ec60048036038101906102e791906138ff565b610e87565b6040516102f991906139de565b60405180910390f35b61031c60048036038101906103179190613a00565b610f1b565b005b61033860048036038101906103339190613a40565b611086565b005b610354600480360381019061034f9190613a6d565b611146565b005b610370600480360381019061036b9190613ac9565b6115f8565b60405161037d91906136e6565b60405180910390f35b6103a0600480360381019061039b9190613c8e565b6116b6565b005b6103bc60048036038101906103b79190613a6d565b611701565b6040516103c991906136e6565b60405180910390f35b6103ec60048036038101906103e791906135dc565b611748565b6040516103f9919061362b565b60405180910390f35b61041c600480360381019061041791906138ff565b611779565b604051610429919061393b565b60405180910390f35b61044c60048036038101906104479190613e20565b6117ac565b6040516104599190613f56565b60405180910390f35b61047c60048036038101906104779190613f78565b6118c5565b60405161048991906136e6565b60405180910390f35b6104ac60048036038101906104a79190613fb8565b61192d565b6040516104b9919061362b565b60405180910390f35b6104dc60048036038101906104d791906138ff565b611bcc565b6040516104e991906139de565b60405180910390f35b61050c600480360381019061050791906138ff565b611c71565b60405161051991906139de565b60405180910390f35b61052a611d11565b005b61054660048036038101906105419190613a6d565b611d99565b60405161055391906136e6565b60405180910390f35b610576600480360381019061057191906138b6565b611de0565b604051610583919061362b565b60405180910390f35b610594611e0e565b6040516105a1919061393b565b60405180910390f35b6105c460048036038101906105bf9190613f78565b611e38565b6040516105d191906136e6565b60405180910390f35b6105f460048036038101906105ef9190614053565b611ea0565b005b610610600480360381019061060b9190614093565b612021565b005b61062c600480360381019061062791906138b6565b6122c6565b604051610639919061393b565b60405180910390f35b61065c600480360381019061065791906141f7565b612504565b005b61067860048036038101906106739190613a40565b612767565b6040516106859190613f56565b60405180910390f35b6106a860048036038101906106a39190613a40565b6127fe565b6040516106b59190613f56565b60405180910390f35b6106d860048036038101906106d391906135dc565b612895565b6040516106e5919061362b565b60405180910390f35b6107086004803603810190610703919061427a565b6128c6565b60405161071591906136e6565b60405180910390f35b610738600480360381019061073391906142ba565b61295a565b005b610754600480360381019061074f9190613a40565b6129a5565b005b60008073ffffffffffffffffffffffffffffffffffffffff168373ffffffffffffffffffffffffffffffffffffffff1614156107c7576040517f08c379a00000000000000000000000000000000000000000000000000000000081526004016107be906143c3565b60405180910390fd5b60008083815260200190815260200160002060008473ffffffffffffffffffffffffffffffffffffffff1673ffffffffffffffffffffffffffffffffffffffff16815260200190815260200160002054905092915050565b60007fd9b67a26000000000000000000000000000000000000000000000000000000007bffffffffffffffffffffffffffffffffffffffffffffffffffffffff1916827bffffffffffffffffffffffffffffffffffffffffffffffffffffffff191614806108ea57507f0e89341c000000000000000000000000000000000000000000000000000000007bffffffffffffffffffffffffffffffffffffffffffffffffffffffff1916827bffffffffffffffffffffffffffffffffffffffffffffffffffffffff1916145b806108fa57506108f982612a9d565b5b9050919050565b3373ffffffffffffffffffffffffffffffffffffffff1661092182610e4a565b73ffffffffffffffffffffffffffffffffffffffff1614610977576040517f08c379a000000000000000000000000000000000000000000000000000000000815260040161096e90614455565b60405180910390fd5b600073ffffffffffffffffffffffffffffffffffffffff168373ffffffffffffffffffffffffffffffffffffffff161415806109b4575060008251115b6109f3576040517f08c379a00000000000000000000000000000000000000000000000000000000081526004016109ea906144e7565b60405180910390fd5b60006109ff3383610756565b11610a3f576040517f08c379a0000000000000000000000000000000000000000000000000000000008152600401610a3690614553565b60405180910390fd5b600c600082815260200190815260200160002054421015610a95576040517f08c379a0000000000000000000000000000000000000000000000000000000008152600401610a8c906145e5565b60405180910390fd5b600b6000828152602001908152602001600020544210610ace576000610abb3383610756565b9050610ac8338383612b07565b50610da6565b600082511115610c3257610ae1826122c6565b925060001515600d83604051610af79190614641565b9081526020016040518091039020600083815260200190815260200160002060009054906101000a900460ff16151514610b66576040517f08c379a0000000000000000000000000000000000000000000000000000000008152600401610b5d906146a4565b60405180910390fd5b600015156011600083815260200190815260200160002083604051610b8b9190614641565b908152602001604051809103902060009054906101000a900460ff16151514610be9576040517f08c379a0000000000000000000000000000000000000000000000000000000008152600401610be090614710565b60405180910390fd5b6001600d83604051610bfb9190614641565b9081526020016040518091039020600083815260200190815260200160002060006101000a81548160ff0219169083151502179055505b6000610c3e8483610756565b14610c7e576040517f08c379a0000000000000000000000000000000000000000000000000000000008152600401610c75906147a2565b60405180910390fd5b60001515600f600083815260200190815260200160002060008573ffffffffffffffffffffffffffffffffffffffff1673ffffffffffffffffffffffffffffffffffffffff16815260200190815260200160002060009054906101000a900460ff16151514610d22576040517f08c379a0000000000000000000000000000000000000000000000000000000008152600401610d199061480e565b60405180910390fd5b600a60008473ffffffffffffffffffffffffffffffffffffffff1673ffffffffffffffffffffffffffffffffffffffff168152602001908152602001600020819080600181540180825580915050600190039060005260206000200160009091909190915055610da5338483600160405180602001604052806000815250612d24565b5b505050565b610db3612fa6565b73ffffffffffffffffffffffffffffffffffffffff16610dd1611e0e565b73ffffffffffffffffffffffffffffffffffffffff1614610e27576040517f08c379a0000000000000000000000000000000000000000000000000000000008152600401610e1e9061487a565b60405180910390fd5b8060059080519060200190610e3d929190613491565b50610e4781612fae565b50565b60006008600083815260200190815260200160002060009054906101000a900473ffffffffffffffffffffffffffffffffffffffff169050919050565b606060028054610e96906148c9565b80601f0160208091040260200160405190810160405280929190818152602001828054610ec2906148c9565b8015610f0f5780601f10610ee457610100808354040283529160200191610f0f565b820191906000526020600020905b815481529060010190602001808311610ef257829003601f168201915b50505050509050919050565b6000600c60008481526020019081526020016000205411610f71576040517f08c379a0000000000000000000000000000000000000000000000000000000008152600401610f689061496d565b60405180910390fd5b3373ffffffffffffffffffffffffffffffffffffffff166008600084815260200190815260200160002060009054906101000a900473ffffffffffffffffffffffffffffffffffffffff1673ffffffffffffffffffffffffffffffffffffffff1614611012576040517f08c379a0000000000000000000000000000000000000000000000000000000008152600401611009906149ff565b60405180910390fd5b600b6000838152602001908152602001600020544210611067576040517f08c379a000000000000000000000000000000000000000000000000000000000815260040161105e90614a91565b60405180910390fd5b61108233838360405180602001604052806000815250612fc8565b5050565b61108e612fa6565b73ffffffffffffffffffffffffffffffffffffffff166110ac611e0e565b73ffffffffffffffffffffffffffffffffffffffff1614611102576040517f08c379a00000000000000000000000000000000000000000000000000000000081526004016110f99061487a565b60405180910390fd5b80600460006101000a81548173ffffffffffffffffffffffffffffffffffffffff021916908373ffffffffffffffffffffffffffffffffffffffff16021790555050565b6000600c6000848152602001908152602001600020541161119c576040517f08c379a00000000000000000000000000000000000000000000000000000000081526004016111939061496d565b60405180910390fd5b600b60008381526020019081526020016000205442106111f1576040517f08c379a00000000000000000000000000000000000000000000000000000000081526004016111e890614b23565b60405180910390fd5b60003390506000825111156113dd57611209826122c6565b905060001515600d8360405161121f9190614641565b9081526020016040518091039020600085815260200190815260200160002060009054906101000a900460ff1615151461128e576040517f08c379a0000000000000000000000000000000000000000000000000000000008152600401611285906146a4565b60405180910390fd5b6000151560116000858152602001908152602001600020836040516112b39190614641565b908152602001604051809103902060009054906101000a900460ff16151514611311576040517f08c379a000000000000000000000000000000000000000000000000000000000815260040161130890614710565b60405180910390fd5b6001151560106000858152602001908152602001600020836040516113369190614641565b908152602001604051809103902060009054906101000a900460ff16151514611394576040517f08c379a000000000000000000000000000000000000000000000000000000000815260040161138b90614710565b60405180910390fd5b6001600d836040516113a69190614641565b9081526020016040518091039020600085815260200190815260200160002060006101000a81548160ff0219169083151502179055505b60006113e98285610756565b14611429576040517f08c379a0000000000000000000000000000000000000000000000000000000008152600401611420906147a2565b60405180910390fd5b60001515600f600085815260200190815260200160002060008373ffffffffffffffffffffffffffffffffffffffff1673ffffffffffffffffffffffffffffffffffffffff16815260200190815260200160002060009054906101000a900460ff161515146114cd576040517f08c379a00000000000000000000000000000000000000000000000000000000081526004016114c49061480e565b60405180910390fd5b60011515600e600085815260200190815260200160002060008373ffffffffffffffffffffffffffffffffffffffff1673ffffffffffffffffffffffffffffffffffffffff16815260200190815260200160002060009054906101000a900460ff16151514611571576040517f08c379a00000000000000000000000000000000000000000000000000000000081526004016115689061480e565b60405180910390fd5b600a60008273ffffffffffffffffffffffffffffffffffffffff1673ffffffffffffffffffffffffffffffffffffffff1681526020019081526020016000208390806001815401808255809150506001900390600052602060002001600090919091909150556115f38184600160405180602001604052806000815250612fc8565b505050565b60008073ffffffffffffffffffffffffffffffffffffffff1661161a846122c6565b73ffffffffffffffffffffffffffffffffffffffff161415611671576040517f08c379a000000000000000000000000000000000000000000000000000000000815260040161166890614b8f565b60405180910390fd5b600d836040516116819190614641565b9081526020016040518091039020600083815260200190815260200160002060009054906101000a900460ff16905092915050565b60006001106116fa576040517f08c379a00000000000000000000000000000000000000000000000000000000081526004016116f190614c21565b60405180910390fd5b5050505050565b600060106000848152602001908152602001600020826040516117249190614641565b908152602001604051809103902060009054906101000a900460ff16905092915050565b600a602052816000526040600020818154811061176457600080fd5b90600052602060002001600091509150505481565b60086020528060005260406000206000915054906101000a900473ffffffffffffffffffffffffffffffffffffffff1681565b606081518351146117f2576040517f08c379a00000000000000000000000000000000000000000000000000000000081526004016117e990614cb3565b60405180910390fd5b6000835167ffffffffffffffff81111561180f5761180e61371c565b5b60405190808252806020026020018201604052801561183d5781602001602082028036833780820191505090505b50905060005b84518110156118ba5761188a85828151811061186257611861614cd3565b5b602002602001015185838151811061187d5761187c614cd3565b5b6020026020010151610756565b82828151811061189d5761189c614cd3565b5b602002602001018181525050806118b390614d31565b9050611843565b508091505092915050565b6000600e600084815260200190815260200160002060008373ffffffffffffffffffffffffffffffffffffffff1673ffffffffffffffffffffffffffffffffffffffff16815260200190815260200160002060009054906101000a900460ff16905092915050565b6000834210611971576040517f08c379a000000000000000000000000000000000000000000000000000000000815260040161196890614dec565b60405180910390fd5b60006007836040516119839190614641565b908152602001604051809103902054146119d2576040517f08c379a00000000000000000000000000000000000000000000000000000000081526004016119c990614e7e565b60405180910390fd5b6000601254336001436119e59190614e9e565b406040516020016119f893929190614f66565b6040516020818303038152906040528051906020012060001c90505b6000600c6000838152602001908152602001600020541115611a8e57600160126000828254611a439190614fa3565b9250508190555060125433600143611a5b9190614e9e565b40604051602001611a6e93929190614f66565b6040516020818303038152906040528051906020012060001c9050611a14565b82600660008381526020019081526020016000209080519060200190611ab5929190613491565b5080600784604051611ac79190614641565b90815260200160405180910390208190555084600c60008381526020019081526020016000208190555083600b600083815260200190815260200160002081905550336008600083815260200190815260200160002060006101000a81548173ffffffffffffffffffffffffffffffffffffffff021916908373ffffffffffffffffffffffffffffffffffffffff160217905550600960003373ffffffffffffffffffffffffffffffffffffffff1673ffffffffffffffffffffffffffffffffffffffff168152602001908152602001600020819080600181540180825580915050600190039060005260206000200160009091909190915055809150509392505050565b6060600660008381526020019081526020016000208054611bec906148c9565b80601f0160208091040260200160405190810160405280929190818152602001828054611c18906148c9565b8015611c655780601f10611c3a57610100808354040283529160200191611c65565b820191906000526020600020905b815481529060010190602001808311611c4857829003601f168201915b50505050509050919050565b60066020528060005260406000206000915090508054611c90906148c9565b80601f0160208091040260200160405190810160405280929190818152602001828054611cbc906148c9565b8015611d095780601f10611cde57610100808354040283529160200191611d09565b820191906000526020600020905b815481529060010190602001808311611cec57829003601f168201915b505050505081565b611d19612fa6565b73ffffffffffffffffffffffffffffffffffffffff16611d37611e0e565b73ffffffffffffffffffffffffffffffffffffffff1614611d8d576040517f08c379a0000000000000000000000000000000000000000000000000000000008152600401611d849061487a565b60405180910390fd5b611d97600061315e565b565b60006011600084815260200190815260200160002082604051611dbc9190614641565b908152602001604051809103902060009054906101000a900460ff16905092915050565b6007818051602081018201805184825260208301602085012081835280955050505050506000915090505481565b6000600360009054906101000a900473ffffffffffffffffffffffffffffffffffffffff16905090565b6000600f600084815260200190815260200160002060008373ffffffffffffffffffffffffffffffffffffffff1673ffffffffffffffffffffffffffffffffffffffff16815260200190815260200160002060009054906101000a900460ff16905092915050565b8173ffffffffffffffffffffffffffffffffffffffff16611ebf612fa6565b73ffffffffffffffffffffffffffffffffffffffff161415611f16576040517f08c379a0000000000000000000000000000000000000000000000000000000008152600401611f0d9061506b565b60405180910390fd5b8060016000611f23612fa6565b73ffffffffffffffffffffffffffffffffffffffff1673ffffffffffffffffffffffffffffffffffffffff16815260200190815260200160002060008473ffffffffffffffffffffffffffffffffffffffff1673ffffffffffffffffffffffffffffffffffffffff16815260200190815260200160002060006101000a81548160ff0219169083151502179055508173ffffffffffffffffffffffffffffffffffffffff16611fd0612fa6565b73ffffffffffffffffffffffffffffffffffffffff167f17307eab39ab6107e8899845ad3d59bd9653f200f220920489ca2b5937696c318360405161201591906136e6565b60405180910390a35050565b3373ffffffffffffffffffffffffffffffffffffffff166008600086815260200190815260200160002060009054906101000a900473ffffffffffffffffffffffffffffffffffffffff1673ffffffffffffffffffffffffffffffffffffffff16146120c2576040517f08c379a00000000000000000000000000000000000000000000000000000000081526004016120b9906150fd565b60405180910390fd5b6000600c60008681526020019081526020016000205411612118576040517f08c379a000000000000000000000000000000000000000000000000000000000815260040161210f9061496d565b60405180910390fd5b600b600085815260200190815260200160002054421061216d576040517f08c379a00000000000000000000000000000000000000000000000000000000081526004016121649061518f565b60405180910390fd5b600081141561221d5760005b83518110156122175782600e600087815260200190815260200160002060008684815181106121ab576121aa614cd3565b5b602002602001015173ffffffffffffffffffffffffffffffffffffffff1673ffffffffffffffffffffffffffffffffffffffff16815260200190815260200160002060006101000a81548160ff021916908315150217905550808061220f90614d31565b915050612179565b506122c0565b60005b83518110156122be5782600f6000878152602001908152602001600020600086848151811061225257612251614cd3565b5b602002602001015173ffffffffffffffffffffffffffffffffffffffff1673ffffffffffffffffffffffffffffffffffffffff16815260200190815260200160002060006101000a81548160ff02191690831515021790555080806122b690614d31565b915050612220565b505b50505050565b600080600460009054906101000a900473ffffffffffffffffffffffffffffffffffffffff1673ffffffffffffffffffffffffffffffffffffffff1663a47cf974846040518263ffffffff1660e01b815260040161232491906139de565b602060405180830381865afa158015612341573d6000803e3d6000fd5b505050506040513d601f19601f8201168201806040525081019061236591906151c4565b905060008111156124f9576000600460009054906101000a900473ffffffffffffffffffffffffffffffffffffffff1673ffffffffffffffffffffffffffffffffffffffff16639a65ddec856040518263ffffffff1660e01b81526004016123cd91906139de565b602060405180830381865afa1580156123ea573d6000803e3d6000fd5b505050506040513d601f19601f8201168201806040525081019061240e9190615206565b9050600073ffffffffffffffffffffffffffffffffffffffff168173ffffffffffffffffffffffffffffffffffffffff161461244e5780925050506124ff565b6000600460009054906101000a900473ffffffffffffffffffffffffffffffffffffffff1673ffffffffffffffffffffffffffffffffffffffff16636352211e846040518263ffffffff1660e01b81526004016124ab919061362b565b602060405180830381865afa1580156124c8573d6000803e3d6000fd5b505050506040513d601f19601f820116820180604052508101906124ec9190615206565b90508093505050506124ff565b60009150505b919050565b3373ffffffffffffffffffffffffffffffffffffffff166008600086815260200190815260200160002060009054906101000a900473ffffffffffffffffffffffffffffffffffffffff1673ffffffffffffffffffffffffffffffffffffffff16146125a5576040517f08c379a000000000000000000000000000000000000000000000000000000000815260040161259c906150fd565b60405180910390fd5b6000600c600086815260200190815260200160002054116125fb576040517f08c379a00000000000000000000000000000000000000000000000000000000081526004016125f29061496d565b60405180910390fd5b600b6000858152602001908152602001600020544210612650576040517f08c379a00000000000000000000000000000000000000000000000000000000081526004016126479061518f565b60405180910390fd5b60008114156126df5760005b83518110156126d957826010600087815260200190815260200160002085838151811061268c5761268b614cd3565b5b60200260200101516040516126a19190614641565b908152602001604051809103902060006101000a81548160ff02191690831515021790555080806126d190614d31565b91505061265c565b50612761565b60005b835181101561275f57826011600087815260200190815260200160002085838151811061271257612711614cd3565b5b60200260200101516040516127279190614641565b908152602001604051809103902060006101000a81548160ff021916908315150217905550808061275790614d31565b9150506126e2565b505b50505050565b6060600960008373ffffffffffffffffffffffffffffffffffffffff1673ffffffffffffffffffffffffffffffffffffffff1681526020019081526020016000208054806020026020016040519081016040528092919081815260200182805480156127f257602002820191906000526020600020905b8154815260200190600101908083116127de575b50505050509050919050565b6060600a60008373ffffffffffffffffffffffffffffffffffffffff1673ffffffffffffffffffffffffffffffffffffffff16815260200190815260200160002080548060200260200160405190810160405280929190818152602001828054801561288957602002820191906000526020600020905b815481526020019060010190808311612875575b50505050509050919050565b600960205281600052604060002081815481106128b157600080fd5b90600052602060002001600091509150505481565b6000600160008473ffffffffffffffffffffffffffffffffffffffff1673ffffffffffffffffffffffffffffffffffffffff16815260200190815260200160002060008373ffffffffffffffffffffffffffffffffffffffff1673ffffffffffffffffffffffffffffffffffffffff16815260200190815260200160002060009054906101000a900460ff16905092915050565b600060011061299e576040517f08c379a000000000000000000000000000000000000000000000000000000000815260040161299590614c21565b60405180910390fd5b5050505050565b6129ad612fa6565b73ffffffffffffffffffffffffffffffffffffffff166129cb611e0e565b73ffffffffffffffffffffffffffffffffffffffff1614612a21576040517f08c379a0000000000000000000000000000000000000000000000000000000008152600401612a189061487a565b60405180910390fd5b600073ffffffffffffffffffffffffffffffffffffffff168173ffffffffffffffffffffffffffffffffffffffff161415612a91576040517f08c379a0000000000000000000000000000000000000000000000000000000008152600401612a88906152a5565b60405180910390fd5b612a9a8161315e565b50565b60007f01ffc9a7000000000000000000000000000000000000000000000000000000007bffffffffffffffffffffffffffffffffffffffffffffffffffffffff1916827bffffffffffffffffffffffffffffffffffffffffffffffffffffffff1916149050919050565b600073ffffffffffffffffffffffffffffffffffffffff168373ffffffffffffffffffffffffffffffffffffffff161415612b77576040517f08c379a0000000000000000000000000000000000000000000000000000000008152600401612b6e90615337565b60405180910390fd5b6000612b81612fa6565b9050612bb181856000612b9387613224565b612b9c87613224565b6040518060200160405280600081525061329e565b600080600085815260200190815260200160002060008673ffffffffffffffffffffffffffffffffffffffff1673ffffffffffffffffffffffffffffffffffffffff16815260200190815260200160002054905082811015612c48576040517f08c379a0000000000000000000000000000000000000000000000000000000008152600401612c3f906153c9565b60405180910390fd5b82810360008086815260200190815260200160002060008773ffffffffffffffffffffffffffffffffffffffff1673ffffffffffffffffffffffffffffffffffffffff16815260200190815260200160002081905550600073ffffffffffffffffffffffffffffffffffffffff168573ffffffffffffffffffffffffffffffffffffffff168373ffffffffffffffffffffffffffffffffffffffff167fc3d58168c5ae7397731d063d5bbf3d657854427343f4c083240f7aacaa2d0f628787604051612d159291906153e9565b60405180910390a45050505050565b600073ffffffffffffffffffffffffffffffffffffffff168473ffffffffffffffffffffffffffffffffffffffff161415612d94576040517f08c379a0000000000000000000000000000000000000000000000000000000008152600401612d8b90615484565b60405180910390fd5b6000612d9e612fa6565b9050612dbe818787612daf88613224565b612db888613224565b8761329e565b600080600086815260200190815260200160002060008873ffffffffffffffffffffffffffffffffffffffff1673ffffffffffffffffffffffffffffffffffffffff16815260200190815260200160002054905083811015612e55576040517f08c379a0000000000000000000000000000000000000000000000000000000008152600401612e4c90615516565b60405180910390fd5b83810360008087815260200190815260200160002060008973ffffffffffffffffffffffffffffffffffffffff1673ffffffffffffffffffffffffffffffffffffffff168152602001908152602001600020819055508360008087815260200190815260200160002060008873ffffffffffffffffffffffffffffffffffffffff1673ffffffffffffffffffffffffffffffffffffffff1681526020019081526020016000206000828254612f0a9190614fa3565b925050819055508573ffffffffffffffffffffffffffffffffffffffff168773ffffffffffffffffffffffffffffffffffffffff168373ffffffffffffffffffffffffffffffffffffffff167fc3d58168c5ae7397731d063d5bbf3d657854427343f4c083240f7aacaa2d0f628888604051612f879291906153e9565b60405180910390a4612f9d8288888888886132a6565b50505050505050565b600033905090565b8060029080519060200190612fc4929190613491565b5050565b600073ffffffffffffffffffffffffffffffffffffffff168473ffffffffffffffffffffffffffffffffffffffff161415613038576040517f08c379a000000000000000000000000000000000000000000000000000000000815260040161302f906155a8565b60405180910390fd5b6000613042612fa6565b90506130638160008761305488613224565b61305d88613224565b8761329e565b8260008086815260200190815260200160002060008773ffffffffffffffffffffffffffffffffffffffff1673ffffffffffffffffffffffffffffffffffffffff16815260200190815260200160002060008282546130c29190614fa3565b925050819055508473ffffffffffffffffffffffffffffffffffffffff16600073ffffffffffffffffffffffffffffffffffffffff168273ffffffffffffffffffffffffffffffffffffffff167fc3d58168c5ae7397731d063d5bbf3d657854427343f4c083240f7aacaa2d0f6287876040516131409291906153e9565b60405180910390a4613157816000878787876132a6565b5050505050565b6000600360009054906101000a900473ffffffffffffffffffffffffffffffffffffffff16905081600360006101000a81548173ffffffffffffffffffffffffffffffffffffffff021916908373ffffffffffffffffffffffffffffffffffffffff1602179055508173ffffffffffffffffffffffffffffffffffffffff168173ffffffffffffffffffffffffffffffffffffffff167f8be0079c531659141344cd1fd0a4f28419497f9722a3daafe3b4186f6b6457e060405160405180910390a35050565b60606000600167ffffffffffffffff8111156132435761324261371c565b5b6040519080825280602002602001820160405280156132715781602001602082028036833780820191505090505b509050828160008151811061328957613288614cd3565b5b60200260200101818152505080915050919050565b505050505050565b6132c58473ffffffffffffffffffffffffffffffffffffffff1661347e565b15613476578373ffffffffffffffffffffffffffffffffffffffff1663f23a6e6187878686866040518663ffffffff1660e01b815260040161330b95949392919061561d565b6020604051808303816000875af192505050801561334757506040513d601f19601f82011682018060405250810190613344919061568c565b60015b6133ed576133536156c6565b806308c379a014156133b057506133686156e8565b8061337357506133b2565b806040517f08c379a00000000000000000000000000000000000000000000000000000000081526004016133a791906139de565b60405180910390fd5b505b6040517f08c379a00000000000000000000000000000000000000000000000000000000081526004016133e4906157f0565b60405180910390fd5b63f23a6e6160e01b7bffffffffffffffffffffffffffffffffffffffffffffffffffffffff1916817bffffffffffffffffffffffffffffffffffffffffffffffffffffffff191614613474576040517f08c379a000000000000000000000000000000000000000000000000000000000815260040161346b90615882565b60405180910390fd5b505b505050505050565b600080823b905060008111915050919050565b82805461349d906148c9565b90600052602060002090601f0160209004810192826134bf5760008555613506565b82601f106134d857805160ff1916838001178555613506565b82800160010185558215613506579182015b828111156135055782518255916020019190600101906134ea565b5b5090506135139190613517565b5090565b5b80821115613530576000816000905550600101613518565b5090565b6000604051905090565b600080fd5b600080fd5b600073ffffffffffffffffffffffffffffffffffffffff82169050919050565b600061357382613548565b9050919050565b61358381613568565b811461358e57600080fd5b50565b6000813590506135a08161357a565b92915050565b6000819050919050565b6135b9816135a6565b81146135c457600080fd5b50565b6000813590506135d6816135b0565b92915050565b600080604083850312156135f3576135f261353e565b5b600061360185828601613591565b9250506020613612858286016135c7565b9150509250929050565b613625816135a6565b82525050565b6000602082019050613640600083018461361c565b92915050565b60007fffffffff0000000000000000000000000000000000000000000000000000000082169050919050565b61367b81613646565b811461368657600080fd5b50565b60008135905061369881613672565b92915050565b6000602082840312156136b4576136b361353e565b5b60006136c284828501613689565b91505092915050565b60008115159050919050565b6136e0816136cb565b82525050565b60006020820190506136fb60008301846136d7565b92915050565b600080fd5b600080fd5b6000601f19601f8301169050919050565b7f4e487b7100000000000000000000000000000000000000000000000000000000600052604160045260246000fd5b6137548261370b565b810181811067ffffffffffffffff821117156137735761377261371c565b5b80604052505050565b6000613786613534565b9050613792828261374b565b919050565b600067ffffffffffffffff8211156137b2576137b161371c565b5b6137bb8261370b565b9050602081019050919050565b82818337600083830152505050565b60006137ea6137e584613797565b61377c565b90508281526020810184848401111561380657613805613706565b5b6138118482856137c8565b509392505050565b600082601f83011261382e5761382d613701565b5b813561383e8482602086016137d7565b91505092915050565b6000806000606084860312156138605761385f61353e565b5b600061386e86828701613591565b935050602084013567ffffffffffffffff81111561388f5761388e613543565b5b61389b86828701613819565b92505060406138ac868287016135c7565b9150509250925092565b6000602082840312156138cc576138cb61353e565b5b600082013567ffffffffffffffff8111156138ea576138e9613543565b5b6138f684828501613819565b91505092915050565b6000602082840312156139155761391461353e565b5b6000613923848285016135c7565b91505092915050565b61393581613568565b82525050565b6000602082019050613950600083018461392c565b92915050565b600081519050919050565b600082825260208201905092915050565b60005b83811015613990578082015181840152602081019050613975565b8381111561399f576000848401525b50505050565b60006139b082613956565b6139ba8185613961565b93506139ca818560208601613972565b6139d38161370b565b840191505092915050565b600060208201905081810360008301526139f881846139a5565b905092915050565b60008060408385031215613a1757613a1661353e565b5b6000613a25858286016135c7565b9250506020613a36858286016135c7565b9150509250929050565b600060208284031215613a5657613a5561353e565b5b6000613a6484828501613591565b91505092915050565b60008060408385031215613a8457613a8361353e565b5b6000613a92858286016135c7565b925050602083013567ffffffffffffffff811115613ab357613ab2613543565b5b613abf85828601613819565b9150509250929050565b60008060408385031215613ae057613adf61353e565b5b600083013567ffffffffffffffff811115613afe57613afd613543565b5b613b0a85828601613819565b9250506020613b1b858286016135c7565b9150509250929050565b600067ffffffffffffffff821115613b4057613b3f61371c565b5b602082029050602081019050919050565b600080fd5b6000613b69613b6484613b25565b61377c565b90508083825260208201905060208402830185811115613b8c57613b8b613b51565b5b835b81811015613bb55780613ba188826135c7565b845260208401935050602081019050613b8e565b5050509392505050565b600082601f830112613bd457613bd3613701565b5b8135613be4848260208601613b56565b91505092915050565b600067ffffffffffffffff821115613c0857613c0761371c565b5b613c118261370b565b9050602081019050919050565b6000613c31613c2c84613bed565b61377c565b905082815260208101848484011115613c4d57613c4c613706565b5b613c588482856137c8565b509392505050565b600082601f830112613c7557613c74613701565b5b8135613c85848260208601613c1e565b91505092915050565b600080600080600060a08688031215613caa57613ca961353e565b5b6000613cb888828901613591565b9550506020613cc988828901613591565b945050604086013567ffffffffffffffff811115613cea57613ce9613543565b5b613cf688828901613bbf565b935050606086013567ffffffffffffffff811115613d1757613d16613543565b5b613d2388828901613bbf565b925050608086013567ffffffffffffffff811115613d4457613d43613543565b5b613d5088828901613c60565b9150509295509295909350565b600067ffffffffffffffff821115613d7857613d7761371c565b5b602082029050602081019050919050565b6000613d9c613d9784613d5d565b61377c565b90508083825260208201905060208402830185811115613dbf57613dbe613b51565b5b835b81811015613de85780613dd48882613591565b845260208401935050602081019050613dc1565b5050509392505050565b600082601f830112613e0757613e06613701565b5b8135613e17848260208601613d89565b91505092915050565b60008060408385031215613e3757613e3661353e565b5b600083013567ffffffffffffffff811115613e5557613e54613543565b5b613e6185828601613df2565b925050602083013567ffffffffffffffff811115613e8257613e81613543565b5b613e8e85828601613bbf565b9150509250929050565b600081519050919050565b600082825260208201905092915050565b6000819050602082019050919050565b613ecd816135a6565b82525050565b6000613edf8383613ec4565b60208301905092915050565b6000602082019050919050565b6000613f0382613e98565b613f0d8185613ea3565b9350613f1883613eb4565b8060005b83811015613f49578151613f308882613ed3565b9750613f3b83613eeb565b925050600181019050613f1c565b5085935050505092915050565b60006020820190508181036000830152613f708184613ef8565b905092915050565b60008060408385031215613f8f57613f8e61353e565b5b6000613f9d858286016135c7565b9250506020613fae85828601613591565b9150509250929050565b600080600060608486031215613fd157613fd061353e565b5b6000613fdf868287016135c7565b9350506020613ff0868287016135c7565b925050604084013567ffffffffffffffff81111561401157614010613543565b5b61401d86828701613819565b9150509250925092565b614030816136cb565b811461403b57600080fd5b50565b60008135905061404d81614027565b92915050565b6000806040838503121561406a5761406961353e565b5b600061407885828601613591565b92505060206140898582860161403e565b9150509250929050565b600080600080608085870312156140ad576140ac61353e565b5b60006140bb878288016135c7565b945050602085013567ffffffffffffffff8111156140dc576140db613543565b5b6140e887828801613df2565b93505060406140f98782880161403e565b925050606061410a878288016135c7565b91505092959194509250565b600067ffffffffffffffff8211156141315761413061371c565b5b602082029050602081019050919050565b600061415561415084614116565b61377c565b9050808382526020820190506020840283018581111561417857614177613b51565b5b835b818110156141bf57803567ffffffffffffffff81111561419d5761419c613701565b5b8086016141aa8982613819565b8552602085019450505060208101905061417a565b5050509392505050565b600082601f8301126141de576141dd613701565b5b81356141ee848260208601614142565b91505092915050565b600080600080608085870312156142115761421061353e565b5b600061421f878288016135c7565b945050602085013567ffffffffffffffff8111156142405761423f613543565b5b61424c878288016141c9565b935050604061425d8782880161403e565b925050606061426e878288016135c7565b91505092959194509250565b600080604083850312156142915761429061353e565b5b600061429f85828601613591565b92505060206142b085828601613591565b9150509250929050565b600080600080600060a086880312156142d6576142d561353e565b5b60006142e488828901613591565b95505060206142f588828901613591565b9450506040614306888289016135c7565b9350506060614317888289016135c7565b925050608086013567ffffffffffffffff81111561433857614337613543565b5b61434488828901613c60565b9150509295509295909350565b7f455243313135353a2062616c616e636520717565727920666f7220746865207a60008201527f65726f2061646472657373000000000000000000000000000000000000000000602082015250565b60006143ad602b83613961565b91506143b882614351565b604082019050919050565b600060208201905081810360008301526143dc816143a0565b9050919050565b7f42616467654d453a204f6e6c792063726561746f722063616e207472616e736660008201527f657220746f6b656e730000000000000000000000000000000000000000000000602082015250565b600061443f602983613961565b915061444a826143e3565b604082019050919050565b6000602082019050818103600083015261446e81614432565b9050919050565b7f42616467654d453a204d75737420737065636966792061646472657373206f7260008201527f206e616d65000000000000000000000000000000000000000000000000000000602082015250565b60006144d1602583613961565b91506144dc82614475565b604082019050919050565b60006020820190508181036000830152614500816144c4565b9050919050565b7f42616467654d453a204d757374206f776e207468617420746f6b656e00000000600082015250565b600061453d601c83613961565b915061454882614507565b602082019050919050565b6000602082019050818103600083015261456c81614530565b9050919050565b7f42616467654d453a2043616e2774206d6f7665206265666f726520626567696e60008201527f6e696e6700000000000000000000000000000000000000000000000000000000602082015250565b60006145cf602483613961565b91506145da82614573565b604082019050919050565b600060208201905081810360008301526145fe816145c2565b9050919050565b600081905092915050565b600061461b82613956565b6146258185614605565b9350614635818560208601613972565b80840191505092915050565b600061464d8284614610565b915081905092915050565b7f42616467654d453a204e616d6520726563656976656420626164676520796574600082015250565b600061468e602083613961565b915061469982614658565b602082019050919050565b600060208201905081810360008301526146bd81614681565b9050919050565b7f4e616d6520697320696e20626c61636b6c697374000000000000000000000000600082015250565b60006146fa601483613961565b9150614705826146c4565b602082019050919050565b60006020820190508181036000830152614729816146ed565b9050919050565b7f42616467654d453a2043616e27742073656e64206d6f7265207468616e206f6e60008201527f65204e465420746f2073616d65206163636f756e740000000000000000000000602082015250565b600061478c603583613961565b915061479782614730565b604082019050919050565b600060208201905081810360008301526147bb8161477f565b9050919050565b7f4164647265737320697320696e20626c61636b6c697374000000000000000000600082015250565b60006147f8601783613961565b9150614803826147c2565b602082019050919050565b60006020820190508181036000830152614827816147eb565b9050919050565b7f4f776e61626c653a2063616c6c6572206973206e6f7420746865206f776e6572600082015250565b6000614864602083613961565b915061486f8261482e565b602082019050919050565b6000602082019050818103600083015261489381614857565b9050919050565b7f4e487b7100000000000000000000000000000000000000000000000000000000600052602260045260246000fd5b600060028204905060018216806148e157607f821691505b602082108114156148f5576148f461489a565b5b50919050565b7f42616467654d453a2054686973206576656e7420646f65736e2774206578697360008201527f7473000000000000000000000000000000000000000000000000000000000000602082015250565b6000614957602283613961565b9150614962826148fb565b604082019050919050565b600060208201905081810360008301526149868161494a565b9050919050565b7f42616467654d453a2043616e2774206d696e7420746f6b656e7320796f75206860008201527f6176656e27742063726561746564000000000000000000000000000000000000602082015250565b60006149e9602e83613961565b91506149f48261498d565b604082019050919050565b60006020820190508181036000830152614a18816149dc565b9050919050565b7f42616467654d453a2043616e2774206d696e742061667465722074686520656e60008201527f64206f6620746865206576656e74000000000000000000000000000000000000602082015250565b6000614a7b602e83613961565b9150614a8682614a1f565b604082019050919050565b60006020820190508181036000830152614aaa81614a6e565b9050919050565b7f42616467654d453a2043616e277420636c61696d20616674657220746865206560008201527f6e64206f6620746865206576656e740000000000000000000000000000000000602082015250565b6000614b0d602f83613961565b9150614b1882614ab1565b604082019050919050565b60006020820190508181036000830152614b3c81614b00565b9050919050565b7f42616467654d453a204e616d6520646f65736e27742065786973747300000000600082015250565b6000614b79601c83613961565b9150614b8482614b43565b602082019050919050565b60006020820190508181036000830152614ba881614b6c565b9050919050565b7f42616467654d453a204e6174697665207472616e73666572732061726520646960008201527f7361626c65640000000000000000000000000000000000000000000000000000602082015250565b6000614c0b602683613961565b9150614c1682614baf565b604082019050919050565b60006020820190508181036000830152614c3a81614bfe565b9050919050565b7f455243313135353a206163636f756e747320616e6420696473206c656e67746860008201527f206d69736d617463680000000000000000000000000000000000000000000000602082015250565b6000614c9d602983613961565b9150614ca882614c41565b604082019050919050565b60006020820190508181036000830152614ccc81614c90565b9050919050565b7f4e487b7100000000000000000000000000000000000000000000000000000000600052603260045260246000fd5b7f4e487b7100000000000000000000000000000000000000000000000000000000600052601160045260246000fd5b6000614d3c826135a6565b91507fffffffffffffffffffffffffffffffffffffffffffffffffffffffffffffffff821415614d6f57614d6e614d02565b5b600182019050919050565b7f426164674d453a2053746172742074696d65206d75737420626520696e20746860008201527f6520667574757265000000000000000000000000000000000000000000000000602082015250565b6000614dd6602883613961565b9150614de182614d7a565b604082019050919050565b60006020820190508181036000830152614e0581614dc9565b9050919050565b7f42616467654d453a20547279696e6720746f20707573682073616d652065766560008201527f6e7420746f20616e6f7468657220696400000000000000000000000000000000602082015250565b6000614e68603083613961565b9150614e7382614e0c565b604082019050919050565b60006020820190508181036000830152614e9781614e5b565b9050919050565b6000614ea9826135a6565b9150614eb4836135a6565b925082821015614ec757614ec6614d02565b5b828203905092915050565b6000819050919050565b614eed614ee8826135a6565b614ed2565b82525050565b60008160601b9050919050565b6000614f0b82614ef3565b9050919050565b6000614f1d82614f00565b9050919050565b614f35614f3082613568565b614f12565b82525050565b6000819050919050565b6000819050919050565b614f60614f5b82614f3b565b614f45565b82525050565b6000614f728286614edc565b602082019150614f828285614f24565b601482019150614f928284614f4f565b602082019150819050949350505050565b6000614fae826135a6565b9150614fb9836135a6565b9250827fffffffffffffffffffffffffffffffffffffffffffffffffffffffffffffffff03821115614fee57614fed614d02565b5b828201905092915050565b7f455243313135353a2073657474696e6720617070726f76616c2073746174757360008201527f20666f722073656c660000000000000000000000000000000000000000000000602082015250565b6000615055602983613961565b915061506082614ff9565b604082019050919050565b6000602082019050818103600083015261508481615048565b9050919050565b7f42616467654d453a2043616e2774206d616e6167652077686974656c6973742c60008201527f206e6f7420746865206f776e6572000000000000000000000000000000000000602082015250565b60006150e7602e83613961565b91506150f28261508b565b604082019050919050565b60006020820190508181036000830152615116816150da565b9050919050565b7f42616467654d453a2043616e2774206d616e616765206166746572207468652060008201527f656e64206f6620746865206576656e7400000000000000000000000000000000602082015250565b6000615179603083613961565b91506151848261511d565b604082019050919050565b600060208201905081810360008301526151a88161516c565b9050919050565b6000815190506151be816135b0565b92915050565b6000602082840312156151da576151d961353e565b5b60006151e8848285016151af565b91505092915050565b6000815190506152008161357a565b92915050565b60006020828403121561521c5761521b61353e565b5b600061522a848285016151f1565b91505092915050565b7f4f776e61626c653a206e6577206f776e657220697320746865207a65726f206160008201527f6464726573730000000000000000000000000000000000000000000000000000602082015250565b600061528f602683613961565b915061529a82615233565b604082019050919050565b600060208201905081810360008301526152be81615282565b9050919050565b7f455243313135353a206275726e2066726f6d20746865207a65726f206164647260008201527f6573730000000000000000000000000000000000000000000000000000000000602082015250565b6000615321602383613961565b915061532c826152c5565b604082019050919050565b6000602082019050818103600083015261535081615314565b9050919050565b7f455243313135353a206275726e20616d6f756e7420657863656564732062616c60008201527f616e636500000000000000000000000000000000000000000000000000000000602082015250565b60006153b3602483613961565b91506153be82615357565b604082019050919050565b600060208201905081810360008301526153e2816153a6565b9050919050565b60006040820190506153fe600083018561361c565b61540b602083018461361c565b9392505050565b7f455243313135353a207472616e7366657220746f20746865207a65726f20616460008201527f6472657373000000000000000000000000000000000000000000000000000000602082015250565b600061546e602583613961565b915061547982615412565b604082019050919050565b6000602082019050818103600083015261549d81615461565b9050919050565b7f455243313135353a20696e73756666696369656e742062616c616e636520666f60008201527f72207472616e7366657200000000000000000000000000000000000000000000602082015250565b6000615500602a83613961565b915061550b826154a4565b604082019050919050565b6000602082019050818103600083015261552f816154f3565b9050919050565b7f455243313135353a206d696e7420746f20746865207a65726f2061646472657360008201527f7300000000000000000000000000000000000000000000000000000000000000602082015250565b6000615592602183613961565b915061559d82615536565b604082019050919050565b600060208201905081810360008301526155c181615585565b9050919050565b600081519050919050565b600082825260208201905092915050565b60006155ef826155c8565b6155f981856155d3565b9350615609818560208601613972565b6156128161370b565b840191505092915050565b600060a082019050615632600083018861392c565b61563f602083018761392c565b61564c604083018661361c565b615659606083018561361c565b818103608083015261566b81846155e4565b90509695505050505050565b60008151905061568681613672565b92915050565b6000602082840312156156a2576156a161353e565b5b60006156b084828501615677565b91505092915050565b60008160e01c9050919050565b600060033d11156156e55760046000803e6156e26000516156b9565b90505b90565b600060443d10156156f85761577b565b615700613534565b60043d036004823e80513d602482011167ffffffffffffffff8211171561572857505061577b565b808201805167ffffffffffffffff811115615746575050505061577b565b80602083010160043d03850181111561576357505050505061577b565b6157728260200185018661374b565b82955050505050505b90565b7f455243313135353a207472616e7366657220746f206e6f6e204552433131353560008201527f526563656976657220696d706c656d656e746572000000000000000000000000602082015250565b60006157da603483613961565b91506157e58261577e565b604082019050919050565b60006020820190508181036000830152615809816157cd565b9050919050565b7f455243313135353a204552433131353552656365697665722072656a6563746560008201527f6420746f6b656e73000000000000000000000000000000000000000000000000602082015250565b600061586c602883613961565b915061587782615810565b604082019050919050565b6000602082019050818103600083015261589b8161585f565b905091905056fea264697066735822122013eb2f835363fb06e5136991d620cb7136a92837413424189a725997e553766a64736f6c634300080b003368747470733a2f2f6261646765732e706f6c79676f6e6d652e78797a2f7b69647d2e6a736f6e",
  "immutableReferences": {},
  "source": "// SPDX-License-Identifier: MIT\npragma solidity ^0.8.6;\n\nimport \"@openzeppelin/contracts/token/ERC1155/ERC1155.sol\";\nimport \"@openzeppelin/contracts/access/Ownable.sol\";\nimport \"../interfaces/IME.sol\";\n\n/**\n * @title BadgeME\n * BadgeME - Extending PolygonME with Badges\n */\ncontract BadgeME is ERC1155, Ownable {\n    IME private _me;\n    string metadata_uri;\n    mapping(uint256 => string) public _idToEventMetadata;\n    mapping(string => uint256) public _metadataToEventId;\n    mapping(uint256 => address) public _creators;\n    mapping(address => uint256[]) public _created;\n    mapping(address => uint256[]) public _received;\n    mapping(uint256 => uint256) internal _endTimestamp;\n    mapping(uint256 => uint256) internal _startTimestamp;\n    mapping(string => mapping(uint256 => bool)) internal _nameBalances;\n    mapping(uint256 => mapping(address => bool)) internal _addressWhitelist;\n    mapping(uint256 => mapping(address => bool)) internal _addressBlacklist;\n    mapping(uint256 => mapping(string => bool)) internal _nameWhitelist;\n    mapping(uint256 => mapping(string => bool)) internal _nameBlacklist;\n    uint256 nonce = 0;\n\n    constructor(address PolygonME)\n        ERC1155(\"https://badges.polygonme.xyz/{id}.json\")\n    {\n        _me = IME(PolygonME);\n        metadata_uri = \"https://badges.polygonme.xyz/{id}.json\";\n    }\n\n    /**\n     * Admin functions to fix base address if needed\n     */\n    function fixME(address PolygonME) public onlyOwner {\n        _me = IME(PolygonME);\n    }\n\n    /**\n     * Admin functions to fix base uri if needed\n     */\n    function setURI(string memory newuri) public onlyOwner {\n        metadata_uri = newuri;\n        _setURI(newuri);\n    }\n\n    /**\n     * Internal function to return the tokenId for a specific name\n     */\n    function returnNameId(string memory _name, string memory _gate)\n        internal\n        view\n        returns (uint256)\n    {\n        uint256 tknId = _me._nameToTokenId(\n            string(abi.encodePacked(_name, \".\", _gate))\n        );\n        require(tknId > 0, \"BadgeME: This name doesn't exists.\");\n        return tknId;\n    }\n\n    /**\n     * Public function to return the address of a specific name\n     */\n    function getAddress(string memory _name) public view returns (address) {\n        uint256 tknId = _me._nameToTokenId(_name);\n        if (tknId > 0) {\n            address settedAddress = _me.getAddressByName(_name);\n            if (settedAddress != address(0)) {\n                return settedAddress;\n            } else {\n                address owner = _me.ownerOf(tknId);\n                return owner;\n            }\n        } else {\n            return address(0);\n        }\n    }\n\n    function prepare(\n        uint256 start_timestamp,\n        uint256 end_timestamp,\n        string memory metadata\n    ) public returns (uint256) {\n        require(\n            block.timestamp < start_timestamp,\n            \"BadgME: Start time must be in the future\"\n        );\n        require(\n            _metadataToEventId[metadata] == 0,\n            \"BadgeME: Trying to push same event to another id\"\n        );\n        uint256 id = uint256(\n            keccak256(\n                abi.encodePacked(nonce, msg.sender, blockhash(block.number - 1))\n            )\n        );\n        while (_startTimestamp[id] > 0) {\n            nonce += 1;\n            id = uint256(\n                keccak256(\n                    abi.encodePacked(\n                        nonce,\n                        msg.sender,\n                        blockhash(block.number - 1)\n                    )\n                )\n            );\n        }\n        _idToEventMetadata[id] = metadata;\n        _metadataToEventId[metadata] = id;\n        _startTimestamp[id] = start_timestamp;\n        _endTimestamp[id] = end_timestamp;\n        _creators[id] = msg.sender;\n        _created[msg.sender].push(id);\n        return id;\n    }\n\n    function created(address _creator)\n        public\n        view\n        returns (uint256[] memory createdTokens)\n    {\n        return _created[_creator];\n    }\n\n    function received(address _receiver)\n        public\n        view\n        returns (uint256[] memory receivedTokens)\n    {\n        return _received[_receiver];\n    }\n\n    function tokenCID(uint256 id)\n        public\n        view\n        returns (string memory)\n    {\n        return _idToEventMetadata[id];\n    }\n\n    function mint(uint256 id, uint256 amount) public {\n        require(_startTimestamp[id] > 0, \"BadgeME: This event doesn't exists\");\n        require(\n            _creators[id] == msg.sender,\n            \"BadgeME: Can't mint tokens you haven't created\"\n        );\n        require(\n            block.timestamp < _endTimestamp[id],\n            \"BadgeME: Can't mint after the end of the event\"\n        );\n        _mint(msg.sender, id, amount, bytes(\"\"));\n    }\n\n    function claim(uint256 id, string memory name) public {\n        require(_startTimestamp[id] > 0, \"BadgeME: This event doesn't exists\");\n        require(\n            block.timestamp < _endTimestamp[id],\n            \"BadgeME: Can't claim after the end of the event\"\n        );\n        address to = msg.sender;\n        if (bytes(name).length > 0) {\n            to = getAddress(name);\n            require(\n                _nameBalances[name][id] == false,\n                \"BadgeME: Name received badge yet\"\n            );\n            require(_nameBlacklist[id][name] == false, \"Name is in blacklist\");\n            require(_nameWhitelist[id][name] == true, \"Name is in blacklist\");\n            _nameBalances[name][id] = true;\n        }\n        require(\n            ERC1155.balanceOf(to, id) == 0,\n            \"BadgeME: Can't send more than one NFT to same account\"\n        );\n        require(_addressBlacklist[id][to] == false, \"Address is in blacklist\");\n        require(_addressWhitelist[id][to] == true, \"Address is in blacklist\");\n        _received[to].push(id);\n        _mint(to, id, 1, bytes(\"\"));\n    }\n\n    function manageAddressWhitelist(\n        uint256 id,\n        address[] memory addresses,\n        bool state,\n        uint256 list\n    ) public {\n        require(\n            _creators[id] == msg.sender,\n            \"BadgeME: Can't manage whitelist, not the owner\"\n        );\n        require(_startTimestamp[id] > 0, \"BadgeME: This event doesn't exists\");\n        require(\n            block.timestamp < _endTimestamp[id],\n            \"BadgeME: Can't manage after the end of the event\"\n        );\n        if (list == 0) {\n            for (uint256 i = 0; i < addresses.length; i++) {\n                _addressWhitelist[id][addresses[i]] = state;\n            }\n        } else {\n            for (uint256 i = 0; i < addresses.length; i++) {\n                _addressBlacklist[id][addresses[i]] = state;\n            }\n        }\n    }\n\n    function manageNameWhitelist(\n        uint256 id,\n        string[] memory names,\n        bool state,\n        uint256 list\n    ) public {\n        require(\n            _creators[id] == msg.sender,\n            \"BadgeME: Can't manage whitelist, not the owner\"\n        );\n        require(_startTimestamp[id] > 0, \"BadgeME: This event doesn't exists\");\n        require(\n            block.timestamp < _endTimestamp[id],\n            \"BadgeME: Can't manage after the end of the event\"\n        );\n        if (list == 0) {\n            for (uint256 i = 0; i < names.length; i++) {\n                _nameWhitelist[id][names[i]] = state;\n            }\n        } else {\n            for (uint256 i = 0; i < names.length; i++) {\n                _nameBlacklist[id][names[i]] = state;\n            }\n        }\n    }\n\n    /**\n     * Function to get the creator of a specific event\n     */\n    function creatorOfEvent(uint256 tknId) public view returns (address) {\n        return _creators[tknId];\n    }\n\n    /**\n     * Function to get the whitelist status\n     */\n    function isInAddressWhitelist(uint256 id, address who)\n        public\n        view\n        returns (bool)\n    {\n        return _addressWhitelist[id][who];\n    }\n\n    function isInNameWhitelist(uint256 name, string memory who)\n        public\n        view\n        returns (bool)\n    {\n        return _nameWhitelist[name][who];\n    }\n\n    /**\n     * Function to get the blacklist status\n     */\n    function isInAddressBlacklist(uint256 id, address who)\n        public\n        view\n        returns (bool)\n    {\n        return _addressBlacklist[id][who];\n    }\n\n    function isInNameBlacklist(uint256 name, string memory who)\n        public\n        view\n        returns (bool)\n    {\n        return _nameBlacklist[name][who];\n    }\n\n    /**\n     * Function to get the balance of a specific event for required name\n     */\n    function hasBadge(string memory name, uint256 id)\n        public\n        view\n        returns (bool)\n    {\n        require(getAddress(name) != address(0), \"BadgeME: Name doesn't exists\");\n        return _nameBalances[name][id];\n    }\n\n    function transferBadge(\n        address to,\n        string memory name,\n        uint256 id\n    ) public {\n        require(\n            creatorOfEvent(id) == msg.sender,\n            \"BadgeME: Only creator can transfer tokens\"\n        );\n        require(\n            to != address(0) || bytes(name).length > 0,\n            \"BadgeME: Must specify address or name\"\n        );\n        require(\n            ERC1155.balanceOf(msg.sender, id) > 0,\n            \"BadgeME: Must own that token\"\n        );\n        // Require event started\n        require(\n            block.timestamp >= _startTimestamp[id],\n            \"BadgeME: Can't move before beginning\"\n        );\n        // Burn all tokens if try to transfer after deadline\n        if (block.timestamp >= _endTimestamp[id]) {\n            uint256 balance = ERC1155.balanceOf(msg.sender, id);\n            return ERC1155._burn(msg.sender, id, balance);\n        } else {\n            // Check if transaction has name or address\n            if (bytes(name).length > 0) {\n                to = getAddress(name);\n                require(\n                    _nameBalances[name][id] == false,\n                    \"BadgeME: Name received badge yet\"\n                );\n                require(\n                    _nameBlacklist[id][name] == false,\n                    \"Name is in blacklist\"\n                );\n                _nameBalances[name][id] = true;\n            }\n            require(\n                ERC1155.balanceOf(to, id) == 0,\n                \"BadgeME: Can't send more than one NFT to same account\"\n            );\n            require(\n                _addressBlacklist[id][to] == false,\n                \"Address is in blacklist\"\n            );\n            _received[to].push(id);\n            return ERC1155._safeTransferFrom(msg.sender, to, id, 1, bytes(\"\"));\n        }\n    }\n\n    // Overriding native transfer functions\n\n    function safeTransferFrom(\n        address from,\n        address to,\n        uint256 id,\n        uint256 amount,\n        bytes memory data\n    ) public pure override {\n        require(1 < 0, \"BadgeME: Native transfers are disabled\");\n    }\n\n    function _safeTransferFrom(\n        address from,\n        address to,\n        uint256 id,\n        uint256 amount,\n        bytes memory data\n    ) internal pure override {\n        require(1 < 0, \"BadgeME: Native transfers are disabled\");\n    }\n\n    function safeBatchTransferFrom(\n        address from,\n        address to,\n        uint256[] memory ids,\n        uint256[] memory amounts,\n        bytes memory data\n    ) public pure override {\n        require(1 < 0, \"BadgeME: Native transfers are disabled\");\n    }\n\n    function _safeBatchTransferFrom(\n        address from,\n        address to,\n        uint256[] memory ids,\n        uint256[] memory amounts,\n        bytes memory data\n    ) internal pure override {\n        require(1 < 0, \"BadgeME: Native transfers are disabled\");\n    }\n}\n",
  "sourcePath": "/home/turinglabs/GIT/YOMI/polygonme-badge/smartcontract/contracts/BadgeME.sol",
  "compiler": {
    "name": "solc",
    "version": "0.8.11+commit.d7f03943.Emscripten.clang"
  },
  "schemaVersion": "3.4.3",
  "updatedAt": "2022-01-09T18:11:01.919Z",
  "networkType": "ethereum",
  "devdoc": {
    "kind": "dev",
    "methods": {
      "balanceOf(address,uint256)": {
        "details": "See {IERC1155-balanceOf}. Requirements: - `account` cannot be the zero address."
      },
      "balanceOfBatch(address[],uint256[])": {
        "details": "See {IERC1155-balanceOfBatch}. Requirements: - `accounts` and `ids` must have the same length."
      },
      "isApprovedForAll(address,address)": {
        "details": "See {IERC1155-isApprovedForAll}."
      },
      "owner()": {
        "details": "Returns the address of the current owner."
      },
      "renounceOwnership()": {
        "details": "Leaves the contract without owner. It will not be possible to call `onlyOwner` functions anymore. Can only be called by the current owner. NOTE: Renouncing ownership will leave the contract without an owner, thereby removing any functionality that is only available to the owner."
      },
      "safeBatchTransferFrom(address,address,uint256[],uint256[],bytes)": {
        "details": "See {IERC1155-safeBatchTransferFrom}."
      },
      "safeTransferFrom(address,address,uint256,uint256,bytes)": {
        "details": "See {IERC1155-safeTransferFrom}."
      },
      "setApprovalForAll(address,bool)": {
        "details": "See {IERC1155-setApprovalForAll}."
      },
      "supportsInterface(bytes4)": {
        "details": "See {IERC165-supportsInterface}."
      },
      "transferOwnership(address)": {
        "details": "Transfers ownership of the contract to a new account (`newOwner`). Can only be called by the current owner."
      },
      "uri(uint256)": {
        "details": "See {IERC1155MetadataURI-uri}. This implementation returns the same URI for *all* token types. It relies on the token type ID substitution mechanism https://eips.ethereum.org/EIPS/eip-1155#metadata[defined in the EIP]. Clients calling this function must replace the `\\{id\\}` substring with the actual token type ID."
      }
    },
    "title": "BadgeME BadgeME - Extending PolygonME with Badges",
    "version": 1
  },
  "userdoc": {
    "kind": "user",
    "methods": {
      "creatorOfEvent(uint256)": {
        "notice": "Function to get the creator of a specific event"
      },
      "fixME(address)": {
        "notice": "Admin functions to fix base address if needed"
      },
      "getAddress(string)": {
        "notice": "Public function to return the address of a specific name"
      },
      "hasBadge(string,uint256)": {
        "notice": "Function to get the balance of a specific event for required name"
      },
      "isInAddressBlacklist(uint256,address)": {
        "notice": "Function to get the blacklist status"
      },
      "isInAddressWhitelist(uint256,address)": {
        "notice": "Function to get the whitelist status"
      },
      "setURI(string)": {
        "notice": "Admin functions to fix base uri if needed"
      }
    },
    "version": 1
  }
}